:1000000043C1000072C1000070C100006EC1000059
:100010006CC100006AC1000068C1000066C1000038
:1000200064C1000062C1000060C100005EC1000048
:100030005CC100000C94C31958C1000056C10000F7
:1000400054C1000052C1000050C100004EC1000068
:100050004CC100004AC1000048C100000C9479194D
:1000600044C100000C9443190C9419193EC10000BE
:100070003CC100003AC1000038C1000036C1000098
:1000800034C1000032C1000030C100002EC10000A8
:100090002CC100002AC1000028C100000C94A41A41
:1000A00024C1000022C1000020C100001EC10000C8
:1000B0001CC100001AC1000018C1000016C10000D8
:1000C00014C1000012C1000010C100000EC10000E8
:1000D0000CC100000AC1000008C1000006C10000F8
:1000E00004C1000007634236B79BD8A71A39685687
:1000F00018AEBAAB558C1D3CB7CC5763BD6DEDFD4A
:10010000753EF6177231BF000000803F0800000006
:10011000BE922449123EABAAAA2ABECDCCCC4C3EFC
:1001200000000080BEABAAAAAA3E00000000BF00EB
:100130000000803F0000000000084178D3BB4387E7
:10014000D1133D190E3CC3BD4282AD2B3E68EC82FB
:1001500076BED98FE1A93E4C80EFFFBE01C4FF7F80
:100160003F000000000000002000230026002900BE
:100170002C002F00320000010000030106010901DC
:1001800000002100240027002A002D003000330049
:1001900001010000040107010A01000022002500FE
:1001A00028002B002E003100340002010000050160
:1001B00008010B01050505050705080808080202E6
:1001C00002020A0A080804040404010101010101F1
:1001D00001010303030303030303040707070C0CD4
:1001E0000C0C0C0C0C0C020202020606060606069B
:1001F00006060B0B0B0B0B0B0B0B01021020200840
:100200000810204010204080020102010804020171
:1002100001020408102040808040201008040201E0
:100220008004020180402010080402010804020139
:1002300001020408102040800102040810204080C0
:1002400000000A0B02090C0D0E0807030401000050
:10025000000000000000000000000000000000009E
:10026000000000000000000000000000121110005B
:10027000000000000000000000000000000000007E
:10028000000000000000C81B11241FBECFEFD1E208
:10029000DEBFCDBF00E00CBF14E0A0E0B2E0E6EEB0
:1002A000F8E600E00BBF02C007900D92A437B1073B
:1002B000D9F72BE0A4E7B4E001C01D92AF34B20738
:1002C000E1F711E0C4E4D1E000E006C021970109A4
:1002D000802FFE010E942231C334D10780E008073D
:1002E000A9F70E942F1C0C9471348ACEEF92FF92D2
:1002F0000F931F93CF93DF93EC017B018A01E88179
:10030000F9810480F581E02D1995FB82EA821E8730
:100310000D87E881F9810284F385E02DCE011995DE
:10032000009701F19C0150E040E060E472E48FE04E
:1003300090E00E9406318091540A9091550AA09154
:10034000560AB091570A82179307A407B50710F40D
:10035000DA01C9018093540A9093550AA093560A72
:10036000B093570ACE01DF91CF911F910F91FF906B
:10037000EF90089508950895AF92BF92CF92DF92C3
:10038000EF92FF920F931F93CF93DF936C017B014A
:100390008B01040F151FEB015E01AE18BF08C017DB
:1003A000D10759F06991D601ED91FC910190F0814E
:1003B000E02DC6011995892B79F7C501DF91CF9101
:1003C0001F910F91FF90EF90DF90CF90BF90AF9073
:1003D0000895FC01538D448D252F30E0842F90E04B
:1003E000821B930B541710F0CF9608950197089530
:1003F000FC01918D828D981761F0A28DAE0FBF2FF9
:10040000B11D5D968C91928D9F5F9F73928F90E04E
:1004100008958FEF9FEF0895FC01918D828D9817BD
:1004200031F0828DE80FF11D858D90E008958FEFFA
:100430009FEF0895FC01918D228D892F90E0805CC3
:100440009F4F821B91098F739927089584EB99E040
:10045000F1DF21E0892B09F420E0822F0895FC01CF
:10046000A48DA80FB92FB11DA35ABF4F2C91848D15
:1004700090E001968F739927848FA689B7892C9372
:10048000A089B1898C91837080648C93938D848DC5
:10049000981306C00288F389E02D80818F7D8083C8
:1004A0000895EF92FF920F931F93CF93DF93EC0188
:1004B00081E0888F9B8D8C8D98131AC0E889F9890B
:1004C000808185FF15C09FB7F894EE89FF8960830E
:1004D000E889F98980818370806480839FBF81E08F
:1004E00090E0DF91CF911F910F91FF90EF900895D1
:1004F000F62E0B8D10E00F5F1F4F0F731127E02EAC
:100500008C8D8E110BC00FB607FCFACFE889F989E4
:10051000808185FFF5CFCE01A2DFF2CFEB8DEC0F0E
:10052000FD2FF11DE35AFF4FF0829FB7F8940B8F18
:10053000EA89FB8980818062D0CFCF93DF93EC0181
:10054000888D8823B1F0AA89BB89E889F9898C91C3
:1005500085FD03C0808186FD0CC00FB607FCF7CF78
:100560008C9185FFF2CF808185FFEDCFCE0177DFC3
:10057000EACFDF91CF91089580E090E0892B21F0C0
:1005800065DF81110E94000080E090E0892B49F036
:1005900080E090E0892B29F00E94000081110E94E8
:1005A000000080E090E0892B49F080E090E0892B0A
:1005B00029F00E94000081110E94000080E090E07C
:1005C000892B49F080E090E0892B29F00E940000FF
:1005D00081110C94000008958150823108F05AC0B6
:1005E000E82FF0E08827E850FD4F8F4F0C94223120
:1005F00018031C030A03100314034A031F032503F3
:1006000029032F03330337033D0341034A03450303
:100610004B034F03809180008F7780938000089573
:10062000809180008F7DF9CF80918000877FF5CF0A
:1006300084B58F7784BD089584B58F7DFBCF80917D
:10064000B0008F778093B00008958091B0008F7DC7
:10065000F9CF809190008F778093900008958091DA
:1006600090008F7DF9CF80919000877FF5CF8091AA
:10067000A0008F778093A00008958091A0008F7DC7
:10068000F9CF8091A000877FF5CF809120018F77EF
:10069000809320010895809120018F7DF9CF809172
:1006A0002001877FF5CF1F93CF93DF93282F30E072
:1006B000F901E05CFD4F8491F901E650FE4FD491C1
:1006C000F901EC54FE4FC491CC23A1F0162F8111F7
:1006D00083DFEC2FF0E0EE0FFF1FE656FE4FA591F3
:1006E000B4918FB7F894EC91111108C0D095DE2326
:1006F000DC938FBFDF91CF911F910895DE2BF8CF50
:1007000010927A091092790910928C0910928B0933
:100710001092780981E0809377091092760961E060
:1007200084E1C1DF61E085E1BEDFE9EBF0E08081DB
:100730008E7F808380818D7F808388E48093B80062
:1007400085E48093BC008AEB91E0909375098093D7
:1007500074098BEB91E0909373098093720908956B
:10076000CF93DF9390E0FC01E650FE4F24918C5430
:100770009E4FFC0184918823D1F090E0880F991F4F
:10078000FC01E058FE4FA591B491FC01E656FE4FE6
:10079000C591D49161110EC09FB7F8948C91E22F4E
:1007A000E0958E238C932881E223E8839FBFDF911D
:1007B000CF9108958FB7F894EC91E22BEC938FBF13
:1007C000F6CF3FB7F8948091E9049091EA04A091A4
:1007D000EB04B091EC0426B5A89B05C02F3F19F09F
:1007E0000196A11DB11D3FBFBA2FA92F982F8827B1
:1007F000BC01CD01620F711D811D911D42E0660F8C
:10080000771F881F991F4A95D1F708954F925F92DD
:100810006F927F929F92AF92BF92CF92DF92EF92B0
:10082000FF920F931F93CF93DF9300D0CDB7DEB726
:10083000F82E8091540A9091550AA091560AB091D1
:10084000570A892B8A2B8B2BD1F0BBDF00919B0998
:1008500010919C0920919D0930919E09601B710B9C
:10086000820B930B0091540A1091550A2091560A5D
:100870003091570A6017710782079307D0F2A1DF02
:1008800060939B0970939C0980939D0990939E09A6
:10089000E0915C0AF0915D0A309759F04091580A56
:1008A0005091590A60915A0A70915B0A8F2D1995DF
:1008B000F82E0091990910919A094F2C512C712C06
:1008C000612C0115110509F45EC0D8011C96EC904D
:1008D0001C978091520A9091530A8436910510F426
:1008E0001C961C92D801ED91FC91A280B3801982D4
:1008F0001A821B82FF2089F1F8013696D12CC12C77
:100900002191222319F19280992001F130E050E0E9
:1009100040E02F5F3F4F4F4F5F4FC301B2010E9436
:10092000C2309B01AC01892D90E0B0E0A0E0BC0199
:10093000CD016F5F7F4F8F4F9F4F0E94C230A1E06C
:10094000B0E0AC0FBD1FAC0DBD1D8C93BFEFCB1A3B
:10095000DB0A83E0C816D10499F6D8011D964D91A3
:100960005C911E9712966D917C919E012F5F3F4F77
:10097000C801F5011995D8011C96EC921C971496A4
:100980000D911C919ECF80919709909198099C019F
:100990002F5F3F4F309398092093970949970CF4A4
:1009A00045C08FB7F89420918F09309190094091FC
:1009B0009109509192098FBFE0919709F0919809A0
:1009C00088EE93E0E89FB001E99F700DF89F700DED
:1009D0001124072E000C880B990BC0909309D0901E
:1009E0009409E0909509F09096092C193D094E095B
:1009F0005F090E94E4303093530A2093520A109208
:100A00009809109297092FB7F89480918F099091C7
:100A10009009A0919109B09192092FBF80939309F9
:100A200090939409A0939509B09396090F900F9015
:100A30000F90DF91CF911F910F91FF90EF90DF907A
:100A4000CF90BF90AF909F907F906F905F904F90AE
:100A500008958F929F92AF92BF92CF92DF92EF92C2
:100A6000FF924B015C01ADDE6B017C01AADE6C19CB
:100A70007D098E099F09683E734081059105B0F399
:100A800021E0821A9108A108B10888EEC80E83E01F
:100A9000D81EE11CF11C81149104A104B10431F7AA
:100AA000FF90EF90DF90CF90BF90AF909F908F908E
:100AB00008950895DC01ED91FC910190F081E02D05
:100AC0001994DA01FC0190E080E08617970769F03D
:100AD0002C91208311962C911197218312962C91A1
:100AE0001297228301963396F0CF0895CF92DF922A
:100AF000EF92FF92CF93DF93EC01072E000C880B4F
:100B0000990B0E94462E6B017C0120E030E040E40E
:100B10005FE30E94FA2E20E030E048E452E40E94B5
:100B2000AB2D0E94132EC617D707D4F020E030E07B
:100B300040EA5FE3C701B6010E94FA2E20E030E0F0
:100B400048E452E40E94AB2D20E030E040E85FE34F
:100B50000E94432D0E94132E21E06C177D070CF498
:100B600020E0822F90E0DF91CF91FF90EF90DF9017
:100B7000CF9008958F929F92AF92BF92CF92DF92C3
:100B8000EF92FF920F931F93CF93DF93FC0120818D
:100B90003181E0918709F091880901E010E02E177A
:100BA0003F070CF042C0D901AA0FBB1FE091850995
:100BB000F0918609EA0FFB1FA080B18089010095A2
:100BC00010950170112720FD24C02CE93FEFEA01A8
:100BD0006B017C014901840E951EB401C50186DFBD
:100BE00021E030E0892BC1F48C0E9D1EB401C501BB
:100BF0007DDF22E030E0892B79F4BE01680D791D9C
:100C0000C50174DF23E030E0892B31F40FEF1FEFD3
:100C10000CC024E630E0DBCFF601808191810196A3
:100C20008217930784F491838083C801DF91CF9169
:100C30001F910F91FF90EF90DF90CF90BF90AF90FA
:100C40009F908F90089511821082F7018081918189
:100C50000196E9CF85ED8093BC008091BC0084FDB6
:100C6000FCCF1092780908952091C504260F3327F0
:100C7000331F21323105ECF420917809FC0190E01A
:100C800080E0243069F082E00895A091C5042191AC
:100C9000AC014B555B4FA40FB52FB11D2C930196A2
:100CA000861798F38091C504680F6093C50480E0AF
:100CB000089581E008950895E0917A098091790975
:100CC000E81730F4F0E0EB58FA4F808190E0089597
:100CD0008FEF9FEF089590917A09809179092FEF16
:100CE0003FEF981748F4E92FF0E0EB58FA4F2081D6
:100CF00030E09F5F90937A09C90108958091790946
:100D000090917A09891B990B0895CF92DF92EF9207
:100D1000FF920F931F93CF93DF937C01CB018A0146
:100D200020918E09222389F0EB016B01C40ED51EA0
:100D3000CC15DD0561F06991D701ED91FC91019031
:100D4000F081E02DC7011995F3CF642F8DDFC80125
:100D5000DF91CF911F910F91FF90EF90DF90CF9097
:100D60000895CF93DF931F92CDB7DEB769832091AB
:100D70008E092223F9F020918B09203258F021E0CE
:100D800030E0FC013383228390E080E00F90DF911C
:100D9000CF91089580918C09E82FF0E0EB57FB4F3D
:100DA000998190838F5F80938C0980938B0981E078
:100DB00090E0ECCF61E0CE01019656DFF8CF2091B4
:100DC0008B0981E0213208F044C0809178098111BB
:100DD000FCCF80918D0992E09093780991E09093F7
:100DE00077099FEF90937405109273052093720515
:100DF000A5E8B4E0E1E5F5E090E0291331C01092F8
:100E0000710590917105880F892B809371058091F0
:100E10007609813049F510927609809171058093A9
:100E2000BB008091BC0083FDF8CF85EC8093BC00B3
:100E3000809178098230E1F3809174058F3FB1F0A1
:100E4000809174058032A1F080917405803391F017
:100E500084E010928C0910928B0910928E090895EB
:100E60003D9131939F5FC9CF85EEE0CF80E0F1CF18
:100E700082E0EFCF83E0EDCF0F931F93CF93DF930B
:100E80008B01C6E7DAE0A981BA81988121E020933D
:100E90008E0990938D0910928C0910928B0994E021
:100EA000899FB00111246A5F7F4FED91FC911197EA
:100EB0000190F081E02DCD01199570E060E089810D
:100EC0009A81F8DD70E060E089819A81F3DDB801F4
:100ED00089819A81EFDD612F70E089819A81EADD55
:100EE00089819A81DF91CF911F910F9168CF1F93D4
:100EF000CF93DF93162FC6E7DAE0A981BA819881F4
:100F000021E020938E0990938D0910928C09109204
:100F10008B09ED91FC9111970190F081E02D682FE4
:100F2000CD01199589819A81DC01ED91FC910190A7
:100F3000F081E02D612F199589819A81DF91CF9100
:100F40001F913DCFFC01248131E030938E09209325
:100F50008D0910928C0910928B098385682B8AE683
:100F60009AE0FFDE8AE69AE02ACF90E080E00895DA
:100F70000F931F93CF93DF93209177042F5F322F2E
:100F800037703093770420FF2BC020E831FD2064B8
:100F9000347009F02062205FFC01EC01239600E030
:100FA00011E06485662329F070E0C8010E94D13009
:100FB0006F5F6187322F369F030E30E0311D1124A1
:100FC000311110C01682662311F06150618731968D
:100FD000EC17FD0731F7DF91CF911F910F91089525
:100FE00020E0D4CF31503683EECFCF93DF93EC01A6
:100FF000E8DB79836883DF91CF910895CF93DF9306
:10100000EC01DFDB28813981621B730B6A307105CB
:10101000C0F3DF91CF9108956F927F928F929F924C
:10102000AF92BF92CF92DF92EF92FF920F931F93F6
:10103000CF93DF93EB010F963C01E0DFF894E8815A
:10104000F98150910201586040910201477F40931D
:101050000201EA848F812E2D281B822F2F83DF84AB
:10106000AA81BB816D857C85FE846F5F7F5FF39471
:101070009E813885B984AB84118120E0C32E022F74
:10108000322F3181112788943111380F08F43FEF46
:101090008195889460FD130F1795889461FD130F57
:1010A0001795889462FD130F1795889463FD130FAD
:1010B0001795889464FD130F1795889465FD130F99
:1010C0001795889466FD130F1795889467FD130F85
:1010D00017958894232F6111212F8E0D122F002C2C
:1010E00050930201002C17FF409302013081222708
:1010F000889400C000C0409302013111390F00C034
:1011000050930201002C16FF4093020108F43FEFB8
:101110009195889400C000C04093020170FD230F98
:1011200000C050930201002C15FF40930201279547
:10113000889471FD230F00C000C0409302012795E1
:10114000889400C050930201002C14FF40930201C8
:1011500072FD230F2795889400C000C040930201C0
:1011600073FD230F00C050930201002C13FF409326
:1011700002012795889474FD230F00C000C040939E
:1011800002012795889400C050930201002C12FFA1
:101190004093020175FD230F2795889400C000C07D
:1011A0004093020176FD230F00C050930201002CF2
:1011B00011FF409302012795889477FD230F00C00B
:1011C00000C0409302012795889400C0509302010B
:1011D000002C10FF40930201132F7111122F9B0D51
:1011E00000C000C04093020100C000C05093020143
:1011F000002C17FF4093020132812227889400C0FF
:1012000000C04093020131113C0D00C05093020117
:10121000002C16FF4093020108F43FEFED0DF11D85
:1012200000C000C040930201F0FC230F00C05093A7
:101230000201002C15FF4093020127958894F1FCD0
:10124000230F00C000C0409302012795889400C07E
:1012500050930201002C14FF40930201F2FC230F73
:101260002795889400C000C040930201F3FC230F2F
:1012700000C050930201002C13FF409302012795F8
:101280008894F4FC230F00C000C04093020127950E
:10129000889400C050930201002C12FF4093020179
:1012A000F5FC230F2795889400C000C040930201ED
:1012B000F6FC230F00C050930201002C11FF409355
:1012C000020127958894F7FC230F00C000C04093CB
:1012D00002012795889400C050930201002C10FF52
:1012E00040930201132FF110122FC19400C000C0CF
:1012F00040930201CA0C00C0002C50930201002C44
:1013000017FF4093020131812227889400C000C05A
:10131000409302013111380F00C050930201002C9C
:1013200016FF4093020108F43FEF8195889400C0B6
:1013300000C04093020160FD230F00C050930201E2
:10134000002C15FF409302012795889461FD230F1F
:1013500000C000C0409302012795889400C05093BC
:101360000201002C14FF4093020162FD230F279518
:10137000889400C000C04093020163FD230F00C0A9
:1013800050930201002C13FF40930201279588948B
:1013900064FD230F00C000C040930201279588948C
:1013A00000C050930201002C12FF4093020165FD22
:1013B000230F2795889400C000C04093020166FD6A
:1013C000230F00C050930201002C11FF4093020133
:1013D0002795889467FD230F00C000C04093020149
:1013E0002795889400C050930201002C10FF409371
:1013F0000201132F6111122F8E0D00C000C0409307
:101400000201119709F06CCE4A815B8120EE31E038
:10141000DA010E942A31DC01CB0164E0B695A79580
:10142000979587956A95D1F730E020E0B901EAE910
:101430004E9F040E611D5E9F600D711D1124650F8E
:10144000711D860F971FA11DB11D893E43E09407B2
:10145000A105B10508F434C0885E9340A109B10923
:1014600042E0B695A795979587954A95D1F747E0BD
:10147000849F080E211D949F200D311D1124290FDA
:10148000311D6091760470E0860F971F280F391F79
:1014900080918F0990919009A0919109B091920942
:1014A000432F5527840F951FA11DB11D80938F09D0
:1014B00090939009A0939109B09392092093760498
:1014C0007894C301DF91CF911F910F91FF90EF901E
:1014D000DF90CF90BF90AF909F908F907F906F9054
:1014E00084CD80E991E00895E1E0F1E080818860B9
:1014F000808308954F925F926F927F928F929F9216
:10150000AF92CF92DF92EF92FF920F931F93CF9300
:10151000DF93EB010F962C0171DDF894E881F981DE
:1015200005B1006115B11F7E15B9CA848F814C2D9C
:10153000481B842F4F839F846A807B80FD84EC84CA
:10154000DE84F394E394D3949E8138858984AB84BC
:101550004181D30120E0622F722F7181442788944A
:101560007111780F08F47FEF81958894F0FC470F94
:1015700047958894F1FC470F47958894F2FC470FF4
:1015800047958894F3FC470F47958894F4FC470FE0
:1015900047958894F5FC470F47958894F6FC470FCC
:1015A00047958894F7FC470F47958894272FF110AB
:1015B000242F8C0D422F002C05B900C047FF15B910
:1015C00070812227889400C000C0002C15B97111C9
:1015D000790F00C0002C05B900C046FF15B908F40A
:1015E0007FEF9195889400C000C0002C15B9E0FCF5
:1015F000270F00C0002C05B900C045FF15B927957D
:101600008894E1FC270F00C000C0002C15B9279575
:10161000889400C0002C05B900C044FF15B9E2FC55
:10162000270F2795889400C000C0002C15B9E3FC53
:10163000270F00C0002C05B900C043FF15B927953E
:101640008894E4FC270F00C000C0002C15B9279532
:10165000889400C0002C05B900C042FF15B9E5FC14
:10166000270F2795889400C000C0002C15B9E6FC10
:10167000270F00C0002C05B900C041FF15B9279500
:101680008894E7FC270F00C000C0002C15B92795EF
:10169000889400C0002C05B900C040FF15B9472F41
:1016A000E110422F980D00C000C0002C15B900C0F9
:1016B00000C0002C05B900C047FF15B97281222770
:1016C000889400C000C0002C15B97111730F00C0C0
:1016D000002C05B900C046FF15B908F47FEFE90DED
:1016E000F11D00C000C0002C15B9D0FC270F00C0B0
:1016F000002C05B900C045FF15B927958894D1FC89
:10170000270F00C000C0002C15B92795889400C091
:10171000002C05B900C044FF15B9D2FC270F27954E
:10172000889400C000C0002C15B9D3FC270F00C05E
:10173000002C05B900C043FF15B927958894D4FC47
:10174000270F00C000C0002C15B92795889400C051
:10175000002C05B900C042FF15B9D5FC270F27950D
:10176000889400C000C0002C15B9D6FC270F00C01B
:10177000002C05B900C041FF15B927958894D7FC06
:10178000270F00C000C0002C15B92795889400C011
:10179000002C05B900C040FF15B9472FD110422FCA
:1017A000319500C000C0002C15B93A0D00C000C032
:1017B00005B900C047FF15B971812227889400C080
:1017C00000C0002C15B97111780F00C0002C05B9AC
:1017D00000C046FF15B908F47FEF8195889400C0DA
:1017E00000C0002C15B9F0FC270F00C0002C05B973
:1017F00000C045FF15B927958894F1FC270F00C05C
:1018000000C0002C15B92795889400C0002C05B99C
:1018100000C044FF15B9F2FC270F2795889400C03B
:1018200000C0002C15B9F3FC270F00C0002C05B92F
:1018300000C043FF15B927958894F4FC270F00C01A
:1018400000C0002C15B92795889400C0002C05B95C
:1018500000C042FF15B9F5FC270F2795889400C0FA
:1018600000C0002C15B9F6FC270F00C0002C05B9EC
:1018700000C041FF15B927958894F7FC270F00C0D9
:1018800000C0002C15B92795889400C0002C05B91C
:1018900000C040FF15B9472FF110422F8C0D00C03A
:1018A00000C0002C15B9119709F086CE20EE31E06A
:1018B000D3010E942A31DC01CB01F4E0B695A79553
:1018C00097958795FA95D1F730E020E0B901EAE9DC
:1018D0006E9E060C611D7E9E600D711D1124670DAC
:1018E000711D860F971FA11DB11D893E43E094070E
:1018F000A105B10508F434C0885E9340A109B1097F
:1019000042E0B695A795979587954A95D1F747E018
:10191000849F080E211D949F200D311D1124290F35
:10192000311D6091760470E0860F971F820F931F20
:1019300040918F095091900960919109709192099D
:10194000292F3327420F531F611D711D40938F09AB
:101950005093900960939109709392098093760453
:101960007894C201DF91CF911F910F91FF90EF907A
:10197000DF90CF90AF909F908F907F906F905F900F
:101980004F9033CB249A08954F925F926F927F923B
:101990008F929F92AF92CF92DF92EF92FF920F932E
:1019A0001F93CF93DF93EB010F962C0127DBF89465
:1019B000E881F98105B1006215B11F7D15B9CA84AE
:1019C0008F814C2D481B842F4F839F846A807B809E
:1019D000FD84EC84DE84F394E394D3949E81388573
:1019E0008984AB844181D30120E0622F722F718101
:1019F000442788947111780F08F47FEF81958894BB
:101A0000F0FC470F47958894F1FC470F4795889461
:101A1000F2FC470F47958894F3FC470F479588944D
:101A2000F4FC470F47958894F5FC470F4795889439
:101A3000F6FC470F47958894F7FC470F4795889425
:101A4000272FF110242F8C0D422F002C05B900C038
:101A500047FF15B970812227889400C000C0002C70
:101A600015B97111790F00C0002C05B900C046FFEF
:101A700015B908F47FEF9195889400C000C0002C40
:101A800015B9E0FC270F00C0002C05B900C045FFC8
:101A900015B927958894E1FC270F00C000C0002CE1
:101AA00015B92795889400C0002C05B900C044FFE3
:101AB00015B9E2FC270F2795889400C000C0002CC0
:101AC00015B9E3FC270F00C0002C05B900C043FF87
:101AD00015B927958894E4FC270F00C000C0002C9E
:101AE00015B92795889400C0002C05B900C042FFA5
:101AF00015B9E5FC270F2795889400C000C0002C7D
:101B000015B9E6FC270F00C0002C05B900C041FF45
:101B100015B927958894E7FC270F00C000C0002C5A
:101B200015B92795889400C0002C05B900C040FF66
:101B300015B9472FE110422F980D00C000C0002CAE
:101B400015B900C000C0002C05B900C047FF15B989
:101B500072812227889400C000C0002C15B9711131
:101B6000730F00C0002C05B900C046FF15B908F47A
:101B70007FEFE90DF11D00C000C0002C15B9D0FCAD
:101B8000270F00C0002C05B900C045FF15B92795E7
:101B90008894D1FC270F00C000C0002C15B92795F0
:101BA000889400C0002C05B900C044FF15B9D2FCD0
:101BB000270F2795889400C000C0002C15B9D3FCCE
:101BC000270F00C0002C05B900C043FF15B92795A9
:101BD0008894D4FC270F00C000C0002C15B92795AD
:101BE000889400C0002C05B900C042FF15B9D5FC8F
:101BF000270F2795889400C000C0002C15B9D6FC8B
:101C0000270F00C0002C05B900C041FF15B927956A
:101C10008894D7FC270F00C000C0002C15B9279569
:101C2000889400C0002C05B900C040FF15B9472FAB
:101C3000D110422F319500C000C0002C15B93A0DCB
:101C400000C000C005B900C047FF15B97181222747
:101C5000889400C000C0002C15B97111780F00C025
:101C6000002C05B900C046FF15B908F47FEF819537
:101C7000889400C000C0002C15B9F0FC270F00C0EC
:101C8000002C05B900C045FF15B927958894F1FCD3
:101C9000270F00C000C0002C15B92795889400C0FC
:101CA000002C05B900C044FF15B9F2FC270F279599
:101CB000889400C000C0002C15B9F3FC270F00C0A9
:101CC000002C05B900C043FF15B927958894F4FC92
:101CD000270F00C000C0002C15B92795889400C0BC
:101CE000002C05B900C042FF15B9F5FC270F279558
:101CF000889400C000C0002C15B9F6FC270F00C066
:101D0000002C05B900C041FF15B927958894F7FC50
:101D1000270F00C000C0002C15B92795889400C07B
:101D2000002C05B900C040FF15B9472FF110422F14
:101D30008C0D00C000C0002C15B9119709F086CE9B
:101D400020EE31E0D3010E942A31DC01CB01F4E026
:101D5000B695A79597958795FA95D1F730E020E04D
:101D6000B901EAE96E9E060C611D7E9E600D711D33
:101D70001124670D711D860F971FA11DB11D893E8E
:101D800043E09407A105B10508F434C0885E934090
:101D9000A109B10942E0B695A795979587954A950F
:101DA000D1F747E0849F080E211D949F200D311D1F
:101DB0001124290F311D6091760470E0860F971F62
:101DC000820F931F40918F09509190096091910962
:101DD00070919209292F3327420F531F611D711DE6
:101DE00040938F09509390096093910970939209E1
:101DF000809376047894C201DF91CF911F910F9167
:101E0000FF90EF90DF90CF90AF909F908F907F905A
:101E10006F905F904F90E9C8259A08956F927F92D6
:101E20008F929F92AF92BF92CF92DF92EF92FF92EA
:101E30000F931F93CF93DF93EB010F963C01DED8F6
:101E4000F894E881F98150910201506440910201B7
:101E50004F7B40930201EA848F812E2D281B822F15
:101E60002F83DF84AA81BB816D857C85FE846F5FB3
:101E70007F5FF3949E813885B984AB84118120E023
:101E8000C32E022F322F3181112788943111380F40
:101E900008F43FEF8195889460FD130F179588949F
:101EA00061FD130F1795889462FD130F17958894A1
:101EB00063FD130F1795889464FD130F179588948D
:101EC00065FD130F1795889466FD130F1795889479
:101ED00067FD130F17958894232F6111212F8E0D05
:101EE000122F002C50930201002C17FF4093020187
:101EF00030812227889400C000C040930201311134
:101F0000390F00C050930201002C16FF40930201CC
:101F100008F43FEF9195889400C000C040930201FF
:101F200070FD230F00C050930201002C15FF409359
:101F300002012795889471FD230F00C000C04093D3
:101F400002012795889400C050930201002C14FFD1
:101F50004093020172FD230F2795889400C000C0B2
:101F60004093020173FD230F00C050930201002C27
:101F700013FF409302012795889474FD230F00C03E
:101F800000C0409302012795889400C0509302013D
:101F9000002C12FF4093020175FD230F27958894B2
:101FA00000C000C04093020176FD230F00C0509393
:101FB0000201002C11FF409302012795889477FDC0
:101FC000230F00C000C0409302012795889400C0F1
:101FD00050930201002C10FF40930201132F711146
:101FE000122F9B0D00C000C04093020100C000C032
:101FF00050930201002C17FF4093020132812227E7
:10200000889400C000C04093020131113C0D00C013
:1020100050930201002C16FF4093020108F43FEF99
:10202000ED0DF11D00C000C040930201F0FC230F34
:1020300000C050930201002C15FF40930201279528
:102040008894F1FC230F00C000C040930201279543
:10205000889400C050930201002C14FF40930201A9
:10206000F2FC230F2795889400C000C04093020122
:10207000F3FC230F00C050930201002C13FF409388
:10208000020127958894F4FC230F00C000C0409300
:1020900002012795889400C050930201002C12FF82
:1020A00040930201F5FC230F2795889400C000C0DF
:1020B00040930201F6FC230F00C050930201002C54
:1020C00011FF4093020127958894F7FC230F00C06D
:1020D00000C0409302012795889400C050930201EC
:1020E000002C10FF40930201132FF110122FC19406
:1020F00000C000C040930201CA0C00C0002C5093E5
:102100000201002C17FF409302013181222788949D
:1021100000C000C0409302013111380F00C050933D
:102120000201002C16FF4093020108F43FEF819555
:10213000889400C000C04093020160FD230F00C0DE
:1021400050930201002C15FF4093020127958894BB
:1021500061FD230F00C000C04093020127958894C1
:1021600000C050930201002C14FF4093020162FD55
:10217000230F2795889400C000C04093020163FD9F
:10218000230F00C050930201002C13FF4093020163
:102190002795889464FD230F00C000C0409302017E
:1021A0002795889400C050930201002C12FF4093A1
:1021B000020165FD230F2795889400C000C040935D
:1021C000020166FD230F00C050930201002C11FF95
:1021D000409302012795889467FD230F00C000C03B
:1021E000409302012795889400C050930201002C6F
:1021F00010FF40930201132F6111122F8E0D00C0AA
:1022000000C040930201119709F06CCE4A815B81B6
:1022100020EE31E0DA010E942A31DC01CB0164E0DA
:10222000B695A795979587956A95D1F730E020E008
:10223000B901EAE94E9F040E611D5E9F600D711D9C
:102240001124650F711D860F971FA11DB11D893EB9
:1022500043E09407A105B10508F434C0885E9340BB
:10226000A109B10942E0B695A795979587954A953A
:10227000D1F747E0849F080E211D949F200D311D4A
:102280001124290F311D6091760470E0860F971F8D
:10229000280F391F80918F0990919009A091910981
:1022A000B0919209432F5527840F951FA11DB11D91
:1022B00080938F0990939009A0939109B09392090C
:1022C000209376047894C301DF91CF911F910F91F1
:1022D000FF90EF90DF90CF90BF90AF909F908F9046
:1022E0007F906F900C94F507E1E0F1E080818064CD
:1022F000808308950F931F93CF93DF93CDB7DEB7FD
:1023000062970FB6F894DEBF0FBECDBF8C01F90106
:10231000DC011C968C917A8369835C834B835E839A
:102320004D8390819D8791819E8792819F87813087
:10233000F1F4CE0101960E94B80783E0888B1A8AD7
:10234000198AD801ED91FC910484F585E02DBE0138
:102350006F5F7F4FC801199562960FB6F894DEBF84
:102360000FBECDBFDF91CF911F910F9108951C86B5
:102370001B861A86198618861F82DFCF0F931F933C
:10238000CF93DF93CDB7DEB762970FB6F894DEBF79
:102390000FBECDBF8C01F901DC011C968C917A83B4
:1023A00069835C834B835E834D8390819D8791819C
:1023B0009E8792819F878130E9F4CE0101960E9429
:1023C000B807188A1A8A198AD801ED91FC910484F9
:1023D000F585E02DBE016F5F7F4FC80119956296AC
:1023E0000FB6F894DEBF0FBECDBFDF91CF911F9126
:1023F0000F9108951C861B861A86198618861F82DF
:10240000E0CF90E080E00895FC01858596850895F1
:10241000CF93DF9300D000D0CDB7DEB7AB011C82E5
:102420001D821E82DC01ED91FC910190F081E02D76
:1024300019821A821B829E012F5F3F4FBE016C5F83
:102440007F4F199526960FB6F894DEBF0FBECDBF0D
:10245000DF91CF910895FC018CE892E09183808315
:10246000138212828FEF868387838087818782879A
:10247000838781E084871686158615821482809171
:10248000990990919A09892B21F4F0939A09E09384
:102490009909A0917404B0917504109721F01596D4
:1024A000FC93EE931497F0937504E09374040895ED
:1024B000FB0101900020E9F73197AF01461B570B54
:1024C000DC01ED91FC910280F381E02D19948F9253
:1024D0009F92AF92BF920F931F93CF93DF93CDB78D
:1024E000DEB7A1970FB6F894DEBF0FBECDBF19A21D
:1024F000423008F44AE08E010F5D1F4F842E912C6C
:10250000B12CA12CA50194010E94E430E62FB90161
:10251000CA01EA30FCF4E05DD801EE938D01232B73
:10252000242B252B79F790E080E0109721F0BD0156
:1025300084EB99E0BDDFA1960FB6F894DEBF0FBE25
:10254000CDBFDF91CF911F910F91BF90AF909F9022
:102550008F900895E95CE0CFCF93DF93BC0184EBCB
:1025600099E0A6DFEC0164E473E084EB99E0A0DF7E
:102570008C0F9D1FDF91CF9108959ACF0F931F93DA
:10258000CF938FE999E0FC0101900020E9F7CF019A
:10259000805A9940C0E003E110E0081B1109C01700
:1025A000110644F462E574E08FE999E00E949731E6
:1025B000CF5FF5CF67E473E08FE999E0CF911F918A
:1025C0000F910C949731BC01990F880B990B4AE03D
:1025D0007ECFEF92FF920F931F93CF9370E0F9019C
:1025E000E60FF71FC081DB01AA0FBB1FA80FB91FA1
:1025F0005C91E52F1196FC91A42FB0E0A959B64F3C
:102600008E2F851B8C17A8F42C9130E0819190E0DF
:102610008C01015011092017310794F3019682179C
:10262000930774F3411170C0675A764F81E0FB0144
:10263000808369E473E084EB99E09FDF09E519E0AA
:10264000C0E0F80181918F0190E0BDDFC33029F037
:1026500064E573E084EB99E090DFCF5FC43089F7E5
:1026600067E573E084EB99E088DF05E519E0C0E0F9
:10267000F80181918F0190E0A6DFC33029F064E575
:1026800073E084EB99E079DFCF5FC43089F78AE5A6
:1026900093E062DF6CE573E084EB99E06EDF02E6C5
:1026A00019E07801C0E0F70181917F0190E08BDFB4
:1026B000C33029F064E573E084EB99E05EDFCF5F1F
:1026C000C43089F767E573E084EB99E056DFC0E03A
:1026D000F80181918F0190E076DFC33029F064E545
:1026E00073E084EB99E049DFCF5FC43089F78AE576
:1026F00093E032DF86E693E02FDF80E0CF911F91F9
:102700000F91FF90EF9008956E59764F81E0FB0195
:10271000808310925A098DCFEF92FF920F931F93EF
:10272000CF93282F30E0662309F459C080915509D2
:10273000809359098091560980935A0980915709CD
:1027400080935B098091580980935C09F901E75AED
:10275000F64F2B5A364FD9018C9191E0892780830F
:1027600069E473E084EB99E008DF09E519E0C0E073
:10277000F80181918F0190E026DFC33029F064E5F4
:1027800073E084EB99E0F9DECF5FC43089F767E549
:1027900073E084EB99E0F1DE05E519E0C0E0D801D3
:1027A0008D918D0190E00FDFC33029F064E573E077
:1027B00084EB99E0E2DECF5FC43089F78AE593E0ED
:1027C000CBDE81E08093600981E08093610986E639
:1027D00093E0CF911F910F91FF90EF90BDCE10929B
:1027E00062091092630910926409109265091092AF
:1027F0006609823039F481E0809364098093650929
:1028000080936609F901EE59F64F2C553D4FD901D9
:102810008C9191E0892780836CE573E084EB99E0EB
:10282000ACDE02E619E07801C0E0F70181917F019A
:1028300090E0C9DEC33029F064E573E084EB99E0F1
:102840009CDECF5FC43089F767E573E084EB99E0E5
:1028500094DEC0E0D8018D918D0190E0B4DEC330EC
:1028600029F064E573E084EB99E087DECF5FC43044
:1028700089F78AE593E070DEA7CF0F931F93CF937C
:102880008C01C62F0E94A2076C2F6460C8010E94B1
:10289000A2076C2F6B7FC8010E94A20783EC90E017
:1028A0000197F1F7CF911F910F9108950F931F9307
:1028B000CF93DF938C01D62FC42F607F642BDDDF95
:1028C00080E1D89FB00111246C2BC801DF91CF911A
:1028D0001F910F91D2CFCF93DF9300D000D01F92E2
:1028E0001F92CDB7DEB798E0E8E7F2E0DE0111967F
:1028F00001900D929A95E1F79091660A981710F45D
:102900008FEF890F90E0880F991F21E030E02C0FA6
:102910003D1F820F931FFC016081606840E08EE5DF
:102920009AE028960FB6F894DEBF0FBECDBFDF91B8
:10293000CF91BCCF41E0BADF81E090E008950E94E2
:1029400093312F923F924F925F926F927F928F922C
:102950009F92AF92BF92CF92DF92EF92FF920F932E
:102960001F93CF93DF93182FD92F262EC091520992
:10297000809184048C1769F0CC2309F44CC088E062
:102980008093690A60E08EE59AE00E94A207C093F6
:102990008404412E5D2EC9EAD2E0312C86E8682EEF
:1029A00083E0782E9DE7892E93E0992E0CE713E0C3
:1029B0002BE7E22E23E0F22E33E8C32E33E0D32EB2
:1029C00040E8A42E43E0B42EF20181912F01882328
:1029D00009F460C0832D7FDFF2E03F16F9F083E059
:1029E000381609F4DFC091E080915402391202C018
:1029F000809154091F928F93BF92AF9288E794E021
:102A00009F938F930E94A9310F900F900F900F907A
:102A10000F900F9023C01092690AB4CF8091530990
:102A2000882309F47BC080916709909168098A30F6
:102A300008F048C01F929F931F928F93FF92EF92CE
:102A400088E794E09F938F930E94A931EDB7FEB77A
:102A500038960FB6F894FEBF0FBEEDBF8EEF830D14
:102A6000823008F02DC180915309882309F428C1D0
:102A70006C817D818FE999E00E94A23168E774E062
:102A80008FE999E00E94973179DD6FE979E08EE571
:102A90009AE073DD3394229694E0391295CFDF915A
:102AA000CF911F910F91FF90EF90DF90CF90BF904B
:102AB000AF909F908F907F906F905F904F903F90DE
:102AC0002F9008958436A8F41F929F931F928F939E
:102AD0001F930F9388E794E09F938F930E94A931EF
:102AE0008DB79EB708960FB6F8949EBF0FBE8DBFE8
:102AF000B5CF1F929F931F928F939F928F9288E7DB
:102B000094E09F938F930E94A931EDB7FEB738965A
:102B10000FB6F894FEBF0FBEEDBFA0CF222009F183
:102B200080915C091F928F9380915B091F928F9314
:102B300080915A091F928F93809159091F928F9308
:102B40007F926F9288E794E09F938F930E94A931C0
:102B50008DB79EB70C960FB6F8949EBF0FBE8DBF73
:102B60007DCF809158091F928F93809157091F92B2
:102B70008F93809156091F928F93809155091F92D0
:102B80008F937F926F9288E794E09F938F930E9438
:102B9000A931EDB7FEB73C960FB6F894FEBF0FBE55
:102BA000EDBF5CCF80915309882309F447C0809121
:102BB000690990916A098A30A8F41F929F931F9225
:102BC0008F93FF92EF9288E794E09F938F930E94F8
:102BD000A9318DB79EB708960FB6F8949EBF0FBE69
:102BE0008DBF3CCF8436A8F41F929F931F928F9382
:102BF0001F930F9388E794E09F938F930E94A931CE
:102C0000EDB7FEB738960FB6F894FEBF0FBEEDBF16
:102C100025CF1F929F931F928F939F928F9288E749
:102C200094E09F938F930E94A9318DB79EB7089629
:102C30000FB6F8949EBF0FBE8DBF10CF222029F192
:102C4000809166091F928F93809165091F928F93DF
:102C5000809164091F928F93809163091F928F93D3
:102C6000809162091F928F93DF92CF9288E794E060
:102C70009F938F930E94A931EDB7FEB73E960FB692
:102C8000F894FEBF0FBEEDBFE9CE1F921F921F92B8
:102C90001F921F921F921F921F921F921F92DF92EC
:102CA000CF9288E794E09F938F930E94A9318DB7CC
:102CB0009EB70E960FB6F8949EBF0FBE8DBFCECEB8
:102CC00068817981D7CECF93DF9300D01F92CDB7A3
:102CD000DEB781E089831A821B821C82909159029F
:102CE00080915402981789F0981768F091E0890F45
:102CF000809354028093510A0E94060461E0CE0141
:102D000001961FDEEBCF9FEFF2CF0F900F900F9049
:102D10000F90DF91CF9108952F923F924F925F9243
:102D20006F927F928F929F92AF92BF92CF92DF92DB
:102D3000EF92FF920F931F93CF93DF93CDB7DEB740
:102D4000ED970FB6F894DEBF0FBECDBFB82EC62EDE
:102D5000D42E2DA78091800290918102A0918202B1
:102D6000B091830289839A83AB83BC8361E0CE01F7
:102D70000196E7DD30915102388720915202298770
:102D8000909153029A87BB86CC86DD8681E0B3168C
:102D900008F480E08E8781E0C21608F480E08F8717
:102DA00081E0D91608F480E0888B1AA21F8E19A240
:102DB00018A21E8E1D8E5EE1252E312C9E012F5EE7
:102DC0003F4F3A8B298B8B2D90E0B0E0A0E08AAB8F
:102DD0009BABACABBDAB2C2D30E050E040E02EAB5C
:102DE0003FAB48AF59AF8D2D90E0B0E0A0E08AAF87
:102DF0009BAFACAFBDAF88248394912CE12C1C8E8B
:102E00001B8E82E192E0821993099C0150E040E020
:102E10002DA33EA34FA358A7C101B0E0A0E089A70E
:102E20009AA7ABA7BCA7840101501109F801E75A82
:102E3000F64FF080F801EB5AF64FA080FF2009F41E
:102E40007FC1A110ABC09B8D911141C069A57AA52E
:102E50008BA59CA50E94442E9B01AC010E94FA2EDA
:102E600020E034E244E758E40E94AB2D2B013C0102
:102E70002DEC3CEC4CE45DE30E94A72D87FD3FC0A8
:102E80006AA97BA98CA99DA90E94442EA301920145
:102E90000E94FA2E0E94182E6D8F6EA97FA988AD10
:102EA00099AD0E94442EA30192010E94FA2E0E9425
:102EB000182E6E8F6AAD7BAD8CAD9DAD0E94442EF9
:102EC000A30192010E94FA2E0E94182E68A3AD8DD4
:102ED000AD83BE8DBE83E8A1EF83F401E156FD4FC3
:102EE000608170E0F401EE0FFF1FEA56FD4FAE0166
:102EF0004B5F5F4F808191810E946105FB8EBFEF28
:102F00008B1A9B0AE5E08E16910409F08CCF809114
:102F1000510A0E94060465E070E080E090E00E94A3
:102F20002905F5E02F0E311C24EF221621E0320690
:102F300009F061CFE9E5F9E045E559E08DE599E073
:102F40002191DA012D93AD01BDA5BB2329F09F018D
:102F500021503109D9011C928E179F0789F7B09231
:102F60005102C0925202D0925302ED960FB6F894DD
:102F7000DEBF0FBECDBFDF91CF911F910F91FF90AC
:102F8000EF90DF90CF90BF90AF909F908F907F9009
:102F90006F905F904F903F902F900895E1107EC00A
:102FA0009E01225F3F4F3A8F298F7E0138E0E30E6A
:102FB000F11CAE01455F5F4F5CA34BA381E592E03E
:102FC0009C8B8B8BA98DBA8D2D91BA8FA98FF70110
:102FD000808190E0ABA1BCA10D91BCA3ABA310E09C
:102FE000222309F474C098012F5F3F4F2817390737
:102FF0000CF444C069A57AA58BA59CA50E94442E1B
:103000002B013C01EB89FC898081282F30E03E8B2D
:103010002D8BB801621B730B072E000C880B990BCC
:103020000E94462E6EA77FA788AB99ABA3019201A1
:10303000C301B2010E94FA2E20E034E244E758E4D2
:103040000E94AB2D9B01AC016EA57FA588A999A913
:103050000E94FA2E2B013C014D895E89BA01550F61
:10306000880B990B0E94462E9B01AC01C301B20153
:103070000E94432D0E94182ED7016C93BFEFEB1ACC
:10308000FB0AEB89FC893196FC8BEB8B29893A8909
:10309000498D5A8D2417350709F094CF8A85998573
:1030A00028852D839E838F83F401E156FD4F608137
:1030B00070E0F401EE0FFF1FEA56FD4FAE014B5FCB
:1030C0005F4F808191810E946105EA2C18CF9801A1
:1030D00021503109821793078CF26DA17EA18FA137
:1030E00098A50E94442E2B013C01EB89FC8960814C
:1030F00070E0601B710B072E000C880B990B0E946F
:10310000462E6D8B7E8B8F8B988FA3019201C3010E
:10311000B2010E94FA2E20E034E244E758E40E9413
:10312000AB2D9B01AC016D897E898F89988D0E94A2
:10313000FA2E2B013C01B801110F880B990B92CF8D
:10314000AA2009F4DCCE5C8D51114FC06DA17EA187
:103150008FA198A50E94442E9B01AC010E94FA2EDB
:1031600020E034E244E758E40E94AB2D2B013C01FF
:1031700020E030E040E85FE30E94F62E18160CF4E1
:103180004DC02DEC3CEC4CE45DE3C301B2010E9468
:10319000A72D87FD4AC06091510270E090E080E069
:1031A0000E94442EA30192010E94FA2E0E94182E22
:1031B00069A36091520270E090E080E00E94442E8A
:1031C000A30192010E94FA2E0E94182E6F8F609127
:1031D000530270E090E080E00E94442EA30192012F
:1031E0000E94FA2E0E94182E6AA389A18D839F8DBA
:1031F0009E83AAA1AF83F801E056FD4F608170E085
:10320000F401EE0FFF1FEA56FD4FAE014B5F5F4F1B
:10321000808191810E946105AC8E71CE412C512C30
:1032200090E8692E9FE3792EB6CF412C512C3201C4
:10323000B2CF1F920F920FB60F9211240BB60F92BE
:103240002F933F934F935F936F937F938F939F93AE
:10325000AF93BF93EF93FF9384EB99E00E942F020B
:10326000FF91EF91BF91AF919F918F917F916F915E
:103270005F914F913F912F910F900BBE0F900FBE1A
:103280000F901F9018951F920F920FB60F92112456
:103290000BB60F922F938F939F93EF93FF93E09131
:1032A000C409F091C5098081E091CA09F091CB0968
:1032B00082FD1DC090818091CD098F5F8F73209119
:1032C000CE09821741F0E091CD09F0E0EC54F64FC1
:1032D000958F8093CD09FF91EF919F918F912F91C1
:1032E0000F900BBE0F900FBE0F901F90189580810E
:1032F000F2CF1F920F920FB60F9211242F933F938C
:103300008F939F93AF93BF9380918F099091900972
:10331000A0919109B09192093091E80423E0230F24
:103320002D3758F50196A11DB11D2093E804809317
:103330008F0990939009A0939109B093920980917D
:10334000E9049091EA04A091EB04B091EC04019699
:10335000A11DB11D8093E9049093EA04A093EB04AE
:10336000B093EC04BF91AF919F918F913F912F91BA
:103370000F900FBE0F901F90189526E8230F02960E
:10338000A11DB11DD2CF1F920F920FB60F92112423
:103390000BB60F922F933F934F935F936F937F934F
:1033A0008F939F93AF93BF93CF93DF93EF93FF934D
:1033B00020917E0A30E0F901E05CFD4F8491F90133
:1033C000E650FE4FD491F901EC54FE4FC491CC234A
:1033D00079F081110E94EC02EC2FF0E0EE0FFF1F5C
:1033E000EA59FE4FA591B491EC91ED2381E009F4E7
:1033F00080E02091820A3091830A2F5F3F4F309303
:10340000830A2093820A9091810A953618F096E0FB
:1034100090937D0A90917D0A943009F466C0B8F4C7
:103420009230F1F0933009F444C09091800A9923CE
:1034300009F46BC081117EC080917F0A882309F452
:1034400063C080917F0A61E00E9453035EC09530A3
:1034500009F457C0963049F791E090934E0B4FC056
:103460008111E3CF2091820A3091830A24363105FD
:1034700028F41092830A1092820AD7CF10924E0B32
:103480001092810AE091810A91E09E0F9093810A47
:10349000F0E02091820A3091830AEE0FFF1FE3587B
:1034A000F54F308727831092830A1092820A93E0A7
:1034B00019C0813009F0B9CFE091810A91E09E0FE7
:1034C0009093810AF0E02091820A3091830AEE0FF6
:1034D000FF1FE358F54F308727831092830A10921D
:1034E000820A94E090937D0AA0CF882359F220911C
:1034F000820A3091830A2536310508F496CF95E08B
:10350000F1CF811192CFB5CF2F9AFF91EF91DF913B
:10351000CF91BF91AF919F918F917F916F915F916B
:103520004F913F912F910F900BBE0F900FBE0F90B8
:103530001F90189580917F0A882321F080917F0A3F
:1035400060E082CF2F98E1CF1F920F920FB60F92BB
:1035500011240BB60F922F933F934F935F936F936A
:103560007F938F939F93AF93BF93EF93FF9380913C
:10357000B900887F803609F44DC008F040C0883219
:1035800009F4A9C028F5803109F49DC0C8F4882346
:1035900009F4FBC0883009F496C0FF91EF91BF9108
:1035A000AF919F918F917F916F915F914F913F91DB
:1035B0002F910F900BBE0F900FBE0F901F9018957C
:1035C000883109F488C0803241F78093740514C0B3
:1035D000803409F49DC040F48033B9F38833E9F6B0
:1035E0008093740585ECB0C0803509F485C08835BA
:1035F00009F496C0883489F60E942A06CECF88390D
:1036000009F48CC038F5883729F050F4883611F069
:10361000803719F683E0809378091092E70457C049
:10362000883809F47BC0803919F0803809F0B5CFAB
:103630008091E704803208F071C0E091E70481E0F6
:103640008E0F8093E7048091BB00F0E0E953FB4FBD
:1036500080833DC0803B39F0E0F4803A09F479C0C2
:10366000883A09F09ACF84E0809378091092C604D2
:103670001092C504E0917409F09175091995809133
:10368000C50481110FC081E08093C5041092A50488
:1036900009C0803C09F4A6CF883C09F4A3CF883B3D
:1036A00009F07BCFE091C60481E08E0F8093C604C1
:1036B000F0E0EB55FB4F80818093BB009091C604F6
:1036C0008091C50429C0809171058093BB0085EC71
:1036D0008093BC0062CF909173058091720598171A
:1036E00058F5E091730581E08E0F80937305F0E04B
:1036F000EF5AFA4F8081E9CFE091730581E08E0F98
:10370000809373058091BB00F0E0EF5AFA4F8083FD
:1037100090917305809172059817C8F285E8D8CF0B
:10372000E091730581E08E0F809373058091BB005B
:10373000F0E0EF5AFA4F80838091770981115CCFD6
:1037400081E08093760984EA8093BC001092780926
:1037500024CF85EC8093BC00109278098091E70417
:10376000803230F4E091E704F0E0E953FB4F10823F
:103770006091E70470E0E0917209F091730987ECC1
:1037800094E019951092E70408CF1092740534CF95
:10379000E4EBF9E01382128248EE53E060E070E05F
:1037A000448355836683778388E193E091838083A4
:1037B00085EC90E09587848784EC90E097878687F6
:1037C00080EC90E0918B808B81EC90E0938B828BEE
:1037D00082EC90E0958B848B86EC90E0978B868BC7
:1037E000118E128E138E148EE1E5FAE08FEF808336
:1037F00012821182148613868FEF9FEFDC0187837C
:103800009087A187B287AAE6BAE013961C921E920F
:10381000129714964D935D936D937C9317978AE25C
:1038200093E011969C938E93EEE5FAE01382128258
:103830008CE393E09183808387E2848384E18187B2
:1038400084E082871386E6E7FAE080E48083B2832F
:10385000A183EDE7FAE082E0818313820895CF939C
:10386000DF93CDB7DEB760970FB6F894DEBF0FBE1B
:10387000CDBF789484B5826084BD84B5816084BDF9
:1038800085B5826085BD85B5816085BD80916E00FE
:10389000816080936E00109281008091810082602F
:1038A000809381008091810081608093810080916C
:1038B00080008160809380008091B100846080935B
:1038C000B1008091B00081608093B0008091910040
:1038D000826080939100809191008160809391003B
:1038E000809190008160809390008091A10082601F
:1038F0008093A1008091A10081608093A1008091BC
:10390000A00081608093A00080912101826080935B
:10391000210180912101816080932101809120010A
:1039200081608093200180917A00846080937A0086
:1039300080917A00826080937A0080917A00816021
:1039400080937A0080917A00806880937A00109248
:10395000C10061E083E00E94B00360E083E00E9468
:103960005303F89482E08093B0008093B10094E612
:103970009093B3001092B20080937000789480937B
:103980007D0A1092810A80917E0A60E00E94B00355
:1039900081E08093800A61E08DE00E94B0030E9484
:1039A00080031092630A8091680A823018F098E0D0
:1039B0009093630A8093660A62E370E080E090E08F
:1039C0000E9429056091690A8EE59AE00E94A2078B
:1039D00068EE73E080E090E00E94290560E38EE5E8
:1039E0009AE00E943D140BE416E4C8010197F1F738
:1039F00060E38EE59AE00E943D14C8010197F1F75B
:103A000060E38EE59AE00E943D1483E592E0019721
:103A1000F1F760E28EE59AE00E943D146091630A3E
:103A2000606240E08EE59AE00E94561484E0809344
:103A3000640A40E06CE08EE59AE00E94561440E093
:103A400061E08EE59AE00E9456140BE31FE1C80185
:103A50000197F1F782E08093650A40E066E08EE529
:103A60009AE00E94561440E062E08EE59AE00E94DF
:103A70005614C8010197F1F788E08093690A60E065
:103A80008EE59AE00E94A20740E061E08EE59AE0B0
:103A90000E945614C8010197F1F780E00E946B1450
:103AA00089EAE82E82E0F82E10E0D7016D917D9131
:103AB0007D018FE999E00E94A2310E94BE126FE958
:103AC00079E08EE59AE00E94BD121F5F812F0E946F
:103AD0006B14143051F7E091C409F091C50982E0EC
:103AE0008083E091C009F091C1091082E091C20980
:103AF000F091C3098FEC80831092CC09E091C80942
:103B0000F091C90986E08083E091C609F091C70968
:103B1000808180618083E091C609F091C70980812E
:103B200088608083E091C609F091C7098081806830
:103B30008083E091C609F091C70980818F7D8083E1
:103B40008091FE04811111C08DEE94E00E942B1231
:103B50001092FD041092FC0489EB92E09093EE0425
:103B60008093ED0481E08093FE044CE350E06EE925
:103B700078E08DEE94E00E947601FC018FEF868361
:103B800080EB878380EF808780911705811111C0BA
:103B900086E095E00E942B121092160510921505F2
:103BA0008BEC92E0909307058093060581E080936B
:103BB000170540E550E06EEA77E086E095E00E9468
:103BC0007601FC018FEF868380EB878380EF80870F
:103BD00080913005811111C08FE195E00E942B1278
:103BE00010922F0510922E058DED92E090932005F6
:103BF00080931F0581E0809330054DE650E067E635
:103C000076E08FE195E00E947601FC018FEF8683DC
:103C100080EB878380EF808780914905811111C0F7
:103C200088E395E00E942B121092480510924705F8
:103C30008FEE92E0909339058093380581E0809370
:103C4000490546E450E065E975E088E395E00E94A7
:103C50007601FC018FEF868380EB878380EF80877E
:103C6000809159028093510A809354020E948003EC
:103C700060E880E00E9477076AE070E080E090E012
:103C80000E9429056091790A70917A0A80917B0AD5
:103C900090917C0A0E94442E20E030E04AE75AE4EA
:103CA0000E94AB2D20E030E040E05FE30E94432D16
:103CB00020E030E040E85FE30E94422D6B017C0190
:103CC00020E030E040E450E40E94A72D87FD14C2BC
:103CD00020E030E04FE753E4C701B6010E94F62E22
:103CE00018160CF40FC2C701B6010E94182E062F39
:103CF0008091770A9091780A2091760A31E030938A
:103D00008E0920938D0910928C0910928B09DC0189
:103D1000ED91FC910190F081E02D60E0199580918A
:103D2000770A9091780A0E94DF068091760A909136
:103D300078099111FCCF91E09093780990937709DD
:103D40002FEF2093740510927305109272059093D3
:103D5000710590917105880F892B80937105809171
:103D60007609813009F0D5C11092760980917105EC
:103D70008093BB008091BC0083FDF8CF85EC8093DD
:103D8000BC00809178098130E1F38091730591E066
:103D9000811102C090917305A1E5B5E0E5E7F5E07A
:103DA00080E08913B8C110927A09809379098091D3
:103DB000770A9091780ADC01ED91FC910284F385F9
:103DC000E02D1995182F682F6F76606180E00E94B2
:103DD0007707602F8EEF0E947707612F80E00E94A7
:103DE000770765E070E080E090E00E942905612F90
:103DF000606A80E00E94770780E498E7ADE7B1E071
:103E00008093790A90937A0AA0937B0AB0937C0AF4
:103E100010E070E060E0812F0E943C071F5F1031CE
:103E2000C1F768EE73E080E090E00E94290582E926
:103E300093E00E94AC1210E000E0B0E1CB2EB3E0C2
:103E4000DB2EB80190E080E00E94442E20E030E0BC
:103E500040E450E40E945D2F21E030EE4FE75BE448
:103E60000E94AB2D20E030E048E452E40E94FA2E9C
:103E700020E030E048EC52E40E94AB2D20E030E03E
:103E800040E05FE30E94FA2E0E94182E5B01A1E041
:103E9000EA2EA3E0FA2EB501F70181917F010E947D
:103EA0003C07CE14DF04B9F762E070E080E090E0F8
:103EB0000E942905005F1F4F0115F0E11F0709F659
:103EC00081E08093590980935B0980935C0988ECB9
:103ED000809359028093510A20E045EF65EF85EF0A
:103EE0000E948C1668EE73E080E090E00E94290545
:103EF00020E040E060E085EF0E948C1664EF71E006
:103F000080E090E00E94290520E040E065EF80E03D
:103F10000E948C1664EF71E080E090E00E94290519
:103F200020E045EF60E080E00E948C1664EF71E0D5
:103F300080E090E00E94290520E04CE365EF85EFEA
:103F40000E948C1664EF71E080E090E00E942905E9
:103F50000FEF1FE0B801012E000C880B990B0E9497
:103F6000462E20E030E040E450E40E945D2F21E046
:103F700030EE4FE75BE40E94AB2D20E030E048E4F8
:103F800052E40E94FA2E20E030E048EC52E40E9415
:103F9000AB2D4B015C01F1E0CF2EF3E0DF2EF12CD5
:103FA000E12C93E0E916F10471F020E030E040E00C
:103FB0005FE3C501B4010E94FA2E0E94182ED601BB
:103FC0008C910E943C07BFEFEB1AFB0AEFEFCE1A71
:103FD000DE0AFFE0EF16F10421F762E070E080E016
:103FE00090E00E942905005111090F3F100709F0C8
:103FF000B1CF1092590910925B0910925C0920E030
:104000004CE360EF80EF0E948C16109259091092D9
:104010005B0910925C091092550910925709109291
:10402000580980EA93E00E94AC1281EB93E00E9471
:10403000AC128091800290918102A0918202B09195
:10404000830289879A87AB87BC878091840290918D
:104050008502A0918602B09187028D879E87AF87E7
:10406000B88B84E89AE090938609809385098091C3
:10407000810A90E0909388098093870980914E0B84
:1040800090E090938A098093890980917D0A853018
:1040900009F0BAC68091860A9091870A88589109DA
:1040A0008D35910508F067C08091810A8430B9F59B
:1040B0008091880A9091890A8097479780F580912E
:1040C0008A0A90918B0A0997099748F510928409FA
:1040D000109283098FEF9FEFDC0180937F0990930B
:1040E0008009A0938109B093820983E090E09093C6
:1040F0007C0980937B0957C3C12CD12C00E4E02EAE
:10410000FE2CF1CDC12CD12C1FE7E12E13E4F12EB2
:10411000EACD85EE34CE2D9121938F5F42CE8091F2
:10412000810A843440F18091880A9091890A8254EE
:1041300091098E9700F590E080E040E050E0BA01F0
:10414000FC01E657F54F2081318129503109293092
:10415000310588F4FC01E457F54F20813181275166
:1041600031092231310528F1208131812650310970
:1041700027303105B8F18091810A8A3108F466C090
:104180008091840A9091850A843F914080F5109235
:104190008409109283098FEF9FEFDC0180937F09E0
:1041A00090938009A0938109B09382098BE090E0FD
:1041B0009ECF440F551F661F771F416004968038BD
:1041C000910509F0BDCF80E290E09093840980933F
:1041D000830940937F09509380096093810970930C
:1041E000820983CF440F551F661F771FE7CF809149
:1041F000860A9091870A85974B9740F5EDE7FAE09C
:1042000082E090E040E050E0BA01DC01119620919C
:10421000810A2A171B0609F00CF4FDC0238534859A
:10422000275031092730310508F0F4C0258536853F
:10423000235131092F30310508F4DFC0258536853B
:104240002A5031092930310508F4DFC08091810AF4
:104250008A3108F443C08091840A9091850A8032A3
:10426000934008F494CF8091860A9091870AC6976C
:104270008697A0F58091880A9091890AC6978697BB
:1042800068F5ECE8FAE083E090E040E050E0BA0145
:104290008C010F5F1F4F2091810A2017110609F032
:1042A0000CF4E0C09F0122503109D9012D913C91BD
:1042B0002C5031092B30310508F0D3C020813181D9
:1042C000255231092B31310508F4BEC020813181DE
:1042D0002C5031092A30310508F4BEC08091810A82
:1042E000823258F18091860A9091870A0697079743
:1042F00020F5EAE8FAE082E090E0C12CD12C7601CA
:104300009C012F5F3F4F4091810A4217130609F02D
:104310000CF4D5C0DF0112974D915C9111974E516D
:1043200051094731510508F4B4C04D915C914C508E
:1043300051094B30510508F4BCC01E821D8281E03A
:1043400090E09A8389838091810A8D3008F4E8C0D7
:1043500049E753E0BE016B5F7F4FCE0101960E949B
:10436000BA05892B09F0DCC049E753E0BE016B5F59
:104370007F4FCE0101960E94BA05019709F0D0C087
:1043800049E753E0BE016B5F7F4FCE0101960E946B
:10439000BA058C01892B09F0C3C0812C912C5401E2
:1043A0002091810A89819A812817190609F00CF455
:1043B000A8C049E753E0BE016B5F7F4FCE01019675
:1043C0000E94BA057C0149E753E0BE016B5F7F4F55
:1043D000CE0101960E94BA05B1E0EB16F10409F096
:1043E00087C0892B09F09CC0880C991CAA1CBB1C97
:1043F000689480F80F5F1F4FD3CF440F551F661F7F
:10440000771F41600296349600CF440F551F661FF8
:10441000771FF8CFCD0101979595879590938409E3
:10442000809383090C972CF41092840910928309CD
:104430000DCF40937F095093800960938109709359
:10444000820984E090E053CE440F551F661F771F0A
:104450004160029634961CCF440F551F661F771F8C
:10446000F8CFC8010197959587959093840980931B
:1044700083090C972CF410928409109283092ECF93
:1044800040937F095093800960938109709382095A
:104490008DCECC0CDD1CEE1CFF1C6894C0F8408156
:1044A00051813496435051094530510538F40296F4
:1044B00027CFCC0CDD1CEE1CFF1CF1CFC9010197EE
:1044C00095958795909384098093830940972CF460
:1044D000109284091092830930CFC0927F09D09244
:1044E0008009E0928109F09282098CE090E0FFCD92
:1044F000EF28B1F40197A1F4880C991CAA1CBB1CED
:1045000079CF109384090093830980927F09909258
:104510008009A0928109B092820981E090E0E7CD04
:104520001E821D8281E090E09A83898380918709B1
:1045300090918809181619060CF07EC0E091850943
:10454000F091860982E090E09A8389838281938149
:1045500089974E9708F070C083E090E09A83898332
:10456000848195810B970A9708F066C04CEB51E067
:10457000BE016B5F7F4FCE0101960E94BA058C0190
:10458000892B09F059C04CEB51E0BE016B5F7F4FA6
:10459000CE0101960E94BA05019709F04DC0812C09
:1045A000912C5401209187093091880989819A8141
:1045B000821793070CF0E5C04CEB51E0BE016B5F36
:1045C0007F4FCE0101960E94BA057C010330110590
:1045D00039F14CEB51E0BE016B5F7F4FCE0101968C
:1045E0000E94BA056C010330110561F44CEB51E0F7
:1045F000BE016B5F7F4FCE0101960E94BA05C816BF
:10460000D906D1F4E114F10409F4AEC0EA94EF281C
:1046100099F4CD2889F4880C991CAA1CBB1CAEC047
:104620004CEB51E0BE016B5F7F4FCE0101960E94C3
:10463000BA05E816F90669F2E0918509F091860954
:1046400082819381C697869778F5848195814B976F
:10465000459750F5DF0116967F0106ECE00EF11C40
:1046600020E030E040E050E060E070E080E090E08A
:104670000D911C9111970950110908301105A0F4F2
:1046800012960D911C911397015111090D301105CE
:1046900008F4CFC012960D911C9113970450110984
:1046A0000530110508F4EAC08091810A893380F150
:1046B00082819381895791098335910548F58481D9
:1046C0009581CA97899720F59F012A5F3F4FC12C9A
:1046D000D12C760143E050E0D9016D917C91119786
:1046E0006A5071096930710598F412966D917C9148
:1046F0001397665171096131710508F4C3C01296B0
:104700006D917C91665071096730710508F4E9C0BC
:104710008091810A823209F0E9C0828193810A97EF
:10472000099708F0E3C0A091810AB0E0A150B04819
:10473000AA0FBB1FAE0FBF1F8D919C910A970997BF
:1047400008F0D4C010928409109283098FEF9FEF74
:10475000DC0180937F0990938009A0938109B09335
:10476000820986E090E0C3CCCA94CD2809F064CFDA
:10477000880C991CAA1CBB1C689480F80F5F1F4F03
:1047800011CF109384090093830980927F0990923E
:104790008009A0928109B0928209E2E0F0E0F093F2
:1047A0007C09E0937B094090870950908809F1E0EB
:1047B0004F1A5108A0918509B0918609AA5BBF4F95
:1047C000E3E2F0E0712CA12CB12CC12CD12CE12C16
:1047D000F12C10E0E415F5050CF038C48D919D9195
:1047E0002D913C911197E234F1050CF5821B930B4E
:1047F00097FF03C091958195910921E041970CF4B1
:1048000020E030E040E050E060E070E080E090E0E8
:104810004F0103E0801A9108082D0E943A31722A54
:10482000A32AB42AC52AD62AE72AF82A192B3196B0
:10483000D1CF01E00E943A3121601496EA16FB06BE
:1048400009F016CF20937F093093800940938109A6
:104850005093820900E20E94553120937D093093E4
:104860007E0985E090E090937C0980937B0980E34A
:1048700090E0909384098093830995CF01E00E9492
:104880003A31DBCFD701C601880F991FAA1FBB1F82
:104890006C017D016894C0F84E5F5F4F2C5F3F4F05
:1048A0004B33510509F018CF9F012A583F4FD901CA
:1048B0002D913C912A5031092930310508F028CF3B
:1048C0002CE130E03093840920938309C0927F0962
:1048D000D0928009E0928109F09282098AE090E00A
:1048E00006CCCC0CDD1CEE1CFF1CD6CF8281938144
:1048F000895791098335910560F58091810A81324C
:1049000040F184819581CA97899718F59F012A5FA4
:104910003F4FC12CD12C760143E050E0D9016D917D
:104920007C9111976A5071096930710590F4129663
:104930006D917C911397665171096131710598F100
:1049400012966D917C91665071096730710508F47B
:1049500057C0828193818C549109C59708F084C017
:104960008091810A843009F050C0848195818097BC
:10497000479708F04AC0868197810997099708F000
:1049800044C010928409109283098FEF9FEFDC01DD
:1049900080937F0990938009A0938109B093820945
:1049A00087E090E0A4CBD701C601880F991FAA1F0A
:1049B000BB1F6C017D016894C0F84E5F5F4F2C5F98
:1049C0003F4F4332510509F0A9CF9F012A5B3F4F6A
:1049D000D9012D913C912A5031092930310508F037
:1049E000B8CF20E130E03093840920938309C0924E
:1049F0007F09D0928009E0928109F0928209B1CEBC
:104A0000CC0CDD1CEE1CFF1CD8CF8091810A8434B5
:104A100058F18481958189549109C39728F59F01A4
:104A20002A5F3F4FBF016A577F4FC12CD12C7601BF
:104A3000D9014D915C911197495051094930510567
:104A400098F412964D915C9113974651510941315A
:104A5000510508F4A2C012964D915C91465051093F
:104A60004730510508F4B8C08091810A8634C0F1FE
:104A7000828193810C970B9798F584819581099792
:104A8000099770F5868197818C974F9748F58085B7
:104A9000918589974D9720F59F01265F3F4FC12C47
:104AA000D12C760145E050E0D9016D917C911197B0
:104AB0006C5071096B30710598F412966D917C9170
:104AC00013976E5171096731710508F48AC0129607
:104AD0006D917C91695071096930710508F4B0C01D
:104AE0008091810A883508F4BAC082819381855803
:104AF00091098B35910508F0B2C08481958182546B
:104B000091098E9708F0ABC08F01045C1F4F8DE1B7
:104B100090E030E020E04091810A4450550B84172A
:104B2000950714F5A80142505109DA014D915C91A5
:104B3000495051094830510508F091C0BC016F5FE0
:104B40007F4FD8014D915C911197475051094730E3
:104B5000510508F47AC04D915C9148515109423198
:104B6000510508F479C0CB010197959587959093ED
:104B70008409809383098A970CF471C0C901330FAB
:104B8000AA0BBB0B80937F0990938009A0938109A6
:104B9000B093820989E090E0AACAD701C601880FC4
:104BA000991FAA1FBB1F6C017D016894C0F82C5F80
:104BB0003F4F6217730709F03BCF20E230E030939C
:104BC000840920938309C0927F09D0928009E092E2
:104BD0008109F0928209E4CECC0CDD1CEE1CFF1C96
:104BE000E6CFD701C601880F991FAA1FBB1F6C0112
:104BF0007D016894C0F84E5F5F4F2C5F3F4F453496
:104C0000510509F051CF9F0126573F4FD9012D91F2
:104C10003C912C5031092B30310508F061CF20E256
:104C200030E03093840920938309C0927F09D092A9
:104C30008009E0928109F092820988E090E057CAE9
:104C4000CC0CDD1CEE1CFF1CD6CF220F331F2160C5
:104C500002960C5F1F4F5FCF220F331FF9CF809159
:104C6000810A803279F5828193810697069750F503
:104C7000848195810997099728F59F012A5F3F4F05
:104C8000BF01625C7F4FC12CD12C7601D9014D91BF
:104C90005C911197465051094630510598F412968F
:104CA0004D915C911397495151094331510508F4D5
:104CB00080C012964D915C9149505109493051057F
:104CC00008F498C0809187099091880998878F830C
:104CD00006970CF494C08F010E5F1F4F45ECC42E55
:104CE0004DE9D42E4CE1E42E41E8F42E53E0252E7C
:104CF000312CD80114966D917C911597AD90BC9094
:104D000090E080E0C1D72B013C01B50190E080E04C
:104D1000BBD74B015C012DEC3CEC4CE45FE30E9403
:104D2000FA2E9B01AC01C301B20111D7F0E0E0E023
:104D300087FD13C02DEC3CEC4CE45FE3C301B201F2
:104D40000E94FA2E9B01AC01C501B40100D7E2E03C
:104D5000F0E087FD02C0E1E0F0E0A701960163E921
:104D600071E080E091E00E94C2306F01FF0FEE0819
:104D7000FF08C626D726E826F926BFEF2B1A3B0ADE
:104D80000E5F1F4FEF81F885E215F30509F0B1CFF3
:104D9000C0927F09D0928009E0928109F092820945
:104DA00080E290E090938409809383098FEF9FEFD6
:104DB0009EC9D701C601880F991FAA1FBB1F6C018E
:104DC0007D016894C0F82C5F3F4F6217730709F0AC
:104DD0005DCF2EE030E03093840920938309C092A8
:104DE0007F09D0928009E0928109F09282098FE0D8
:104DF00090E07DC9CC0CDD1CEE1CFF1CE4CF82E0F2
:104E000080937D0A1092810A809071091092700936
:104E100000E0811003E010E0C80183509D4F5C0169
:104E2000D801AB5ABD4F7D01F801E959F64F6F012A
:104E30009924939433E0732E64E170E080E090E075
:104E40000E942905D5018D915D01863308F08653B6
:104E500020917B00982F9870277F922B90937B0056
:104E60008770806480937C0080917A008064809356
:104E70007A0080917A0086FDFCCF80917800609165
:104E80007900762F682F072E000C880B990BFED621
:104E900020E030EC4FE754E45ED620E030E04FE70E
:104EA00053E4A8D7C5D6023008F0D2C56530B0F0BB
:104EB000F601808190E0262F30E0AC01425051098C
:104EC0002417350724F00296821793073CF4D70184
:104ED0008C91882309F474C481508C93FFEFEF1AEE
:104EE000FF0A2FEFC21AD20A0F5F1F4F043009F0DA
:104EF000A3CF80917009882309F441C080E094E039
:104F00000E94AC126FE074E084EB99E00E94BD1245
:104F100007E619E0F12CD8016D918D0170E090E069
:104F200080E04AE00E946712B3E0FB1609F45BC41C
:104F300064E573E084EB99E00E94BD12F394E4E031
:104F4000FE12E9CF6BE174E084EB99E00E94BD12A0
:104F50000BE619E0F12CD8018D918D0190E00E94B3
:104F6000E312B3E0FB1609F443C464E573E084EB99
:104F700099E00E94BD12F394E4E0FE12ECCF809120
:104F80007009882319F081E080936F0980916E0980
:104F9000882331F080916A09873E10F010927109E0
:104FA00080917109882309F447C40DE519E0F12CBB
:104FB000D8018D918D01882349F1B2E0FB1609F4E7
:104FC00038C4E3E0FE1609F42AC4F1E0FF1215C468
:104FD00080915509809359098091560980935A0907
:104FE0008091570980935B098091580980935C09EF
:104FF00021E04091770260917602809175020E94D3
:105000008C1610927109F80131971082F39424E004
:10501000F212CECF80916F09882379F08D859E851D
:10502000AF85B88989839A83AB83BC8360E0CE0166
:1050300001960E94A11410926F0964E170E080E073
:1050400090E00E9429050E94BC020BC8272D3A2D32
:105050004B2D5C2D6D2D7E2D8F2D912F00E20E940A
:10506000553169017A0182E080937D0A1092810AAC
:1050700085EC93E00E94AC126CEC73E084EB99E059
:105080000E94BD124AE0C701B6010E9467122CECD3
:10509000C21623E0D20623E3E2062CE7F20609F467
:1050A00072C208F0E6C090EFC91690E3D9069FE0FF
:1050B000E9069FE4F90609F45CC208F065C0B0ECAB
:1050C000CB16B3E3DB06BFE3EB06BCE4FB0609F457
:1050D00042C228F5F3EFCF16F3E3DF06FCE0EF065C
:1050E000FCE4FF0609F4ACC128F48FE7809354096F
:1050F00010E0ABC120EFC21623E3D2062FE0E20698
:105100002CE4F20609F49AC183ECC81683E3D806AE
:105110008CE3E8068CE4F80641F784E11EC093E0D6
:10512000C91693E3D9069CEFE9069CE4F90609F455
:105130001EC2B0F4B3E3CB16DB06BCECEB06BCE45A
:10514000FB0609F40EC28BE0E0E3CE16E3E3DE06D5
:10515000EFECEE06ECE4FE0641F68093540974C1D0
:10516000C114F3E3DF06FFEFEF06FCE4FF0609F4EA
:10517000FCC180E203EFC01600E3D0060CE0E006BD
:105180000FE4F00651F3B1CFC11420E3D2062FEFA4
:10519000E2062FE4F20609F455C1B0F593E3C9160F
:1051A00090E3D9069CECE9069FE4F90609F4D5C121
:1051B000B0F4B3ECCB16B0E3DB06BCE3EB06BFE424
:1051C000FB0609F4D0C189E2E0ECCE16E0E3DE068E
:1051D000EFE3EE06EFE4FE0609F4BFCF86CFF0E37F
:1051E000CF16DF06FFECEF06FFE4FF0609F4B7C1B8
:1051F00081E003E0C01600E3D0060CEFE0060FE408
:10520000F00609F4AACF71CF23EFC21623E0D2062D
:105210002CE0E2062CE7F20609F4AFC1A0F49FEF00
:10522000C91693E0D906E1049CE7F90609F4A7C181
:1052300081E2ACEFCA16A3E0DA06EA06ACE7FA06AA
:1052400009F48BCF52CFB0EFCB16B3E0DB06BFE053
:10525000EB06BCE7FB0609F48EC18CE2EFECCE1640
:10526000E3E0DE06E0E3EE06ECE7FE0609F475CFC8
:105270003CCFFFEFCF16D104E104FFE7FF0609F4AE
:1052800092C108F06DC023E3C21623E0D2062CECD5
:10529000E2062CE7F20609F47AC168F590ECC9162B
:1052A00093E0D9069FE3E9069CE7F90609F469C192
:1052B00060F488E1B3ECCB16B3E0DB06BCE3EB06AD
:1052C000BCE7FB0609F449CF10CFEFE3CE16E3E0CD
:1052D000DE06E0ECEE06ECE7FE0609F45AC186E2D3
:1052E000FCE3CF16F3E0DF06F3ECEF06FCE7FF0686
:1052F00009F433CFFACE0CE0C01603E0D00603EF7A
:10530000E0060CE7F00609F448C1B0F480E3C816E3
:1053100083E0D8068FECE8068CE7F80609F435C17F
:1053200085E09FE0C91693E0D90690EFE9069CE777
:10533000F90609F412CFD9CEA3E0CA16DA06ACEF0B
:10534000EA06ACE7FA0609F426C183E1C114B3E02A
:10535000DB06BFEFEB06BCE7FB0609F4FECEC5CECD
:10536000E3ECCE16D104ECE3EE06EFE7FE0609F41B
:105370001EC190F500EFC016D1040FE0E0060FE764
:10538000F00609F40CC1A0F48CEFC816D10483E038
:10539000E8068FE7F80609F404C181E593EFC91622
:1053A000D1049CE0E9069FE7F90609F4D6CE9DCE2C
:1053B000AFECCA16D104A0E3EA06AFE7FA0609F497
:1053C000F8C085E5BCECCB16D104B3E3EB06BFE730
:1053D000FB0609F4C2CE89CEECE3CE16D104E3EC91
:1053E000EE06EFE7FE0609F4E8C0A0F400ECC016F4
:1053F000D1040FE3E0060FE7F00609F4D6C08DE50F
:105400002FE3C216D10420ECE2062FE7F20609F4DE
:10541000A4CE6BCE83E3C816D1048CECE8068FE7EC
:10542000F80609F4C8C08AE590E3C916D1049FECD8
:10543000E9069FE7F90609F490CE57CE82E08DCEBB
:1054400083E08BCE1092540911E064ED73E084EB9D
:1054500099E00E94BD126091540970E090E080E0F4
:105460004AE00E94671264E473E084EB99E00E94D2
:10547000581286EE93E00E94AC121093710911232A
:1054800009F4DDC0E0915409EE3508F064C1F0E0A4
:105490008827E35BF54D8F4FD5C6312BAB2BDF2A29
:1054A0002A2BA32BC52BD52BE92AAB2BAB2B352BCA
:1054B0004F2B662B662B7A2BAB2BAB2BAB2B882B76
:1054C000AD2B3D2B542B6B2B6B2B7E2BAB2BAB2B9C
:1054D000AB2B922BB52B432B5D2B722B722B822B7C
:1054E000AB2BAB2BAB2B9C2BBD2B492B612B612BFF
:1054F000742B742BAB2BAB2BAB2BAB2BAB2BAB2B6A
:10550000AB2BAB2BAB2BAB2BAB2BAB2BAB2BAB2BEB
:10551000AB2BAB2BAB2BAB2BAB2BAB2BAB2BAB2BDB
:10552000AB2BAB2BAB2BAB2BAB2BAB2BAB2BAB2BCB
:10553000AB2BAB2BAB2BAB2BAB2BCC2BCF2BD22B4F
:10554000DA2BDC2BDE2BAB2BAB2BAB2BAB2BE92ADB
:10555000E92AE92AE92A8AE000CE8EE1FECD88E236
:10556000FCCD85E1FACD8FE1F8CD8CE0F6CD86E17A
:10557000F4CD8AE2F2CD8DE0F0CD87E1EECD8BE285
:10558000ECCD8EE0EACD82E2E8CD82E1E6CD8CE1A1
:10559000E4CD84E0E2CD8DE1E0CD87E2DECD80E5B3
:1055A000DCCD82E5DACD86E0D8CD83E5D6CD84E5C5
:1055B000D4CD87E0D2CD8BE5D0CD8CE5CECD80911A
:1055C00059028A3F18F4865F8093590281E08093E4
:1055D0005F09F12E809154098A50883220F481E0CD
:1055E00080935E09F12E61EF73E084EB99E00E94F5
:1055F000BD120DE519E0E12CD8018D918D0190E0EF
:105600000E94E312B3E0EB1631F064E573E084EB43
:1056100099E00E94BD12E394E4E0EE12EDCF67E55D
:1056200073E084EB99E00E94BD128F2D90E00E9400
:10563000E3128AE593E00E94AC12F092710919829C
:1056400081E08A831B821C8261E0CE0101960E9468
:10565000A114DACB80915902863008F4B7CF8A5072
:10566000B3CF81E080935D09B4CF8FEF8093750253
:105670001092760210927702ACCF109275028FEFE3
:1056800080937602F7CF10927502109276028FEF18
:1056900011C08FEF80937502809376020BC08FEF5D
:1056A0008093750284E6ECCF109275028FEF8093A1
:1056B000760284E6809377028CCF84E6809375022D
:1056C000E4CF8FEF8093750280EAE6CF8FEF80936F
:1056D000750280EAD5CF109275028FEF8093760223
:1056E00080EAE8CF80EAEACF80EA8093750280936F
:1056F0007602CDCF8FEF80937502C2CF10927502E4
:105700008FEFCACF8FEF8093750210927602D2CFBF
:10571000809175028B3E20F48C5E8093750259CF88
:105720008FEFFBCF809176028B3E20F48C5E8093CE
:1057300076024FCF8FEFFBCF809177028B3E08F040
:10574000A6CF8C5EB7CF8091530991E089278093D3
:10575000530990936F09F12C3DCF809175028531EB
:1057600010F08451DACF80E0D8CF80917602853175
:1057700010F08451DCCF80E0DACF80917702853160
:1057800010F0845197CF80E095CF8091520991E03D
:10579000892780935209DDCF61E080E008C061E095
:1057A00081E005C061E082E002C061E083E00E9428
:1057B0008C130FCF60E0F1CF60E0F2CF60E0F3CF69
:1057C000F6016083F801E559F64F90827C92909241
:1057D000700984CBD6016C93F801E559F64F90829D
:1057E000F7017082F4CF89E194E00E94AC12A6CB5D
:1057F00089E194E00E94AC12BECB1092590910923C
:10580000620910925A091092630910925B09109272
:10581000640910925C09109265091092660921E0F2
:105820004091770260917602809175020E948C16F9
:10583000EACB0E946316E7CB9BE6E92E99E0F92EAE
:1058400020E1C22E23E0D22E712CD7018D917D0153
:10585000882391F110E0F60180811817B0F47110DF
:105860000AC029E632E040E0612F8DE692E00E9416
:10587000E9121F5FF0CFF1E07F12FBCF2AE532E0A3
:1058800041E0612F8FE592E0F2CF89859A85AB8563
:10589000BC8589839A83AB83BC8361E0CE0101968A
:1058A0000E94A11491E0791609F43FC0791678F0AE
:1058B000A2E07A1609F4A7C0F70131971082739419
:1058C000AFEFCA1ADA0AB4E07B12BFCFA3CB609164
:1058D000690970E090E080E0D7D120E030E040E45A
:1058E00050E4EBD228E431E448E55BE434D120E035
:1058F00030E04FE753E47ED296D16F3F71058105CA
:10590000910529F024F06FEF70E080E090E0609363
:1059100059026093510A21E040917702609176022A
:10592000809175020E948C16C7CF10E070E060E095
:10593000812F0E943C071F5F1031C1F782E6A82E1D
:1059400089E0B82E01E013E0F50181915F01480183
:10595000612C882309F44BC060ED77E0D4018D9170
:105960004D010E943C076394B3E06B12F5CF0D5FCD
:105970001F4F87E699E08A159B0531F780916809EA
:105980008C3350F510E000E0B80190E080E07CD16D
:1059900020E030E040E450E490D221E030EE4FE7E8
:1059A0005BE4D9D020E030E048E452E423D220E0A8
:1059B00030E048EC52E4CFD036D184E00E943C077E
:1059C00062E070E080E090E00E942905005F1F4FD8
:1059D000011590E11907C1F610926209109263094E
:1059E00010926409109265091092660965CF70E003
:1059F00060E0F40181914F010E943C076394F3E061
:105A00006F12F5CFB4CF6091690970E090E080E04B
:105A10003BD120E030E040E450E44FD228E431E4D0
:105A200048E55BE498D020E030E04FE753E4E2D172
:105A3000FAD06F3F71058105910529F024F06FEFD1
:105A400070E080E090E0609359020E94631634CFCA
:105A5000D6018C9190E0262F30E0AC0142505109E4
:105A6000241735072CF00296821793070CF036CADC
:105A7000F7018081882309F4ADCE8110ABCE81502F
:105A800080832CCA5058BB27AA270ED075C166D177
:105A900030F06BD120F031F49F3F11F41EF45BC164
:105AA0000EF4E095E7FB51C1E92F77D180F3BA17E7
:105AB000620773078407950718F071F49EF58FC18C
:105AC0000EF4E0950B2EBA2FA02D0B01B901900119
:105AD0000C01CA01A0011124FF27591B99F0593F5D
