:100000005BC100008AC1000088C1000086C10000F9
:1000100084C1000082C1000080C100007EC10000D8
:100020007CC100007AC1000078C1000076C10000E8
:1000300074C100000C94D51670C100006EC10000A0
:100040006CC100006AC1000068C1000066C1000008
:1000500064C1000062C1000060C100000C948B16F6
:100060005CC100000C9455160C942B1656C1000070
:1000700054C1000052C1000050C100004EC1000038
:100080004CC100004AC1000048C1000046C1000048
:1000900044C1000042C1000040C100000C94B617EA
:1000A0003CC100003AC1000038C1000036C1000068
:1000B00034C1000032C1000030C100002EC1000078
:1000C0002CC100002AC1000028C1000026C1000088
:1000D00024C1000022C1000020C100001EC1000098
:1000E0001CC1000007634236B79BD8A71A3968566F
:1000F00018AEBAAB558C1D3CB7CC5763BD6DEDFD4A
:10010000753EF6177231BF000000803F0800000006
:10011000BE922449123EABAAAA2ABECDCCCC4C3EFC
:1001200000000080BEABAAAAAA3E00000000BF00EB
:100130000000803F0000000000084178D3BB4387E7
:10014000D1133D190E3CC3BD4282AD2B3E68EC82FB
:1001500076BED98FE1A93E4C80EFFFBE01C4FF7F80
:100160003F000000000020002F00202041322F41DE
:10017000333A2000202041302F41313A20002042E4
:1001800072696768746E6573733A2000000020001E
:100190002300260029002C002F003200000100005F
:1001A00003010601090100002100240027002A00A4
:1001B0002D003000330001010000040107010A0195
:1001C00000002200250028002B002E003100340002
:1001D00002010000050108010B01050505050705E1
:1001E00008080808020202020A0A080804040404B3
:1001F00001010101010101010303030303030303DF
:10020000040707070C0C0C0C0C0C0C0C020202026D
:1002100006060606060606060B0B0B0B0B0B0B0B56
:100220000102102020080810204010204080020108
:1002300002010804020101020408102040808040ED
:1002400020100804020180040201804020100804EC
:10025000020108040201010204081020408001028A
:1002600004081020408000000A0B02090C0D0E0843
:10027000070304010000000000000000000000006F
:10028000000000000000000000000000000000006E
:10029000000012111000000000000000000000002B
:1002A0000000000000000000000000007E0174015A
:1002B0006A0168016601DA1811241FBECFEFD1E28E
:1002C000DEBFCDBF00E00CBF13E0A0E0B2E0E0E194
:1002D000FAE500E00BBF02C007900D92A838B10705
:1002E000D9F72AE0A8E8B3E001C01D92A434B20710
:1002F000E1F711E0CCE5D1E000E006C0219701096B
:10030000802FFE010E94AA2CCB35D10780E0080780
:10031000A9F70E9447190C94062D72CEEF92FF9216
:100320000F931F93CF93DF93EC017B018A01E88148
:10033000F9810480F581E02D1995FB82EA821E8700
:100340000D87E881F9810284F385E02DCE011995AE
:10035000009701F19C0150E040E060E472E48FE01E
:1003600090E00E94AB288091490990914A09A091A0
:100370004B09B0914C0982179307A407B50710F4F5
:10038000DA01C9018093490990934A09A0934B0966
:10039000B0934C09CE01DF91CF911F910F91FF9047
:1003A000EF90089508950895AF92BF92CF92DF9293
:1003B000EF92FF920F931F93CF93DF936C017B011A
:1003C0008B01040F151FEB015E01AE18BF08C017AB
:1003D000D10759F06991D601ED91FC910190F0811E
:1003E000E02DC6011995892B79F7C501DF91CF91D1
:1003F0001F910F91FF90EF90DF90CF90BF90AF9043
:100400000895FC01538D448D252F30E0842F90E01A
:10041000821B930B541710F0CF96089501970895FF
:10042000FC01918D828D981761F0A28DAE0FBF2FC8
:10043000B11D5D968C91928D9F5F9F73928F90E01E
:1004400008958FEF9FEF0895FC01918D828D98178D
:1004500031F0828DE80FF11D858D90E008958FEFCA
:100460009FEF0895FC01918D228D892F90E0805C93
:100470009F4F821B91098F739927089589EA98E00D
:10048000F1DF21E0892B09F420E0822F0895FC019F
:10049000A48DA80FB92FB11DA35ABF4F2C91848DE5
:1004A00090E001968F739927848FA689B7892C9342
:1004B000A089B1898C91837080648C93938D848D95
:1004C000981306C00288F389E02D80818F7D808398
:1004D0000895EF92FF920F931F93CF93DF93EC0158
:1004E00081E0888F9B8D8C8D98131AC0E889F989DB
:1004F000808185FF15C09FB7F894EE89FF896083DE
:10050000E889F98980818370806480839FBF81E05E
:1005100090E0DF91CF911F910F91FF90EF900895A0
:10052000F62E0B8D10E00F5F1F4F0F731127E02E7B
:100530008C8D8E110BC00FB607FCFACFE889F989B4
:10054000808185FFF5CFCE01A2DFF2CFEB8DEC0FDE
:10055000FD2FF11DE35AFF4FF0829FB7F8940B8FE8
:10056000EA89FB8980818062D0CFCF93DF93EC0151
:10057000888D8823B1F0AA89BB89E889F9898C9193
:1005800085FD03C0808186FD0CC00FB607FCF7CF48
:100590008C9185FFF2CF808185FFEDCFCE0177DF93
:1005A000EACFDF91CF91089580E090E0892B21F090
:1005B00065DF81110E94000080E090E0892B49F006
:1005C00080E090E0892B29F00E94000081110E94B8
:1005D000000080E090E0892B49F080E090E0892BDA
:1005E00029F00E94000081110E94000080E090E04C
:1005F000892B49F080E090E0892B29F00E940000CF
:1006000081110C94000008958150823108F05AC085
:10061000E82FF0E08827E05FFC4F8F4F0C94AA2C66
:1006200030033403220328032C03620337033D0302
:10063000410347034B034F035503590362035D0313
:1006400063036703809180008F7780938000089513
:10065000809180008F7DF9CF80918000877FF5CFDA
:1006600084B58F7784BD089584B58F7DFBCF80914D
:10067000B0008F778093B00008958091B0008F7D97
:10068000F9CF809190008F778093900008958091AA
:1006900090008F7DF9CF80919000877FF5CF80917A
:1006A000A0008F778093A00008958091A0008F7D97
:1006B000F9CF8091A000877FF5CF809120018F77BF
:1006C000809320010895809120018F7DF9CF809142
:1006D0002001877FF5CF1F93CF93DF93282F30E042
:1006E000F901EA59FD4F8491F901E05EFD4FD49183
:1006F000F901E652FE4FC491CC23A1F0162F8111CF
:1007000083DFEC2FF0E0EE0FFF1FE054FE4FA591CA
:10071000B4918FB7F894EC91111108C0D095DE23F5
:10072000DC938FBFDF91CF911F910895DE2BF8CF1F
:1007300010929408109293081092A6081092A5089F
:100740001092920881E0809391081092900861E0E5
:1007500084E1C1DF61E085E1BEDFE9EBF0E08081AB
:100760008E7F808380818D7F808388E48093B80032
:1007700085E48093BC0082ED91E090938F08809394
:100780008E0883ED91E090938D0880938C080895F6
:10079000CF93DF9390E0FC01E05EFD4F2491865201
:1007A0009E4FFC0184918823D1F090E0880F991F1F
:1007B000FC01EA55FE4FA591B491FC01E054FE4FB7
:1007C000C591D49161110EC09FB7F8948C91E22F1E
:1007D000E0958E238C932881E223E8839FBFDF91ED
:1007E000CF9108958FB7F894EC91E22BEC938FBFE3
:1007F000F6CF3FB7F8948091040490910504A0913E
:100800000604B091070426B5A89B05C02F3F19F038
:100810000196A11DB11D3FBFBA2FA92F982F882780
:10082000BC01CD01620F711D811D911D42E0660F5B
:10083000771F881F991F4A95D1F708958F929F922D
:10084000AF92BF92CF92DF92EF92FF924B015C0189
:10085000D0DF6B017C01CDDF6C197D098E099F090A
:10086000683E734081059105B0F321E0821A91083A
:10087000A108B10888EEC80E83E0D81EE11CF11C67
:1008800081149104A104B10431F7FF90EF90DF903F
:10089000CF90BF90AF909F908F900895CF92DF92AE
:1008A000EF92FF92CF93DF93EC01072E000C880BA1
:1008B000990B0E940C2A6B017C0120E030E040E49F
:1008C0005FE30E94C02A20E030E048E452E40E9446
:1008D00071290E94D929C617D707D4F020E030E04B
:1008E00040EA5FE3C701B6010E94C02A20E030E081
:1008F00048E452E40E94712920E030E040E85FE3E0
:100900000E9409290E94D92921E06C177D070CF467
:1009100020E0822F90E0DF91CF91FF90EF90DF9069
:10092000CF9008958F929F92AF92BF92CF92DF9215
:10093000EF92FF920F931F93CF93DF93FC012081DF
:100940003181E091A108F091A20801E010E02E179A
:100950003F070CF042C0D901AA0FBB1FE0919F08CE
:10096000F091A008EA0FFB1FA080B18089010095DB
:1009700010950170112720FD24C02CE93FEFEA01FA
:100980006B017C014901840E951EB401C50186DF0F
:1009900021E030E0892BC1F48C0E9D1EB401C5010D
:1009A0007DDF22E030E0892B79F4BE01680D791DEE
:1009B000C50174DF23E030E0892B31F40FEF1FEF26
:1009C0000CC024E630E0DBCFF601808191810196F6
:1009D0008217930784F491838083C801DF91CF91BC
:1009E0001F910F91FF90EF90DF90CF90BF90AF904D
:1009F0009F908F90089511821082F70180819181DC
:100A00000196E9CF0895DC01ED91FC910190F08110
:100A1000E02D199485ED8093BC008091BC0084FD8D
:100A2000FCCF1092920808952091DC03260F332703
:100A3000331F21323105ECF420919208FC0190E043
:100A400080E0243069F082E00895A091DC032191D8
:100A5000AC0144545C4FA40FB52FB11D2C930196EB
:100A6000861798F38091DC03680F6093DC0380E0C5
:100A7000089581E008950895E09194088091930885
:100A8000E81730F4F0E0E356FB4F808190E00895E2
:100A90008FEF9FEF089590919408809193082FEF26
:100AA0003FEF981748F4E92FF0E0E356FB4F208121
:100AB00030E09F5F90939408C90108958091930856
:100AC00090919408891B990B0895CF92DF92EF9231
:100AD000FF920F931F93CF93DF937C01CB018A0189
:100AE0002091A808222389F0EB016B01C40ED51ECA
:100AF000CC15DD0561F06991D701ED91FC91019074
:100B0000F081E02DC7011995F3CF642F8DDFC80167
:100B1000DF91CF911F910F91FF90EF90DF90CF90D9
:100B20000895CF93DF931F92CDB7DEB769832091ED
:100B3000A8082223F9F02091A508203258F021E0DE
:100B400030E0FC013383228390E080E00F90DF915E
:100B5000CF9108958091A608E82FF0E0E456FC4F6D
:100B6000998190838F5F8093A6088093A50881E088
:100B700090E0ECCF61E0CE01019656DFF8CF2091F6
:100B8000A50881E0213208F044C0809192088111CB
:100B9000FCCF8091A70892E09093920891E0909307
:100BA00091089FEF90939C0410929B0420939A04C9
:100BB000ACE9B3E0E9E7F4E090E0291331C010922A
:100BC000990490919904880F892B809399048091BE
:100BD0009008813049F51092900880919904809393
:100BE000BB008091BC0083FDF8CF85EC8093BC00F6
:100BF000809192088230E1F380919C048F3FB1F0A4
:100C000080919C048032A1F080919C04803391F00B
:100C100084E01092A6081092A5081092A8080895E2
:100C20003D9131939F5FC9CF85EEE0CF80E0F1CF5A
:100C300082E0EFCF83E0EDCF0F931F93CF93DF934D
:100C40008B01CDE3DAE0A981BA81988121E020937C
:100C5000A8089093A7081092A6081092A50894E0FF
:100C6000899FB00111246A5F7F4FED91FC9111972C
:100C70000190F081E02DCD01199570E060E089814F
:100C80009A81C1DE70E060E089819A81BCDEB801A2
:100C900089819A81B8DE612F70E089819A81B3DE03
:100CA00089819A81DF91CF911F910F9168CF1F9316
:100CB000CF93DF93162FCDE3DAE0A981BA81988133
:100CC00021E02093A8089093A7081092A6081092FC
:100CD000A508ED91FC9111970190F081E02D682F0E
:100CE000CD01199589819A81DC01ED91FC910190EA
:100CF000F081E02D612F199589819A81DF91CF9143
:100D00001F913DCFFC01248131E03093A80820934E
:100D1000A7081092A6081092A5088385682B83E582
:100D200099E0FFDE83E599E02ACF90E080E0089526
:100D3000DA01FC0190E080E08617970769F02C91BA
:100D4000208311962C911197218312962C91129742
:100D5000228301963396F0CF08950F931F93CF937C
:100D6000DF9320919B032F5F322F377030939B03CB
:100D700020FF2BC020E831FD2064347009F0206290
:100D8000205FFC01EC01239600E011E064856623FE
:100D900029F070E0C8010E94972C6F5F6187322FA5
:100DA000369F030E30E0311D1124311110C0168220
:100DB000662311F0615061873196EC17FD0731F71A
:100DC000DF91CF911F910F91089520E0D4CF315042
:100DD0003683EECFCF93DF93EC010BDD798368830D
:100DE000DF91CF910895CF93DF93EC0102DD28814D
:100DF0003981621B730B6A307105C0F3DF91CF91AB
:100E000008956F927F928F929F92AF92BF92CF92EE
:100E1000DF92EF92FF920F931F93CF93DF93EB013B
:100E20000F963C01E0DFF894E881F98150910201CE
:100E3000586040910201477F40930201EA848F810C
:100E40002E2D281B822F2F83DF84AA81BB816D85E5
:100E50007C85FE846F5F7F5FF3949E813885B984C3
:100E6000AB84118120E0C32E022F322F3181112754
:100E700088943111380F08F43FEF8195889460FD14
:100E8000130F1795889461FD130F1795889462FDD1
:100E9000130F1795889463FD130F1795889464FDBD
:100EA000130F1795889465FD130F1795889466FDA9
:100EB000130F1795889467FD130F17958894232FA8
:100EC0006111212F8E0D122F002C50930201002C46
:100ED00017FF4093020130812227889400C000C090
:100EE000409302013111390F00C050930201002CD0
:100EF00016FF4093020108F43FEF9195889400C0DB
:100F000000C04093020170FD230F00C05093020106
:100F1000002C15FF409302012795889471FD230F43
:100F200000C000C0409302012795889400C05093F0
:100F30000201002C14FF4093020172FD230F27953C
:100F4000889400C000C04093020173FD230F00C0CD
:100F500050930201002C13FF4093020127958894BF
:100F600074FD230F00C000C04093020127958894B0
:100F700000C050930201002C12FF4093020175FD46
:100F8000230F2795889400C000C04093020176FD8E
:100F9000230F00C050930201002C11FF4093020167
:100FA0002795889477FD230F00C000C0409302016D
:100FB0002795889400C050930201002C10FF4093A5
:100FC0000201132F7111122F9B0D00C000C040931E
:100FD000020100C000C050930201002C17FF409393
:100FE000020132812227889400C000C04093020190
:100FF00031113C0D00C050930201002C16FF4093AC
:10100000020108F43FEFED0DF11D00C000C0409358
:101010000201F0FC230F00C050930201002C15FFC9
:101020004093020127958894F1FC230F00C000C073
:10103000409302012795889400C050930201002C30
:1010400014FF40930201F2FC230F2795889400C0FF
:1010500000C040930201F3FC230F00C05093020133
:10106000002C13FF4093020127958894F4FC230F72
:1010700000C000C0409302012795889400C050939F
:101080000201002C12FF40930201F5FC230F27956B
:10109000889400C000C040930201F6FC230F00C0FA
:1010A00050930201002C11FF409302012795889470
:1010B000F7FC230F00C000C04093020127958894DD
:1010C00000C050930201002C10FF40930201132F27
:1010D000F110122FC19400C000C040930201CA0C4D
:1010E00000C0002C50930201002C17FF4093020116
:1010F00031812227889400C000C040930201311141
:10110000380F00C050930201002C16FF40930201DB
:1011100008F43FEF8195889400C000C0409302011D
:1011200060FD230F00C050930201002C15FF409377
:1011300002012795889461FD230F00C000C04093F1
:1011400002012795889400C050930201002C14FFDF
:101150004093020162FD230F2795889400C000C0D0
:101160004093020163FD230F00C050930201002C45
:1011700013FF409302012795889464FD230F00C05C
:1011800000C0409302012795889400C0509302014B
:10119000002C12FF4093020165FD230F27958894D0
:1011A00000C000C04093020166FD230F00C05093B1
:1011B0000201002C11FF409302012795889467FDDE
:1011C000230F00C000C0409302012795889400C0FF
:1011D00050930201002C10FF40930201132F611164
:1011E000122F8E0D00C000C040930201119709F02C
:1011F0006CCE4A815B8120EE31E0DA010E94B22C94
:10120000DC01CB0164E0B695A795979587956A9523
:10121000D1F730E020E0B901EAE94E9F040E611DEC
:101220005E9F600D711D1124650F711D860F971F44
:10123000A11DB11D893E43E09407A105B10508F445
:1012400034C0885E9340A109B10942E0B695A795E4
:10125000979587954A95D1F747E0849F080E211D01
:10126000949F200D311D1124290F311D60919A0387
:1012700070E0860F971F280F391F8091000490910E
:101280000104A0910204B0910304432F5527840F59
:10129000951FA11DB11D8093000490930104A0939C
:1012A0000204B093030420939A037894C301DF915E
:1012B000CF911F910F91FF90EF90DF90CF90BF9053
:1012C000AF909F908F907F906F9084CD80E991E058
:1012D0000895E1E0F1E080818860808308954F9275
:1012E0005F926F927F928F929F92AF92CF92DF9296
:1012F000EF92FF920F931F93CF93DF93EB010F9623
:101300002C0171DDF894E881F98105B1006115B116
:101310001F7E15B9CA848F814C2D481B842F4F83A3
:101320009F846A807B80FD84EC84DE84F394E39464
:10133000D3949E8138858984AB844181D30120E098
:10134000622F722F7181442788947111780F08F4ED
:101350007FEF81958894F0FC470F47958894F1FCC6
:10136000470F47958894F2FC470F47958894F3FC04
:10137000470F47958894F4FC470F47958894F5FCF0
:10138000470F47958894F6FC470F47958894F7FCDC
:10139000470F47958894272FF110242F8C0D422F4B
:1013A000002C05B900C047FF15B970812227889429
:1013B00000C000C0002C15B97111790F00C0002CBD
:1013C00005B900C046FF15B908F47FEF91958894E0
:1013D00000C000C0002C15B9E0FC270F00C0002C95
:1013E00005B900C045FF15B927958894E1FC270F82
:1013F00000C000C0002C15B92795889400C0002CAF
:1014000005B900C044FF15B9E2FC270F2795889461
:1014100000C000C0002C15B9E3FC270F00C0002C51
:1014200005B900C043FF15B927958894E4FC270F40
:1014300000C000C0002C15B92795889400C0002C6E
:1014400005B900C042FF15B9E5FC270F2795889420
:1014500000C000C0002C15B9E6FC270F00C0002C0E
:1014600005B900C041FF15B927958894E7FC270FFF
:1014700000C000C0002C15B92795889400C0002C2E
:1014800005B900C040FF15B9472FE110422F980D54
:1014900000C000C0002C15B900C000C0002C05B968
:1014A00000C047FF15B972812227889400C000C090
:1014B000002C15B97111730F00C0002C05B900C0C4
:1014C00046FF15B908F47FEFE90DF11D00C000C01B
:1014D000002C15B9D0FC270F00C0002C05B900C0A6
:1014E00045FF15B927958894D1FC270F00C000C08F
:1014F000002C15B92795889400C0002C05B900C0B0
:1015000044FF15B9D2FC270F2795889400C000C06E
:10151000002C15B9D3FC270F00C0002C05B900C062
:1015200043FF15B927958894D4FC270F00C000C04D
:10153000002C15B92795889400C0002C05B900C06F
:1015400042FF15B9D5FC270F2795889400C000C02D
:10155000002C15B9D6FC270F00C0002C05B900C01F
:1015600041FF15B927958894D7FC270F00C000C00C
:10157000002C15B92795889400C0002C05B900C02F
:1015800040FF15B9472FD110422F319500C000C040
:10159000002C15B93A0D00C000C005B900C047FFC6
:1015A00015B971812227889400C000C0002C15B99C
:1015B0007111780F00C0002C05B900C046FF15B9A5
:1015C00008F47FEF8195889400C000C0002C15B905
:1015D000F0FC270F00C0002C05B900C045FF15B96D
:1015E00027958894F1FC270F00C000C0002C15B986
:1015F0002795889400C0002C05B900C044FF15B998
:10160000F2FC270F2795889400C000C0002C15B964
:10161000F3FC270F00C0002C05B900C043FF15B92B
:1016200027958894F4FC270F00C000C0002C15B942
:101630002795889400C0002C05B900C042FF15B959
:10164000F5FC270F2795889400C000C0002C15B921
:10165000F6FC270F00C0002C05B900C041FF15B9EA
:1016600027958894F7FC270F00C000C0002C15B9FF
:101670002795889400C0002C05B900C040FF15B91B
:10168000472FF110422F8C0D00C000C0002C15B95F
:10169000119709F086CE20EE31E0D3010E94B22CE2
:1016A000DC01CB01F4E0B695A79597958795FA955F
:1016B000D1F730E020E0B901EAE96E9E060C611D29
:1016C0007E9E600D711D1124670D711D860F971F81
:1016D000A11DB11D893E43E09407A105B10508F4A1
:1016E00034C0885E9340A109B10942E0B695A79540
:1016F000979587954A95D1F747E0849F080E211D5D
:10170000949F200D311D1124290F311D60919A03E2
:1017100070E0860F971F820F931F40910004509135
:1017200001046091020470910304292F3327420FB2
:10173000531F611D711D4093000450930104609379
:1017400002047093030480939A037894C201DF919A
:10175000CF911F910F91FF90EF90DF90CF90AF90BE
:101760009F908F907F906F905F904F9033CB249A93
:1017700008954F925F926F927F928F929F92AF9255
:10178000CF92DF92EF92FF920F931F93CF93DF934D
:10179000EB010F962C0127DBF894E881F98105B164
:1017A000006215B11F7D15B9CA848F814C2D481B6D
:1017B000842F4F839F846A807B80FD84EC84DE8449
:1017C000F394E394D3949E8138858984AB844181DA
:1017D000D30120E0622F722F718144278894711108
:1017E000780F08F47FEF81958894F0FC470F4795B8
:1017F0008894F1FC470F47958894F2FC470F479572
:101800008894F3FC470F47958894F4FC470F47955D
:101810008894F5FC470F47958894F6FC470F479549
:101820008894F7FC470F47958894272FF110242FB1
:101830008C0D422F002C05B900C047FF15B97081EF
:101840002227889400C000C0002C15B97111790FAF
:1018500000C0002C05B900C046FF15B908F47FEFA1
:101860009195889400C000C0002C15B9E0FC270FAA
:1018700000C0002C05B900C045FF15B92795889414
:10188000E1FC270F00C000C0002C15B927958894F3
:1018900000C0002C05B900C044FF15B9E2FC270FB9
:1018A0002795889400C000C0002C15B9E3FC270FD1
:1018B00000C0002C05B900C043FF15B927958894D6
:1018C000E4FC270F00C000C0002C15B927958894B0
:1018D00000C0002C05B900C042FF15B9E5FC270F78
:1018E0002795889400C000C0002C15B9E6FC270F8E
:1018F00000C0002C05B900C041FF15B92795889498
:10190000E7FC270F00C000C0002C15B9279588946C
:1019100000C0002C05B900C040FF15B9472FE110E9
:10192000422F980D00C000C0002C15B900C000C0A7
:10193000002C05B900C047FF15B972812227889491
:1019400000C000C0002C15B97111730F00C0002C2D
:1019500005B900C046FF15B908F47FEFE90DF11D88
:1019600000C000C0002C15B9D0FC270F00C0002C0F
:1019700005B900C045FF15B927958894D1FC270FFC
:1019800000C000C0002C15B92795889400C0002C19
:1019900005B900C044FF15B9D2FC270F27958894DC
:1019A00000C000C0002C15B9D3FC270F00C0002CCC
:1019B00005B900C043FF15B927958894D4FC270FBB
:1019C00000C000C0002C15B92795889400C0002CD9
:1019D00005B900C042FF15B9D5FC270F279588949B
:1019E00000C000C0002C15B9D6FC270F00C0002C89
:1019F00005B900C041FF15B927958894D7FC270F7A
:101A000000C000C0002C15B92795889400C0002C98
:101A100005B900C040FF15B9472FD110422F3195AD
:101A200000C000C0002C15B93A0D00C000C005B9B7
:101A300000C047FF15B971812227889400C000C0FB
:101A4000002C15B97111780F00C0002C05B900C029
:101A500046FF15B908F47FEF8195889400C000C057
:101A6000002C15B9F0FC270F00C0002C05B900C0F0
:101A700045FF15B927958894F1FC270F00C000C0D9
:101A8000002C15B92795889400C0002C05B900C01A
:101A900044FF15B9F2FC270F2795889400C000C0B9
:101AA000002C15B9F3FC270F00C0002C05B900C0AD
:101AB00043FF15B927958894F4FC270F00C000C098
:101AC000002C15B92795889400C0002C05B900C0DA
:101AD00042FF15B9F5FC270F2795889400C000C078
:101AE000002C15B9F6FC270F00C0002C05B900C06A
:101AF00041FF15B927958894F7FC270F00C000C057
:101B0000002C15B92795889400C0002C05B900C099
:101B100040FF15B9472FF110422F8C0D00C000C0B7
:101B2000002C15B9119709F086CE20EE31E0D301D3
:101B30000E94B22CDC01CB01F4E0B695A7959795F5
:101B40008795FA95D1F730E020E0B901EAE96E9E79
:101B5000060C611D7E9E600D711D1124670D711DA7
:101B6000860F971FA11DB11D893E43E09407A10573
:101B7000B10508F434C0885E9340A109B10942E080
:101B8000B695A795979587954A95D1F747E0849F95
:101B9000080E211D949F200D311D1124290F311D88
:101BA00060919A0370E0860F971F820F931F4091F8
:101BB0000004509101046091020470910304292FE4
:101BC0003327420F531F611D711D40930004509332
:101BD0000104609302047093030480939A03789441
:101BE000C201DF91CF911F910F91FF90EF90DF9095
:101BF000CF90AF909F908F907F906F905F904F901D
:101C0000E9C8259A08956F927F928F929F92AF9222
:101C1000BF92CF92DF92EF92FF920F931F93CF93D9
:101C2000DF93EB010F963C01DED8F894E881F9814F
:101C3000509102015064409102014F7B4093020198
:101C4000EA848F812E2D281B822F2F83DF84AA8187
:101C5000BB816D857C85FE846F5F7F5FF3949E8181
:101C60003885B984AB84118120E0C32E022F322F36
:101C70003181112788943111380F08F43FEF819595
:101C8000889460FD130F1795889461FD130F1795C5
:101C9000889462FD130F1795889463FD130F1795B1
:101CA000889464FD130F1795889465FD130F17959D
:101CB000889466FD130F1795889467FD130F179589
:101CC0008894232F6111212F8E0D122F002C5093F9
:101CD0000201002C17FF40930201308122278894D3
:101CE00000C000C0409302013111390F00C0509371
:101CF0000201002C16FF4093020108F43FEF91957A
:101D0000889400C000C04093020170FD230F00C002
:101D100050930201002C15FF4093020127958894EF
:101D200071FD230F00C000C04093020127958894E5
:101D300000C050930201002C14FF4093020172FD79
:101D4000230F2795889400C000C04093020173FDC3
:101D5000230F00C050930201002C13FF4093020197
:101D60002795889474FD230F00C000C040930201A2
:101D70002795889400C050930201002C12FF4093D5
:101D8000020175FD230F2795889400C000C0409381
:101D9000020176FD230F00C050930201002C11FFB9
:101DA000409302012795889477FD230F00C000C05F
:101DB000409302012795889400C050930201002CA3
:101DC00010FF40930201132F7111122F9B0D00C0C1
:101DD00000C04093020100C000C050930201002CDB
:101DE00017FF4093020132812227889400C000C06F
:101DF0004093020131113C0D00C050930201002CB0
:101E000016FF4093020108F43FEFED0DF11D00C0F5
:101E100000C040930201F0FC230F00C05093020168
:101E2000002C15FF4093020127958894F1FC230FA5
:101E300000C000C0409302012795889400C05093D1
:101E40000201002C14FF40930201F2FC230F27959E
:101E5000889400C000C040930201F3FC230F00C02F
:101E600050930201002C13FF4093020127958894A0
:101E7000F4FC230F00C000C0409302012795889412
:101E800000C050930201002C12FF40930201F5FCA8
:101E9000230F2795889400C000C040930201F6FCF0
:101EA000230F00C050930201002C11FF4093020148
:101EB00027958894F7FC230F00C000C040930201CF
:101EC0002795889400C050930201002C10FF409386
:101ED0000201132FF110122FC19400C000C04093D3
:101EE0000201CA0C00C0002C50930201002C17FF05
:101EF0004093020131812227889400C000C04093A2
:101F000002013111380F00C050930201002C16FF5E
:101F10004093020108F43FEF8195889400C000C00F
:101F20004093020160FD230F00C050930201002C7A
:101F300015FF409302012795889461FD230F00C08F
:101F400000C0409302012795889400C0509302017D
:101F5000002C14FF4093020162FD230F2795889403
:101F600000C000C04093020163FD230F00C05093E6
:101F70000201002C13FF409302012795889464FD11
:101F8000230F00C000C0409302012795889400C031
:101F900050930201002C12FF4093020165FD230FB4
:101FA0002795889400C000C04093020166FD230F6E
:101FB00000C050930201002C11FF409302012795AD
:101FC000889467FD230F00C000C04093020127954D
:101FD000889400C050930201002C10FF409302012E
:101FE000132F6111122F8E0D00C000C0409302010B
:101FF000119709F06CCE4A815B8120EE31E0DA0165
:102000000E94B22CDC01CB0164E0B695A7959795B0
:1020100087956A95D1F730E020E0B901EAE94E9F53
:10202000040E611D5E9F600D711D1124650F711DF1
:10203000860F971FA11DB11D893E43E09407A1059E
:10204000B10508F434C0885E9340A109B10942E0AB
:10205000B695A795979587954A95D1F747E0849FC0
:10206000080E211D949F200D311D1124290F311DB3
:1020700060919A0370E0860F971F280F391F809197
:10208000000490910104A0910204B0910304432F35
:102090005527840F951FA11DB11D809300049093B7
:1020A0000104A0930204B093030420939A0378944C
:1020B000C301DF91CF911F910F91FF90EF90DF90BF
:1020C000CF90BF90AF909F908F907F906F900C9427
:1020D000EA06E1E0F1E080818064808308950F9357
:1020E0001F93CF93DF93CDB7DEB762970FB6F89407
:1020F000DEBF0FBECDBF8C01F901DC011C968C91B7
:102100007A8369835C834B835E834D8390819D8753
:1021100091819E8792819F878130F1F4CE01019653
:102120000E94AD0683E0888B1A8A198AD801ED9146
:10213000FC910484F585E02DBE016F5F7F4FC801DF
:10214000199562960FB6F894DEBF0FBECDBFDF9132
:10215000CF911F910F9108951C861B861A861986B0
:1021600018861F82DFCF0F931F93CF93DF93CDB7D6
:10217000DEB762970FB6F894DEBF0FBECDBF8C01FD
:10218000F901DC011C968C917A8369835C834B8313
:102190005E834D8390819D8791819E8792819F87E9
:1021A0008130E9F4CE0101960E94AD06188A1A8AA0
:1021B000198AD801ED91FC910484F585E02DBE01CA
:1021C0006F5F7F4FC801199562960FB6F894DEBF16
:1021D0000FBECDBFDF91CF911F910F9108951C8647
:1021E0001B861A86198618861F82E0CF90E080E051
:1021F0000895FC01858596850895CF93DF9300D0DF
:1022000000D0CDB7DEB7AB011C821D821E82DC017F
:10221000ED91FC910190F081E02D19821A821B82D0
:102220009E012F5F3F4FBE016C5F7F4F1995269631
:102230000FB6F894DEBF0FBECDBFDF91CF910895EA
:10224000FC0184E892E091838083138212828FEFF5
:1022500086838783808781878287838781E08487DD
:1022600016861586158214828091900390919103B1
:10227000892B21F4F0939103E0939003A0918803BC
:10228000B0918903109721F01596FC93EE93149763
:10229000F0938903E093880308950F931F93CF93DE
:1022A0008C01C62F0E9482066C2F6460C8010E94B8
:1022B00082066C2F6B7FC8010E94820683EC90E03F
:1022C0000197F1F7CF911F910F9108950F931F93ED
:1022D000CF93DF938C01D62FC42F607F642BDDDF7B
:1022E00080E1D89FB00111246C2BC801DF91CF9100
:1022F0001F910F91D2CFCF93DF9300D000D01F92C8
:102300001F92CDB7DEB798E0E8E7F2E0DE01119664
:1023100001900D929A95E1F79091390A961710F471
:102320006FEF690F262F30E0220F331F41E050E09E
:102330004C0F5D1F240F351FF9016081680F606825
:1023400040E081E39AE028960FB6F894DEBF0FBE16
:10235000CDBFDF91CF91BACF41E0B8DF81E090E00F
:1023600008952F923F924F925F926F927F928F9239
:102370009F92AF92BF92CF92DF92EF92FF920F9314
:102380001F93CF93DF93CDB7DEB7E6970FB6F894E0
:10239000DEBF0FBECDBF888B698B4A8B3091510257
:1023A0003C83209152022D83909153029E838F8310
:1023B00068875A89598781E0A889A31708F480E0C3
:1023C0008A8781E0B989B21708F480E08B8781E0C1
:1023D000EA89E91708F480E08C8718A21D8E1F8E09
:1023E0001E8E1C8E1B8E6EE1262E312C9E01235FCD
:1023F0003F4F3E872D879889892F90E0B0E0A0E07D
:102400008BA79CA7ADA7BEA73989232F30E050E04A
:1024100040E02FA738AB49AB5AAB9A89892F90E09F
:10242000B0E0A0E08BAB9CABADABBEABAA24A39459
:10243000B12C912C1A8E198E82E192E082199309A7
:102440009C0150E040E02BA33CA34DA35EA3C1013F
:10245000B0E0A0E08FA398A7A9A7BAA78501015073
:102460001109F801E658F74F8080F801EA56FC4F51
:1024700020812F87882009F4DAC1211112C1398DFA
:10248000311141C06FA178A589A59AA50E940A2A99
:102490009B01AC010E94C02A20E034E244E758E4EA
:1024A0000E9471296B017C012DEC3CEC4CE45DE356
:1024B0000E946D2987FD3FC06BA57CA58DA59EA5BB
:1024C0000E940A2AA70196010E94C02A0E94DE29C2
:1024D0006B8F6FA578A989A99AA90E940A2AA701DA
:1024E00096010E94C02A0E94DE296C8F6BA97CA9EC
:1024F0008DA99EA90E940A2AA70196010E94C02ABE
:102500000E94DE296E8F4B8D49835C8D5A838E8DA0
:102510008B83F801E856FD4F608170E0F501EE0F06
:10252000FF1FE257FD4FAE014F5F5F4F80819181EA
:102530000E949806898EFFEFAF1ABF0A25E0A21607
:10254000B10409F08BCFF090460980914909909130
:102550004A09A0914B09B0914C09892B8A2B8B2BEE
:10256000D9F00E94F90300919203109193032091F6
:10257000940330919503601B710B820B930B0091B8
:10258000490910914A0920914B0930914C09601773
:10259000710782079307C8F20E94F90360939203C0
:1025A000709393038093940390939503E091510962
:1025B000F0915209309759F040914D0950914E09D0
:1025C00060914F09709150098F2D1995F82E009147
:1025D0009003109191034F2C512C712C612C0115FB
:1025E000110509F49FC1D8011C96EC901C978091AD
:1025F0004709909148098436910510F41C961C9265
:10260000D801ED91FC918280938019821A821B82FD
:10261000FF2089F1F8013696D12CC12C219122237B
:1026200019F1B280BB2001F130E050E040E02F5FB3
:102630003F4F4F4F5F4FC301B2010E94882C9B0157
:10264000AC018B2D90E0B0E0A0E0BC01CD016F5F4C
:102650007F4F8F4F9F4F0E94882CA1E0B0E0AC0FBE
:10266000BD1FAC0DBD1D8C93BFEFCB1ADB0A23E061
:10267000C216D10499F6D8011D964D915C911E9712
:1026800012966D917C919E012F5F3F4FC801F4011E
:102690001995D8011C96EC921C9714960D911C91DB
:1026A0009ECF911073C0DE011A96BC8BAB8B6E016E
:1026B000B4E0CB0ED11CFE013796FAA3E9A331E5B5
:1026C000832E32E0932EAB89BC892D91BC8BAB8BD2
:1026D000F601808190E0A9A1BAA10D91BAA3A9A3A6
:1026E00010E0222309F46BC098012F5F3F4F281799
:1026F0003907F4F16FA178A589A59AA50E940A2A45
:102700002B013C01F401E080F12CB8016E197F0926
:10271000072E000C880B990B0E940C2A6D8B7E8B68
:102720008F8B988FA3019201C301B2010E94C02A2E
:1027300020E034E244E758E40E9471299B01AC0197
:102740006D897E898F89988D0E94C02A2B013C015A
:10275000B701FF0C880B990B0E940C2A9B01AC015E
:10276000C301B2010E9409290E94DE29D6016C939F
:10277000BFEFCB1ADB0AEFEF8E1A9E0A2B893C893A
:102780004D855E852417350709F09DCF8E819D818B
:102790002C8129839A838B83F501E956FD4F608153
:1027A00070E0F501EE0FFF1FE257FD4FAE014F5FE6
:1027B0005F4F808191810E9498069F84BCCE9801D2
:1027C00021503109821793079CF26BA17CA18DA146
:1027D0009EA10E940A2A2B013C01F401608170E055
:1027E000601B710B072E000C880B990B0E940C2AA2
:1027F0006D8B7E8B8F8B988FA3019201C301B201E9
:102800000E94C02A20E034E244E758E40E94712983
:102810009B01AC016D897E898F89988D0E94C02AA9
:102820002B013C01B801110F880B990B95CF5F85E7
:10283000552309F480CE8A8D81114FC06BA17CA1F4
:102840008DA19EA10E940A2A9B01AC010E94C02A70
:1028500020E034E244E758E40E9471296B017C01D6
:1028600020E030E040E85FE30E94BC2A18160CF438
:102870004EC02DEC3CEC4CE45DE3C701B6010E9478
:102880006D2987FD4BC06091510270E090E080E0BF
:102890000E940A2AA70196010E94C02A0E94DE29EE
:1028A0006F8F6091520270E090E080E00E940A2AEF
:1028B000A70196010E94C02A0E94DE296D8F6091B7
:1028C000530270E090E080E00E940A2AA70196017E
:1028D0000E94C02A0E94DE2968A39F8D9983AD8D36
:1028E000AA83B8A1BB83F801E856FD4F608170E070
:1028F000F501EE0FFF1FE257FD4FAE014F5F5F4F37
:10290000808191810E949806EF85EA8F14CEC12CB8
:10291000D12C90E8E92E9FE3F92EB5CFC12CD12C14
:102920007601B1CF80918E0390918F039C012F5F30
:102930003F4F30938F0320938E0349970CF447C089
:102940008FB7F894009100041091010420910204C3
:10295000309103048FBF40918E0350918F0388EE16
:1029600093E0489FB001499F700D589F700D11244E
:10297000072E000C880B990BC0908A03D0908B0314
:10298000E0908C03F0908D03A90198012C193D096A
:102990004E095F090E94D7283093480920934709C0
:1029A00010928F0310928E032FB7F8948091000439
:1029B00090910104A0910204B09103042FBF809371
:1029C0008A0390938B03A0938C03B0938D0365E0EF
:1029D00070E080E090E00E941E04B5E02B0E311CF8
:1029E000E4EF2E16E1E03E0609F020CD80917A0852
:1029F0008093960380917B088093970380917C0855
:102A00008093980380917D0880939903988990938F
:102A10005102A989A0935202BA89B0935302E69653
:102A20000FB6F894DEBF0FBECDBFDF91CF911F91DF
:102A30000F91FF90EF90DF90CF90BF90AF909F905D
:102A40008F907F906F905F904F903F902F90089560
:102A50000E94022DFB0101900020E9F73197AF01A0
:102A6000461B570BDC01ED91FC910280F381E02DB8
:102A700019948F929F92AF92BF920F931F93CF930F
:102A8000DF93CDB7DEB7A1970FB6F894DEBF0FBEC8
:102A9000CDBF19A2423008F44AE08E010F5D1F4FEE
:102AA000842E912CB12CA12CA50194010E94D72831
:102AB000E62FB901CA01EA30FCF4E05DD801EE93DB
:102AC0008D01232B242B252B79F790E080E01097A4
:102AD00021F0BD0189EA98E0BDDFA1960FB6F89418
:102AE000DEBF0FBECDBFDF91CF911F910F91BF9081
:102AF000AF909F908F900895E95CE0CFCF92DF92E6
:102B0000EF92FF92CF93DF9397FF1AC06B017C0186
:102B10006DE289EA98E00E946902EC016627772756
:102B2000CB016C197D098E099F094AE0A2DF8C0F49
:102B30009D1FDF91CF91FF90EF90DF90CF90089590
:102B40004AE0DF91CF91FF90EF90DF90CF9091CF4F
:102B5000CF93DF93BC0189EA98E07CDFEC016BE264
:102B600073E089EA98E076DF8C0F9D1FDF91CF91AB
:102B7000089570CF0F931F93CF9370E0F901E60F84
:102B8000F71FC081DB01AA0FBB1FA80FB91F5C9103
:102B9000E52F1196FC91A42FB0E0AD57B74F8E2FC3
:102BA000851B8C17A8F42C9130E0819190E08C016A
:102BB000015011092017310794F3019682179307EA
:102BC00074F3411145C06658774F81E0FB01808363
:102BD0006EE273E089EA98E0CCDF0AE718E0C0E033
:102BE000F80161918F0170E090E080E087DFC330F1
:102BF00029F069E373E089EA98E0BBDFCF5FC43076
:102C000079F78DE293E0A4DF6CE373E089EA98E062
:102C1000B0DF0EE718E0C0E0F80161918F0170E0CD
:102C200090E080E06BDFC33029F069E373E089EA6C
:102C300098E09FDFCF5FC43079F78DE293E088DFC3
:102C400086E493E085DF80E0CF911F910F91089596
:102C50006258774FBACF1F920F920FB60F9211247E
:102C60000BB60F922F933F934F935F936F937F9386
:102C70008F939F93AF93BF93EF93FF9389EA98E06D
:102C80000E944702FF91EF91BF91AF919F918F9169
:102C90007F916F915F914F913F912F910F900BBE5C
:102CA0000F900FBE0F901F9018951F920F920FB6A6
:102CB0000F9211240BB60F922F938F939F93EF9344
:102CC000FF93E091B908F091BA088081E091BF08C4
:102CD000F091C00882FD1DC090818091C2088F5F75
:102CE0008F732091C308821741F0E091C208F0E091
:102CF000E755F74F958F8093C208FF91EF919F9111
:102D00008F912F910F900BBE0F900FBE0F901F90C1
:102D100018958081F2CF1F920F920FB60F92112457
:102D20002F933F938F939F93AF93BF938091000412
:102D300090910104A0910204B09103043091FF032B
:102D400023E0230F2D3758F50196A11DB11D2093C7
:102D5000FF038093000490930104A0930204B093B6
:102D600003048091040490910504A0910604B0919D
:102D700007040196A11DB11D8093040490930504DE
:102D8000A0930604B0930704BF91AF919F918F91D8
:102D90003F912F910F900FBE0F901F90189526E82E
:102DA000230F0296A11DB11DD2CF1F920F920FB615
:102DB0000F9211240BB60F922F933F934F935F9373
:102DC0006F937F938F939F93AF93BF93CF93DF9333
:102DD000EF93FF932091600930E0F901EA59FD4F2C
:102DE0008491F901E05EFD4FD491F901E652FE4F66
:102DF000C491CC2379F081110E940403EC2FF0E000
:102E0000EE0FFF1FE457FE4FA591B491EC91ED2317
:102E100081E009F480E020916409309165092F5F19
:102E20003F4F30936509209364099091630995366B
:102E300018F096E090935F0990915F09943009F43F
:102E400066C0B8F49230F1F0933009F444C0909128
:102E50006209992309F46BC081117EC080916109D8
:102E6000882309F463C08091610961E00E946B03CB
:102E70005EC0953009F457C0963049F791E09093C1
:102E8000300A4FC08111E3CF209164093091650968
:102E90002436310528F41092650910926409D7CFC1
:102EA0001092300A10926309E091630991E09E0F3D
:102EB00090936309F0E02091640930916509EE0F69
:102EC000FF1FE15AF64F3087278310926509109251
:102ED000640993E019C0813009F0B9CFE09163092A
:102EE00091E09E0F90936309F0E020916409309186
:102EF0006509EE0FFF1FE15AF64F308727831092C6
:102F000065091092640994E090935F09A0CF88232B
:102F100059F220916409309165092536310508F48C
:102F200096CF95E0F1CF811192CFB5CF2F9AFF9137
:102F3000EF91DF91CF91BF91AF919F918F917F9151
:102F40006F915F914F913F912F910F900BBE0F901A
:102F50000FBE0F901F90189580916109882321F072
:102F60008091610960E082CF2F98E1CF1F920F928C
:102F70000FB60F9211240BB60F922F933F934F93DE
:102F80005F936F937F938F939F93AF93BF93EF93D1
:102F9000FF938091B900887F803609F44DC008F016
:102FA00040C0883209F4A9C028F5803109F49DC0D9
:102FB000C8F4882309F4FBC0883009F496C0FF9157
:102FC000EF91BF91AF919F918F917F916F915F91A1
:102FD0004F913F912F910F900BBE0F900FBE0F900E
:102FE0001F901895883109F488C0803241F780938A
:102FF0009C0414C0803409F49DC040F48033B9F3BC
:103000008833E9F680939C0485ECB0C0803509F4E0
:1030100085C0883509F496C0883489F60E940A056F
:10302000CECF883909F48CC038F5883729F050F4B0
:10303000883611F0803719F683E080939208109259
:10304000FE0357C0883809F47BC0803919F08038F6
:1030500009F0B5CF8091FE03803208F071C0E09195
:10306000FE0381E08E0F8093FE038091BB00F0E0B1
:10307000E252FC4F80833DC0803B39F0E0F4803A5F
:1030800009F479C0883A09F09ACF84E080939208D5
:103090001092DD031092DC03E0918E08F0918F080E
:1030A00019958091DC0381110FC081E08093DC03CE
:1030B0001092BC0309C0803C09F4A6CF883C09F4F7
:1030C000A3CF883B09F07BCFE091DD0381E08E0F39
:1030D0008093DD03F0E0E454FC4F80818093BB00DB
:1030E0009091DD038091DC0329C080919904809345
:1030F000BB0085EC8093BC0062CF90919B048091D3
:103100009A04981758F5E0919B0481E08E0F809304
:103110009B04F0E0E758FB4F8081E9CFE0919B04EE
:1031200081E08E0F80939B048091BB00F0E0E75814
:10313000FB4F808390919B0480919A049817C8F26A
:1031400085E8D8CFE0919B0481E08E0F80939B04AB
:103150008091BB00F0E0E758FB4F8083809191089D
:1031600081115CCF81E08093900884EA8093BC0059
:103170001092920824CF85EC8093BC0010929208A4
:103180008091FE03803230F4E091FE03F0E0E252E1
:10319000FC4F10826091FE0370E0E0918C08F0918A
:1031A0008D088EED93E019951092FE0308CF1092D2
:1031B0009C0434CFE9EAF8E01382128288EE93E0AF
:1031C000A0E0B0E084839583A683B7832FEF32E03D
:1031D0003183208325EC30E03587248724EC30E0F0
:1031E0003787268720EC30E0318B208B21EC30E0D4
:1031F000338B228B22EC30E0358B248B26EC30E0B5
:10320000378B268B118E128E138E148EE3E5F9E028
:103210001382128284839583A683B78381E193E02E
:1032200091838083A6E4B9E08FEF8C9312961C9271
:103230001E9211971C961C921E921B974FEF5FEFE8
:10324000BA0117964D935D936D937C931A97AFE5F2
:10325000B9E082E011968C93119713961C92ADE31E
:10326000BAE080E48C931296FC93EE931197E1E31D
:10327000FAE01382128283E293E09183808387E2F3
:10328000848384E1818784E0828713860895CF93C5
:10329000DF9300D000D0CDB7DEB7789484B58260DC
:1032A00084BD84B5816084BD85B5826085BD85B5EA
:1032B000816085BD80916E00816080936E00109268
:1032C00081008091810082608093810080918100E3
:1032D0008160809381008091800081608093800074
:1032E0008091B10084608093B1008091B0008160D2
:1032F0008093B000809191008260809391008091D2
:103300009100816080939100809190008160809312
:1033100090008091A10082608093A1008091A10023
:1033200081608093A1008091A00081608093A000C3
:10333000809121018260809321018091210181602F
:1033400080932101809120018160809320018091F0
:103350007A00846080937A0080917A008260809302
:103360007A0080917A00816080937A0080917A005F
:10337000806880937A001092C10061E083E00E942F
:10338000C80360E083E00E946B03F89482E08093BE
:10339000B0008093B10094E69093B3001092B20015
:1033A00080937000789480935F09109263098091F4
:1033B000600960E00E94C80381E08093620961E0D7
:1033C0008DE00E94C8030E9498031092360A8091F3
:1033D0003B0A823018F098E09093360A8093390ABD
:1033E00062E370E080E090E00E941E0460913C0A7D
:1033F00081E39AE00E94820668EE73E080E090E04C
:103400000E941E0460E381E39AE00E944D110BE4E8
:1034100016E4C8010197F1F760E381E39AE00E94A6
:103420004D11C8010197F1F760E381E39AE00E9432
:103430004D1183E592E00197F1F760E281E39AE0B4
:103440000E944D116091360A606240E081E39AE08B
:103450000E94661184E08093370A40E06CE081E3CB
:103460009AE00E94661140E061E081E39AE00E94E8
:1034700066110BE31FE1C8010197F1F782E0809329
:10348000380A40E066E081E39AE00E94661140E07D
:1034900062E081E39AE00E946611C8010197F1F7AA
:1034A00088E080933C0A60E081E39AE00E94820613
:1034B00040E061E081E39AE00E946611C801019753
:1034C000F1F760E080E00E947B118CEAE82E82E058
:1034D000F82E10E0F7016591749188E094E00E9465
:1034E000A42868E074E081E39AE043DB1F5F612F6A
:1034F00080E00E947B1102E0E00EF11C133051F7D6
:10350000E2EBF2E06591749188E094E00E94A428D7
:1035100061E08DE00E947B1168E074E081E39AE055
:1035200028DB62E08DE00E947B1168E074E081E3BB
:103530009AE01FDBE091B908F091BA0882E080833D
:10354000E091B508F091B6081082E091B708F091CB
:10355000B80880E180831092C108E091BD08F09125
:10356000BE0886E08083E091BB08F091BC088081B2
:1035700080618083E091BB08F091BC088081886005
:103580008083E091BB08F091BC08808180688083D3
:10359000E091BB08F091BC0880818F7D8083809191
:1035A0002604811111C085E194E00E94201110923F
:1035B00025041092240480EA92E0909316048093EC
:1035C000150481E0809326044CE350E066EC77E03C
:1035D00085E194E00E948E01FC018FEF868380EBF1
:1035E000878380EF808780913F04811111C08EE234
:1035F00094E00E94201110923E0410923D0482EB50
:1036000092E090932F0480932E0481E080933F04F6
:1036100040E550E066ED76E08EE294E00E948E0197
:10362000FC018FEF868380EB878380EF808780911A
:103630005804811111C087E494E00E942011109277
:1036400057041092560484EC92E0909348048093BF
:10365000470481E0809358044DE650E06FE875E040
:1036600087E494E00E948E01FC018FEF868380EB5B
:10367000878380EF808780917104811111C080E67B
:1036800094E00E9420111092700410926F0486ED55
:1036900092E0909361048093600481E080937104D0
:1036A00046E450E06DEB74E080E694E00E948E0109
:1036B000FC018FEF868380EB878380EF808780918A
:1036C0005802809346090E94980360E880E00E94B7
:1036D00057066AE070E080E090E00E941E0460916E
:1036E000400A7091410A8091420A9091430A0E94D7
:1036F0000A2A20E030E04AE75AE40E94712920E0DB
:1037000030E040E05FE30E94092920E030E040E83B
:103710005FE30E9408296B017C0120E030E040E477
:1037200050E40E946D2987FDD3C120E030E04FE7CF
:1037300053E4C701B6010E94BC2A18160CF4CEC18E
:10374000C701B6010E94DE29062F80913E0A9091A2
:103750003F0A20913D0A31E03093A8082093A70842
:103760001092A6081092A508DC01ED91FC91019041
:10377000F081E02D60E0199580913E0A90913F0A1A
:103780000E94BF0580913D0A909192089111FCCF53
:1037900091E090939208909391082FEF20939C04CE
:1037A00010929B0410929A0490939904909199041A
:1037B000880F892B8093990480919008813009F0BB
:1037C00094C110929008809199048093BB008091DD
:1037D000BC0083FDF8CF85EC8093BC0080919208FB
:1037E0008130E1F380919B0491E0811102C09091BE
:1037F0009B04A9E7B4E0EDE9F4E080E0891377C128
:10380000109294088093930880913E0A90913F0A09
:10381000DC01ED91FC910284F385E02D1995182FC0
:10382000682F6F76606180E00E945706602F8EEFF0
:103830000E945706612F80E00E94570665E070E005
:1038400080E090E00E941E04612F606A80E00E9488
:10385000570680E498E7ADE7B1E08093400A909383
:10386000410AA093420AB093430A10E070E060E07E
:10387000812F0E941C061F5F1031C1F768EE73E0B4
:1038800080E090E00E941E0410E000E0B7EFCB2E35
:10389000B2E0DB2EB80190E080E00E940A2A20E02E
:1038A00030E040E450E40E94232B21E030EE4FE76B
:1038B0005BE40E94712920E030E048E452E40E9479
:1038C000C02A20E030E048EC52E40E94712920E058
:1038D00030E040E05FE30E94C02A0E94DE295B01E5
:1038E000A8EEEA2EA2E0FA2EB501F70181917F0140
:1038F0000E941C06CE14DF04B9F762E070E080E09D
:1039000090E00E941E04005F1F4F0115F0E11F07A9
:1039100009F681E080937A0880937C0880937D0883
:103920004CE365EF85EF0E94B11168EE73E080E033
:1039300090E00E941E0440E568E780E00E94B1111B
:1039400064EF71E080E090E00E941E0440E06AE0D5
:1039500088EC0E94B11164EF71E080E090E00E9479
:103960001E0440E06AE088EC0E94B11164EF71E04F
:1039700080E090E00E941E0448EC6AE088EC0E941F
:10398000B11164EF71E080E090E00E941E044CE30E
:1039900065EF85EF0E94B1110FEF1FE0B801012E16
:1039A000000C880B990B0E940C2A20E030E040E4C8
:1039B00050E40E94232B21E030EE4FE75BE40E94AD
:1039C000712920E030E048E452E40E94C02A20E05F
:1039D00030E048EC52E40E9471294B015C01F8EEA2
:1039E000CF2EF2E0DF2EF12CE12C23E0E216F104E1
:1039F00071F020E030E040E05FE3C501B4010E94D7
:103A0000C02A0E94DE29D6018C910E941C06BFEFBD
:103A1000EB1AFB0AEFEFCE1ADE0AFFE0EF16F10415
:103A200021F762E070E080E090E00E941E04005107
:103A300011090F3F100709F0B1CF86E699E0909386
:103A4000A00880939F088091630990E09093A2085A
:103A50008093A1088091300A90E09093A40880930D
:103A6000A30880915F09853009F0B8C68091680984
:103A700090916909885891098D35910508F067C0C2
:103A8000809163098430B9F580916A0990916B093E
:103A90008097479780F580916C0990916D090997FF
:103AA000099748F510929E0810929D088FEF9FEF9E
:103AB000DC018093990890939A08A0939B08B09397
:103AC0009C0883E090E0909396088093950857C3F4
:103AD000C12CD12C00E4E02EFE2C32CEC12CD12CF6
:103AE0001FE7E12E13E4F12E2BCE85EE75CE2D913E
:103AF00021938F5F83CE80916309843440F180915C
:103B00006A0990916B09825491098E9700F590E0B3
:103B100080E040E050E0BA01FC01E459F64F20811A
:103B20003181295031092930310588F4FC01E259ED
:103B3000F64F20813181275131092231310528F199
:103B4000208131812650310927303105B8F180912B
:103B500063098A3108F466C080916609909167090B
:103B6000843F914080F510929E0810929D088FEF3F
:103B70009FEFDC018093990890939A08A0939B088B
:103B8000B0939C088BE090E09ECF440F551F661FBA
:103B9000771F416004968038910509F0BDCF80E21F
:103BA00090E090939E0880939D08409399085093CD
:103BB0009A0860939B0870939C0883CF440F551F0D
:103BC000661F771FE7CF80916809909169098597F3
:103BD0004B9740F5EFE5F9E082E090E040E050E0FF
:103BE000BA01DC011196209163092A171B0609F01E
:103BF0000CF4FDC023853485275031092730310569
:103C000008F0F4C025853685235131092F30310560
:103C100008F4DFC0258536852A5031092930310561
:103C200008F4DFC0809163098A3108F443C08091B1
:103C30006609909167098032934008F494CF80918F
:103C4000680990916909C6978697A0F580916A09DD
:103C500090916B09C697869768F5EEE6F9E083E0E8
:103C600090E040E050E0BA018C010F5F1F4F2091BF
:103C700063092017110609F00CF4E0C09F012250DF
:103C80003109D9012D913C912C5031092B3031054E
:103C900008F0D3C020813181255231092B31310503
:103CA00008F4BEC0208131812C5031092A30310501
:103CB00008F4BEC080916309823258F1809168098E
:103CC000909169090697079720F5ECE6F9E082E004
:103CD00090E0C12CD12C76019C012F5F3F4F409189
:103CE00063094217130609F00CF4D5C0DF011297DF
:103CF0004D915C9111974E5151094731510508F48E
:103D0000B4C04D915C914C5051094B30510508F4B1
:103D1000BCC01C821B8281E090E09A8389838091E1
:103D200063098D3008F4E8C049E753E0BE016D5FD8
:103D30007F4FCE0101960E949204892B09F0DCC0CE
:103D400049E753E0BE016D5F7F4FCE0101960E94AF
:103D50009204019709F0D0C049E753E0BE016D5FBE
:103D60007F4FCE0101960E9492048C01892B09F0AD
:103D7000C3C0812C912C54012091630989819A81BF
:103D80002817190609F00CF4A8C049E753E0BE0152
:103D90006D5F7F4FCE0101960E9492047C0149E73E
:103DA00053E0BE016D5F7F4FCE0101960E949204E9
:103DB000B1E0EB16F10409F087C0892B09F09CC033
:103DC000880C991CAA1CBB1C689480F80F5F1F4FBD
:103DD000D3CF440F551F661F771F4160029634965C
:103DE00000CF440F551F661F771FF8CFCD010197F5
:103DF0009595879590939E0880939D080C972CF439
:103E000010929E0810929D080DCF409399085093F0
:103E10009A0860939B0870939C0884E090E053CECE
:103E2000440F551F661F771F4160029634961CCFC2
:103E3000440F551F661F771FF8CFC801019795954E
:103E4000879590939E0880939D080C972CF4109270
:103E50009E0810929D082ECF4093990850939A087F
:103E600060939B0870939C088DCECC0CDD1CEE1CDF
:103E7000FF1C6894C0F84081518134964350510929
:103E80004530510538F4029627CFCC0CDD1CEE1CD2
:103E9000FF1CF1CFC90101979595879590939E08D6
:103EA00080939D0840972CF410929E0810929D08D4
:103EB00030CFC0929908D0929A08E0929B08F09275
:103EC0009C088CE090E0FFCDEF28B1F40197A1F4BD
:103ED000880C991CAA1CBB1C79CF10939E080093D8
:103EE0009D088092990890929A08A0929B08B0929F
:103EF0009C0881E090E0E7CD1C821B8281E090E08D
:103F00009A8389838091A1089091A20818161906B6
:103F10000CF07EC0E0919F08F091A00882E090E054
:103F20009A8389838281938189974E9708F070C024
:103F300083E090E09A838983848195810B970A9727
:103F400008F066C04CEB51E0BE016D5F7F4FCE01C3
:103F500001960E9492048C01892B09F059C04CEB08
:103F600051E0BE016D5F7F4FCE0101960E94920429
:103F7000019709F04DC0812C912C54012091A1088A
:103F80003091A20889819A81821793070CF0E5C0CD
:103F90004CEB51E0BE016D5F7F4FCE0101960E9458
:103FA00092047C010330110539F14CEB51E0BE0164
:103FB0006D5F7F4FCE0101960E9492046C01033029
:103FC000110561F44CEB51E0BE016D5F7F4FCE01F6
:103FD00001960E949204C816D906D1F4E114F104A6
:103FE00009F4AEC0EA94EF2899F4CD2889F4880C3E
:103FF000991CAA1CBB1CAEC04CEB51E0BE016D5F0E
:104000007F4FCE0101960E949204E816F90669F2EC
:10401000E0919F08F091A00882819381C6978697CE
:1040200078F5848195814B97459750F5DF01169679
:104030007F0106ECE00EF11C20E030E040E050E0B3
:1040400060E070E080E090E00D911C9111970950C4
:10405000110908301105A0F412960D911C911397C7
:10406000015111090D30110508F4CFC012960D91C0
:104070001C911397045011090530110508F4EAC08A
:1040800080916309893380F18281938189579109F5
:104090008335910548F584819581CA97899720F5E4
:1040A0009F012A5F3F4FC12CD12C760143E050E0A5
:1040B000D9016D917C9111976A5071096930710530
:1040C00098F412966D917C91139766517109613144
:1040D000710508F4C3C012966D917C916650710908
:1040E0006730710508F4E9C080916309823209F0F4
:1040F000E9C0828193810A97099708F0E3C0A091F3
:104100006309B0E0A150B048AA0FBB1FAE0FBF1F9C
:104110008D919C910A97099708F0D4C010929E083F
:1041200010929D088FEF9FEFDC0180939908909388
:104130009A08A0939B08B0939C0886E090E0C3CCBB
:10414000CA94CD2809F064CF880C991CAA1CBB1C0A
:10415000689480F80F5F1F4F11CF10939E08009353
:104160009D088092990890929A08A0929B08B0921C
:104170009C08E2E0F0E0F0939608E0939508409008
:10418000A1085090A208F1E04F1A5108A0919F0891
:10419000B091A008AA5BBF4FE3E2F0E0712CA12C24
:1041A000B12CC12CD12CE12CF12C10E0E415F5053B
:1041B0000CF0F0C38D919D912D913C911197E234BB
:1041C000F1050CF5821B930B97FF03C09195819528
:1041D000910921E041970CF420E030E040E050E00C
:1041E00060E070E080E090E04F0103E0801A910809
:1041F000082D0E94B82C722AA32AB42AC52AD62ACE
:10420000E72AF82A192B3196D1CF01E00E94B82C69
:1042100021601496AE15BF0509F016CF20939908BA
:1042200030939A0840939B0850939C0800E20E94A8
:10423000D32C209397083093980885E090E09093D2
:1042400096088093950880E390E090939E08809371
:104250009D0895CF01E00E94B82CDBCFD701C601A5
:10426000880F991FAA1FBB1F6C017D016894C0F8BD
:104270004E5F5F4F2C5F3F4F4B33510509F018CF16
:104280009F012A583F4FD9012D913C912A50310965
:104290002930310508F028CF2CE130E030939E081A
:1042A00020939D08C0929908D0929A08E0929B08AA
:1042B000F0929C088AE090E006CCCC0CDD1CEE1C51
:1042C000FF1CD6CF8281938189579109833591054F
:1042D00060F580916309813240F184819581CA97AC
:1042E000899718F59F012A5F3F4FC12CD12C760189
:1042F00043E050E0D9016D917C9111976A507109AA
:104300006930710590F412966D917C911397665106
:1043100071096131710598F112966D917C91665029
:1043200071096730710508F457C0828193818C54FC
:104330009109C59708F084C080916309843009F021
:1043400050C0848195818097479708F04AC0868144
:1043500097810997099708F044C010929E0810921F
:104360009D088FEF9FEFDC018093990890939A0846
:10437000A0939B08B0939C0887E090E0A4CBD70162
:10438000C601880F991FAA1FBB1F6C017D0168948D
:10439000C0F84E5F5F4F2C5F3F4F4332510509F02D
:1043A000A9CF9F012A5B3F4FD9012D913C912A5003
:1043B00031092930310508F0B8CF20E130E03093E1
:1043C0009E0820939D08C0929908D0929A08E09286
:1043D0009B08F0929C08B1CECC0CDD1CEE1CFF1C9F
:1043E000D8CF80916309843458F1848195818954B0
:1043F0009109C39728F59F012A5F3F4FBF016A5774
:104400007F4FC12CD12C7601D9014D915C91119730
:10441000495051094930510598F412964D915C91DB
:104420001397465151094131510508F4A2C0129623
:104430004D915C91465051094730510508F4B8C080
:10444000809163098634C0F1828193810C970B9728
:1044500098F5848195810997099770F586819781F0
:104460008C974F9748F58085918589974D9720F5D2
:104470009F01265F3F4FC12CD12C760145E050E0D3
:10448000D9016D917C9111976C5071096B30710558
:1044900098F412966D917C9113976E517109673162
:1044A000710508F48AC012966D917C91695071096A
:1044B0006930710508F4B0C080916309883508F44B
:1044C000BAC082819381855891098B35910508F096
:1044D000B2C084819581825491098E9708F0ABC057
:1044E0008F01045C1F4F8DE190E030E020E04091AF
:1044F00063094450550B8417950714F5A8014250E1
:104500005109DA014D915C914950510948305105EA
:1045100008F091C0BC016F5F7F4FD8014D915C9155
:104520001197475051094730510508F47AC04D9111
:104530005C91485151094231510508F479C0CB01D1
:1045400001979595879590939E0880939D088A97EB
:104550000CF471C0C901330FAA0BBB0B80939908EF
:1045600090939A08A0939B08B0939C0889E090E0F0
:10457000AACAD701C601880F991FAA1FBB1F6C01C9
:104580007D016894C0F82C5F3F4F6217730709F0F4
:104590003BCF20E230E030939E0820939D08C092EC
:1045A0009908D0929A08E0929B08F0929C08E4CE79
:1045B000CC0CDD1CEE1CFF1CE6CFD701C601880F1A
:1045C000991FAA1FBB1F6C017D016894C0F84E5F44
:1045D0005F4F2C5F3F4F4534510509F051CF9F018C
:1045E00026573F4FD9012D913C912C5031092B304A
:1045F000310508F061CF20E230E030939E0820932F
:104600009D08C0929908D0929A08E0929B08F09277
:104610009C0888E090E057CACC0CDD1CEE1CFF1C07
:10462000D6CF220F331F216002960C5F1F4F5FCF42
:10463000220F331FF9CF80916309803279F582818F
:1046400093810697069750F584819581099709977C
:1046500028F59F012A5F3F4FBF01625C7F4FC12C4D
:10466000D12C7601D9014D915C9111974650510999
:104670004630510598F412964D915C91139749512B
:1046800051094331510508F47EC012964D915C9159
:10469000495051094930510508F496C08091A1084C
:1046A0009091A2089E838D8306970CF492C08F018F
:1046B0000E5F1F4F65ECC62E6DE9D62E6CE1E62E1F
:1046C00061E8F62E73E0272E312CD80114966D91F7
:1046D0007C911597AD90BC9090E080E09BD62B012B
:1046E0003C01B50190E080E095D64B015C012DECDA
:1046F0003CEC4CE45FE344D79B01AC01C301B20145
:10470000ECD5F0E0E0E087FD12C02DEC3CEC4CE491
:104710005FE3C301B20134D79B01AC01C501B40111
:10472000DCD5E2E0F0E087FD02C0E1E0F0E0A701C7
:10473000960163E971E080E091E00E94882C6F01AE
:10474000FF0FEE08FF08C626D726E826F926BFEF9A
:104750002B1A3B0A0E5F1F4FED81FE812E163F067E
:1047600009F0B3CFC0929908D0929A08E0929B08C2
:10477000F0929C0880E290E090939E0880939D08C0
:104780008FEF9FEFA0C9D701C601880F991FAA1FFD
:10479000BB1F6C017D016894C0F82C5F3F4F62170E
:1047A000730709F05FCF2EE030E030939E0820932E
:1047B0009D08C0929908D0929A08E0929B08F092C6
:1047C0009C088FE090E07FC9CC0CDD1CEE1CFF1C28
:1047D000E4CF82E080935F091092630980918B0897
:1047E00000E0811103E010E0D801AC51BD4F7D0124
:1047F000D12C53E0C52E64E170E080E090E00E948F
:104800001E04F70181917F01863308F086532091C1
:104810007B00982F9870277F922B90937B00877056
:10482000806480937C0080917A00806480937A0019
:1048300080917A0086FDFCCF8091780060917900AC
:10484000762F682F072E000C880B990BE5D520E0FA
:1048500030EC4FE754E445D520E030E04FE753E437
:104860008FD6ACD5023008F0AEC36233D0F0F80179
:10487000ED57F74F808190E0262F30E0AC01425099
:1048800051092417350724F00296821793074CF438
:10489000D801AC5ABD4F8C91882309F449C281508C
:1048A0008C930F5F1F4F043009F0A5CFDD2009F472
:1048B00043C086E493E00E94A81565E573E089EAA9
:1048C00098E00E94B91503E818E0F12CD8016D9129
:1048D0008D0170E090E080E04AE00E943915B3E07D
:1048E000FB1609F42EC269E373E089EA98E00E949E
:1048F000B915F394E4E0FE12E9CF61E673E089EACA
:1049000098E00E94B91507E818E0F12CD8016D91E4
:104910008D0170E090E080E00E947E15B3E0FB1610
:1049200009F414C269E373E089EA98E00E94B915BA
:10493000F394E4E0FE12EACF80918A08882331F0F4
:10494000809186088B3F10F010928B0887E898E0E2
:104950009E838D8347EF242E42E0342E10E004E640
:10496000AD81BE818D91BE83AD83882309F408C2D9
:10497000F12CF1018081F81608F0F7C11111EBC19B
:1049800028E632E040E06F2D8CE692E00E94BA15F6
:10499000F394EFCF82E080935F0910926309272D93
:1049A0003A2D4B2D5C2D6D2D7E2D8F2D912F00E2FC
:1049B000FAD749015A012CEC821623E0920623E330
:1049C000A2062CE7B20649F108F0D5C093EC89168F
:1049D00090E399069CE3A9069FE4B906F1F008F07C
:1049E00063C0B3E38B169B06BCECAB06BCE4BB0612
:1049F000A1F058F5F0EF8F16F3E39F06FFE0AF0646
:104A0000FCE4BF0651F058F423EF821623E392062C
:104A10002CE0A2062CE4B206A1F481E013C083ECE2
:104A2000881683E398068CE3A8068CE4B806A9F3FD
:104A300090EC891693E399069FE3A9069CE4B906D6
:104A400061F380E080938B08C9CE8114A3E39A06BA
:104A5000AFEFAA06ACE4BA0601F398F4E0E38E16D1
:104A6000E3E39E06EFECAE06ECE4BE06B1F2F3E043
:104A70008F16F3E39F06FCEFAF06FCE4BF0609F7D1
:104A8000CCCF03EF801600E390060CE0A0060FE405
:104A9000B00619F220EF821620E392062FE0A2065C
:104AA0002FE4B20671F6B9CF811480E398068FEF38
:104AB000A8068FE4B80609F4B0CF50F5A3E38A1630
:104AC000A0E39A06ACECAA06AFE4BA0609F4A5CFB7
:104AD00058F4E0EC8E16E0E39E06EFE3AE06EFE45A
:104AE000BE0609F0AECF99CFF0E38F169F06FFEC1C
:104AF000AF06FFE4BF0609F490CF03E0801600E3A1
:104B000090060CEFA0060FE4B00609F09ACF85CF0F
:104B100023EF821623E092062CE0A2062CE7B206D1
:104B200009F47BCF98F49FEF891693E09906A104CE
:104B30009CE7B90609F471CFACEF8A16A3E09A0698
:104B4000AA06ACE7BA0609F07CCF67CFB0EF8B16A8
:104B5000B3E09B06BFE0AB06BCE7BB0609F45DCF44
:104B6000EFEC8E16E3E09E06E0E3AE06ECE7BE0651
:104B700009F067CF52CFFFEF8F169104A104FFE732
:104B8000BF0609F44ACF08F069C023E3821623E088
:104B900092062CECA2062CE7B20609F43ECF58F59B
:104BA00090EC891693E099069FE3A9069CE7B90665
:104BB00009F433CF58F4B3EC8B16B3E09B06BCE397
:104BC000AB06BCE7BB0609F03CCF27CFEFE38E1660
:104BD000E3E09E06E0ECAE06ECE7BE0609F41DCF6E
:104BE000FCE38F16F3E09F06F3ECAF06FCE7BF068D
:104BF00009F027CF12CF0CE0801603E0900603EFF8
:104C0000A0060CE7B00609F408CFA8F480E38816E4
:104C100083E098068FECA8068CE7B80609F4FDCE71
:104C20009FE0891693E0990690EFA9069CE7B906E4
:104C300009F007CFF2CEA3E08A169A06ACEFAA06D7
:104C4000ACE7BA0609F4E9CE8114B3E09B06BFEFE6
:104C5000AB06BCE7BB0609F0F4CEDFCEE3EC8E1664
:104C60009104ECE3AE06EFE7BE0609F4D6CE80F57C
:104C700000EF801691040FE0A0060FE7B00609F4DC
:104C8000CCCE98F48CEF8816910483E0A8068FE7C9
:104C9000B80609F4C2CE93EF891691049CE0A906E8
:104CA0009FE7B90609F0CDCEB8CEAFEC8A169104D5
:104CB000A0E3AA06AFE7BA0609F4AFCEBCEC8B16A8
:104CC0009104B3E3AB06BFE7BB0609F0BACEA5CEAD
:104CD000ECE38E169104E3ECAE06EFE7BE0609F4B2
:104CE0009CCE98F400EC801691040FE3A0060FE729
:104CF000B00609F492CE2FE38216910420ECA206AE
:104D00002FE7B20609F09DCE88CE83E38816910482
:104D10008CECA8068FE7B80609F47FCE90E38916DD
:104D200091049FECA9069FE7B90609F08ACE75CEDB
:104D30006083F801E957F74F21E02083DD24D39405
:104D4000B0CD8FE593E00E94A815D3CD8FE593E019
:104D50000E94A815EDCD113009F01ACE29E532E0F8
:104D600041E06F2D8EE592E011CE113009F497C02D
:104D7000C0F0123009F405C1ED81FE813197108237
:104D80001F5F8FEF281A380A143009F0E9CD64E16B
:104D900070E080E090E00E941E040E94D4020C9417
:104DA0001D1D6091850870E090E080E033D320E025
:104DB00030E040E450E447D428E431E448E55BE4E3
:104DC00090D220E030E04FE753E4DAD3F7D260939B
:104DD00058026093460963D12FEF30E040E050E085
:104DE000BAD16B017C015BD12FEF30E040E050E0A5
:104DF000B2D14B015C0153D12FEF30E040E050E0E5
:104E0000AAD12B013C0161E773E089EA98E00E9496
:104E1000B9156091580270E090E080E04AE00E948D
:104E200039156BE273E089EA98E00E942A156EE773
:104E300073E089EA98E00E94B915C701B6017727A7
:104E4000882799274AE00E94391569E373E089EAC7
:104E500098E00E94B915C501B401772788279927E2
:104E60004AE00E94391569E373E089EA98E00E94FC
:104E7000B915C301B2017727882799274AE00E9414
:104E80003915442D682D8C2D0E94B11110927A088D
:104E900010927B0810927C0810927D086DCFF12C47
:104EA00070E060E08F2D0E941C06F394F0E1FF1289
:104EB000F7CF2EE7C22E28E0D22E38EEE32E32E0D6
:104EC000F32ED6018D916D01570193E0992E882321
:104ED00009F44CC060ED77E0F50181915F010E941B
:104EE0001C069A949110F6CFB3E0EB0EF11CE3E8A8
:104EF000F8E0EC15FD0529F7809184088C3358F50E
:104F0000F12CE12CB70190E080E084D220E030E089
:104F100040E450E498D321E030EE4FE75BE4E1D188
:104F200020E030E048E452E42BD320E030E048ECCD
:104F300052E4D7D13ED284E00E941C0662E070E0C9
:104F400080E090E00E941E04F0E1EF0EF11CE114FD
:104F500020E1F206B9F610927E0810927F081092B6
:104F60008008109281081092820806CF70E060E0FD
:104F7000D5018D915D010E941C069A949110F6CF87
:104F8000B3CF6091850870E090E080E043D220E0EC
:104F900030E040E450E457D320E034EC44E657E4FA
:104FA000A0D120E030E048EC52E4EAD207D26536E6
:104FB00038F4609358028091580280934609DCCE01
:104FC00000935802F8CF623308F46BCCF801ED5728
:104FD000F74F808190E0262F30E0AC014D51510910
:104FE000241735072CF04D96821793070CF059CCF7
:104FF000D801AC5ABD4F8C91811151CC6083F8011E
:10500000E957F74F81E08083CC9298CE8F929F92A0
:10501000AF92BF92CF92DF92EF92FF92CF93DF9346
:10502000EC01688179818A819B8161157105810517
:10503000910521F464E279ED8BE597E02DE133EF02
:1050400041E050E088D049015A019B01AC01A7EA38
:10505000B1E49DD06B017C01ACEEB4EFA5019401ED
:10506000A2D0C60ED71EE81EF91EF7FE06C081E0CC
:10507000C81AD108E10880E8F80AC882D982EA8211
:10508000FB82C701B6019F77DF91CF91FF90EF9030
:10509000DF90CF90BF90AF909F908F9008958F92A8
:1050A0009F92AF92BF92CF92DF92EF92FF92609168
:1050B0007402709175028091760290917702611569
:1050C00071058105910521F464E279ED8BE597E0A6
:1050D0002DE133EF41E050E03ED049015A019B0100
:1050E000AC01A7EAB1E453D06B017C01ACEEB4EFA4
:1050F000A501940158D0C60ED71EE81EF91EF7FE72
:1051000006C081E0C81AD108E10880E8F80AC09218
:105110007402D0927502E0927602F0927702C70193
:10512000B6019F77FF90EF90DF90CF90BF90AF9048
:105130009F908F900895609374027093750280938E
:105140007602909377020895FB01DC0105900D92A1
:105150000020E1F70895052E97FB16F400940FD078
:1051600057FD05D024D007FC02D046F408C0509566
:105170004095309521953F4F4F4F5F4F0895909543
:105180008095709561957F4F8F4F9F4F089531D0D7
:10519000A59F900DB49F900DA49F800D911D11248B
:1051A0000895B7FFF4CFF3DF821B930B0895A1E2BC
:1051B0001A2EAA1BBB1BFD010DC0AA1FBB1FEE1F91
:1051C000FF1FA217B307E407F50720F0A21BB30BDC
:1051D000E40BF50B661F771F881F991F1A9469F758
:1051E00060957095809590959B01AC01BD01CF01B4
:1051F0000895A29FB001B39FC001A39F700D811DB0
:105200001124911DB29F700D811D1124911D0895CF
:105210005058BB27AA270ED075C166D130F06BD18C
:1052200020F031F49F3F11F41EF45BC10EF4E095C1
:10523000E7FB51C1E92F77D180F3BA1762077307F3
:105240008407950718F071F49EF58FC10EF4E09570
:105250000B2EBA2FA02D0B01B90190010C01CA0130
:10526000A0011124FF27591B99F0593F50F4503EDB
:1052700068F11A16F040A22F232F342F4427585FCD
:10528000F3CF469537952795A795F0405395C9F7E5
:105290007EF41F16BA0B620B730B840BBAF091509D
:1052A000A1F0FF0FBB1F661F771F881FC2F70EC03C
:1052B000BA0F621F731F841F48F48795779567950F
:1052C000B795F7959E3F08F0B3CF9395880F08F0F8
:1052D0009927EE0F979587950895D9D008F481E026
:1052E00008950CD00FC107D140F0FED030F021F46A
:1052F0005F3F19F0F0C0511139C1F3C014D198F3D8
:105300009923C9F35523B1F3951B550BBB27AA2746
:1053100062177307840738F09F5F5F4F220F331FB8
:10532000441FAA1FA9F333D00E2E3AF0E0E830D084
:1053300091505040E695001CCAF729D0FE2F27D087
:10534000660F771F881FBB1F261737074807AB0755
:10535000B0E809F0BB0B802DBF01FF2793585F4FCA
:105360002AF09E3F510568F0B6C000C15F3FECF3E4
:10537000983EDCF3869577956795B795F7959F5F8F
:10538000C9F7880F911D9695879597F90895E1E0E3
:10539000660F771F881FBB1F621773078407BA0742
:1053A00020F0621B730B840BBA0BEE1F88F7E0959D
:1053B000089504D06894B111D9C00895BCD088F084
:1053C0009F5790F0B92F9927B751A0F0D1F0660FF1
:1053D000771F881F991F1AF0BA95C9F712C0B1300C
:1053E00081F0C3D0B1E00895C0C0672F782F88271F
:1053F000B85F39F0B93FCCF3869577956795B3954B
:10540000D9F73EF490958095709561957F4F8F4FB9
:105410009F4F0895E89409C097FB3EF490958095BE
:10542000709561957F4F8F4F9F4F9923A9F0F92F6A
:1054300096E9BB279395F695879577956795B795E8
:10544000F111F8CFFAF4BB0F11F460FF1BC06F5FCE
:105450007F4F8F4F9F4F16C0882311F096E911C0E0
:10546000772321F09EE8872F762F05C0662371F001
:1054700096E8862F70E060E02AF09A95660F771F15
:10548000881FDAF7880F9695879597F90895990FF1
:105490000008550FAA0BE0E8FEEF16161706E807FE
:1054A000F907C0F012161306E407F50798F0621B1F
:1054B000730B840B950B39F40A2661F0232B242BF4
:1054C000252B21F408950A2609F4A140A6958FEF13
:1054D000811D811D089597F99F6780E870E060E065
:1054E00008959FEF80EC089500240A94161617067D
:1054F00018060906089500240A94121613061406C5
:1055000005060895092E0394000C11F4882352F027
:10551000BB0F40F4BF2B11F460FF04C06F5F7F4FDF
:105520008F4F9F4F089557FD9058440F551F59F0C6
:105530005F3F71F04795880F97FB991F61F09F3F80
:1055400079F087950895121613061406551FF2CFA9
:105550004695F1DF08C0161617061806991FF1CFF9
:1055600086957105610508940895E894BB27662720
:105570007727CB0197F908958ADF08F48FEF089514
:105580000BD0C0CFB1DF28F0B6DF18F0952309F0BB
:10559000A2CFA7CF1124EACFC6DFA0F3959FD1F306
:1055A000950F50E0551F629FF001729FBB27F00DD1
:1055B000B11D639FAA27F00DB11DAA1F649F662726
:1055C000B00DA11D661F829F2227B00DA11D621F75
:1055D000739FB00DA11D621F839FA00D611D221F2F
:1055E000749F3327A00D611D231F849F600D211D13
:1055F000822F762F6A2F11249F5750408AF0E1F0B6
:1056000088234AF0EE0FFF1FBB1F661F771F881FFE
:1056100091505040A9F79E3F510570F05CCFA6CF46
:105620005F3FECF3983EDCF3869577956795B795E9
:10563000F795E7959F5FC1F7FE2B880F911D969513
:10564000879597F90895FA01EE0FFF1F309621050F
:10565000310599F16115710561F48038BFE39B074D
:1056600049F168949038810561F08038BFEF9B075D
:1056700041F0992342F5FF3FE1053105210511F184
:10568000E8940894E795D901AA2329F4AB2FBE2FFB
:10569000F85FD0F310C0FF5F70F4A695E0F7F7391C
:1056A00050F019F0FF3A38F49F779F930CD00F9089
:1056B00007FC905808953EF014CF60E070E080E859
:1056C0009FE308954FE79F775F934F933F932F9307
:1056D0009ED02F913F914F915F9152DF05C019F4F9
:1056E0000EF0F9CE42CFFDCE26DFC8F39638C0F7D4
:1056F00007F80F92E8942BE33AEA48EB5FE74EDFB6
:105700000F920F920F924DB75EB70F92C0D0E4EE9A
:10571000F0E016D04F915F91EF91FF91E595EE1F6C
:10572000FF1F49F0FE57E0684427EE0F441FFA952B
:10573000E1F74195550B32D00F9007FE26C0089532
:10574000DF93CF931F930F93FF92EF92DF927B0132
:105750008C01689405C0DA2EEF011EDFFE01E8948B
:10576000A5912591359145915591AEF3EF0162DDFB
:10577000FE019701A801DA9479F7DF90EF90FF908E
:105780000F911F91CF91DF9108959B01AC0160E0D3
:1057900070E080E89FE3A5CD9ECEACC0CCDEE8F300
:1057A0009923D9F3940F511DBBF39150504094F0BD
:1057B00059F0882332F0660F771F881F91505040B0
:1057C000C1F79E3F510544F7880F911D9695879527
:1057D00097F908955F3FACF0983E9CF0BB27869503
:1057E00077956795B79508F4B1609395C1F7BB0FAE
:1057F00058F711F460FFE8CF6F5F7F4F8F4F9F4FD7
:10580000E3CFB4CE0EF076C06CCE689464CE93DE57
:10581000C8F39923D1F3C6F3DF93CF931F930F936C
:10582000FF92C92FDD2788232AF02197660F771F63
:10583000881FDAF720E030E040E85FEB9FE388392B
:1058400020F0803E30F021968F77E3DCECE0F1E051
:1058500003C0DFDCE9E3F1E073DF8B01BE01EC01A3
:10586000FB2E6F5771097595771F880B990BD4DD47
:1058700028E132E741E35FE38FDEAF2D9801AE010F
:10588000FF900F911F91CF91DF91D4DC3BCEFA01B5
:10589000DC01AA0FBB1F9B01AC01BF5728F42227D4
:1058A0003327442750781FC0B75188F4AB2F00240A
:1058B000469537952795011CA395D2F3002069F0F2
:1058C000220F331F441FB395DAF30DD0A1CC613002
:1058D0007105A0E88A07B94630F49B01AC01662740
:1058E000772788279078309621F020833183428370
:1058F000538308959F3F31F0915020F48795779519
:105900006795B795880F911D9695879597F9089596
:10591000DB018F939F933BDCBF91AF91A29F800DE2
:10592000911DA39F900DB29F900D1124089597FB98
:10593000072E16F4009406D077FD08D04FD007FC50
:1059400005D03EF4909581959F4F0895709561958F
:105950007F4F0895EE0FFF1F881F8BBF0790F691B2
:10596000E02D199446DCB7FF0895821B930B089530
:10597000002E083090F0982F872F762F652F542F08
:10598000432F322F22270850F4CF220F331F441FFA
:10599000551F661F771F881F991F0A95B2F7002DA4
:1059A000089597FD1094002E083098F00850232F8A
:1059B000342F452F562F672F782F892F912DF4CF15
:1059C000159497958795779567955795479537954A
:1059D00027950A95AAF71124002D0895AA1BBB1B31
:1059E00051E107C0AA1FBB1FA617B70710F0A61BDF
:1059F000B70B881F991F5A95A9F780959095BC0100
:105A0000CD01089581E090E0F89400C0F894FFCFB4
:105A1000FE3C40685748657FB2FE3C435C70486579
:105A2000CB7FFE3C40685748657FB2FE3C505C57D8
:105A30009765CBB2FE3C5F687097CB7FB2FE3C406F
:105A4000685748657FB2FE3C435C704865CB7FFE7B
:105A50003C505C579765CBB2FE3C5F687097CB7F3C
:105A6000B2FFFF3C030303031E09090909092402CD
:105A70001B021202090200020909090948023F0239
:105A800036022D0201000000000040001400540006
:105A900000000000281528152815FD10F910F61033
:105AA000C607D6068F05BD043C506D4600000000B9
:105AB000B3106F106909FD10F910660901070000A5
:105AC0000000B3106F10B70BFD10F91066096F09D5
:105AD00000000000B3106F10010EFD10F9106609F0
