:100000005BC100008AC1000088C1000086C10000F9
:1000100084C1000082C1000080C100007EC10000D8
:100020007CC100007AC1000078C1000076C10000E8
:1000300074C100000C94141770C100006EC1000060
:100040006CC100006AC1000068C1000066C1000008
:1000500064C1000062C1000060C100000C94CA16B7
:100060005CC100000C9494160C946A1656C10000F2
:1000700054C1000052C1000050C100004EC1000038
:100080004CC100004AC1000048C1000046C1000048
:1000900044C1000042C1000040C100000C94F517AB
:1000A0003CC100003AC1000038C1000036C1000068
:1000B00034C1000032C1000030C100002EC1000078
:1000C0002CC100002AC1000028C1000026C1000088
:1000D00024C1000022C1000020C100001EC1000098
:1000E0001CC1000007634236B79BD8A71A3968566F
:1000F00018AEBAAB558C1D3CB7CC5763BD6DEDFD4A
:10010000753EF6177231BF000000803F0800000006
:10011000BE922449123EABAAAA2ABECDCCCC4C3EFC
:1001200000000080BEABAAAAAA3E00000000BF00EB
:100130000000803F0000000000084178D3BB4387E7
:10014000D1133D190E3CC3BD4282AD2B3E68EC82FB
:1001500076BED98FE1A93E4C80EFFFBE01C4FF7F80
:100160003F000000000020002F00202041322F41DE
:10017000333A2000202041302F41313A20002042E4
:1001800072696768746E6573733A2000000020001E
:100190002300260029002C002F003200000100005F
:1001A00003010601090100002100240027002A00A4
:1001B0002D003000330001010000040107010A0195
:1001C00000002200250028002B002E003100340002
:1001D00002010000050108010B01050505050705E1
:1001E00008080808020202020A0A080804040404B3
:1001F00001010101010101010303030303030303DF
:10020000040707070C0C0C0C0C0C0C0C020202026D
:1002100006060606060606060B0B0B0B0B0B0B0B56
:100220000102102020080810204010204080020108
:1002300002010804020101020408102040808040ED
:1002400020100804020180040201804020100804EC
:10025000020108040201010204081020408001028A
:1002600004081020408000000A0B02090C0D0E0843
:10027000070304010000000000000000000000006F
:10028000000000000000000000000000000000006E
:10029000000012111000000000000000000000002B
:1002A0000000000000000000000000007E0174015A
:1002B0006A0168016601191911241FBECFEFD1E24E
:1002C000DEBFCDBF00E00CBF13E0A0E0B2E0E6E689
:1002D000FCE500E00BBF02C007900D92A23CB10705
:1002E000D9F72AE0A2ECB3E001C01D92A238B20710
:1002F000E1F711E0CCE5D1E000E006C0219701096B
:10030000802FFE010E94BC2DCB35D10780E008076D
:10031000A9F70E9480190C94312E72CEEF92FF92B1
:100320000F931F93CF93DF93EC017B018A01E88148
:10033000F9810480F581E02D1995FB82EA821E8700
:100340000D87E881F9810284F385E02DCE011995AE
:10035000009701F19C0150E040E060E472E48FE01E
:1003600090E00E94A02D8091870990918809A0912A
:100370008909B0918A0982179307A407B50710F479
:10038000DA01C9018093870990938809A0938909AC
:10039000B0938A09CE01DF91CF911F910F91FF9009
:1003A000EF90089508950895AF92BF92CF92DF9293
:1003B000EF92FF920F931F93CF93DF936C017B011A
:1003C0008B01040F151FEB015E01AE18BF08C017AB
:1003D000D10759F06991D601ED91FC910190F0811E
:1003E000E02DC6011995892B79F7C501DF91CF91D1
:1003F0001F910F91FF90EF90DF90CF90BF90AF9043
:100400000895FC01538D448D252F30E0842F90E01A
:10041000821B930B541710F0CF96089501970895FF
:10042000FC01918D828D981761F0A28DAE0FBF2FC8
:10043000B11D5D968C91928D9F5F9F73928F90E01E
:1004400008958FEF9FEF0895FC01918D828D98178D
:1004500031F0828DE80FF11D858D90E008958FEFCA
:100460009FEF0895FC01918D228D892F90E0805C93
:100470009F4F821B91098F739927089587EE98E00B
:10048000F1DF21E0892B09F420E0822F0895FC019F
:10049000A48DA80FB92FB11DA35ABF4F2C91848DE5
:1004A00090E001968F739927848FA689B7892C9342
:1004B000A089B1898C91837080648C93938D848D95
:1004C000981306C00288F389E02D80818F7D808398
:1004D0000895EF92FF920F931F93CF93DF93EC0158
:1004E00081E0888F9B8D8C8D98131AC0E889F989DB
:1004F000808185FF15C09FB7F894EE89FF896083DE
:10050000E889F98980818370806480839FBF81E05E
:1005100090E0DF91CF911F910F91FF90EF900895A0
:10052000F62E0B8D10E00F5F1F4F0F731127E02E7B
:100530008C8D8E110BC00FB607FCFACFE889F989B4
:10054000808185FFF5CFCE01A2DFF2CFEB8DEC0FDE
:10055000FD2FF11DE35AFF4FF0829FB7F8940B8FE8
:10056000EA89FB8980818062D0CFCF93DF93EC0151
:10057000888D8823B1F0AA89BB89E889F9898C9193
:1005800085FD03C0808186FD0CC00FB607FCF7CF48
:100590008C9185FFF2CF808185FFEDCFCE0177DF93
:1005A000EACFDF91CF91089580E090E0892B21F090
:1005B00065DF81110E94000080E090E0892B49F006
:1005C00080E090E0892B29F00E94000081110E94B8
:1005D000000080E090E0892B49F080E090E0892BDA
:1005E00029F00E94000081110E94000080E090E04C
:1005F000892B49F080E090E0892B29F00E940000CF
:1006000081110C94000008958150823108F05AC085
:10061000E82FF0E08827E05FFC4F8F4F0C94BC2D53
:1006200030033403220328032C03620337033D0302
:10063000410347034B034F035503590362035D0313
:1006400063036703809180008F7780938000089513
:10065000809180008F7DF9CF80918000877FF5CFDA
:1006600084B58F7784BD089584B58F7DFBCF80914D
:10067000B0008F778093B00008958091B0008F7D97
:10068000F9CF809190008F778093900008958091AA
:1006900090008F7DF9CF80919000877FF5CF80917A
:1006A000A0008F778093A00008958091A0008F7D97
:1006B000F9CF8091A000877FF5CF809120018F77BF
:1006C000809320010895809120018F7DF9CF809142
:1006D0002001877FF5CF1F93CF93DF93282F30E042
:1006E000F901EA59FD4F8491F901E05EFD4FD49183
:1006F000F901E652FE4FC491CC23A1F0162F8111CF
:1007000083DFEC2FF0E0EE0FFF1FE054FE4FA591CA
:10071000B4918FB7F894EC91111108C0D095DE23F5
:10072000DC938FBFDF91CF911F910895DE2BF8CF1F
:100730001092C2081092C1081092D4081092D308E7
:100740001092C00881E08093BF081092BE0861E05B
:1007500084E1C1DF61E085E1BEDFE9EBF0E08081AB
:100760008E7F808380818D7F808388E48093B80032
:1007700085E48093BC0082ED91E09093BD08809366
:10078000BC0883ED91E09093BB088093BA0808956C
:10079000CF93DF9390E0FC01E05EFD4F2491865201
:1007A0009E4FFC0184918823D1F090E0880F991F1F
:1007B000FC01EA55FE4FA591B491FC01E054FE4FB7
:1007C000C591D49161110EC09FB7F8948C91E22F1E
:1007D000E0958E238C932881E223E8839FBFDF91ED
:1007E000CF9108958FB7F894EC91E22BEC938FBFE3
:1007F000F6CF3FB7F89480912A0490912B04A091F2
:100800002C04B0912D0426B5A89B05C02F3F19F0EC
:100810000196A11DB11D3FBFBA2FA92F982F882780
:10082000BC01CD01620F711D811D911D42E0660F5B
:10083000771F881F991F4A95D1F708954F925F92AD
:100840006F927F929F92AF92BF92CF92DF92EF9280
:10085000FF920F931F93CF93DF9300D0CDB7DEB7F6
:10086000F82E8091870990918809A0918909B0910B
:100870008A09892B8A2B8B2BD1F0BBDF0091E308EF
:100880001091E4082091E5083091E608601B710B97
:10089000820B930B00918709109188092091890997
:1008A00030918A096017710782079307D0F2A1DFA0
:1008B0006093E3087093E4088093E5089093E6085A
:1008C000E0918F09F0919009309759F040918B0990
:1008D00050918C0960918D0970918E098F2D199519
:1008E000F82E0091E1081091E2084F2C512C712C48
:1008F000612C0115110509F45EC0D8011C96EC901D
:100900001C9780918509909186098436910510F491
:100910001C961C92D801ED91FC91A280B3801982A3
:100920001A821B82FF2089F1F8013696D12CC12C46
:100930002191222319F19280992001F130E050E0B9
:1009400040E02F5F3F4F4F4F5F4FC301B2010E9406
:100950005C2D9B01AC01892D90E0B0E0A0E0BC01D2
:10096000CD016F5F7F4F8F4F9F4F0E945C2DA1E0A5
:10097000B0E0AC0FBD1FAC0DBD1D8C93BFEFCB1A0B
:10098000DB0A83E0C816D10499F6D8011D964D9173
:100990005C911E9712966D917C919E012F5F3F4F47
:1009A000C801F5011995D8011C96EC921C97149674
:1009B0000D911C919ECF8091DF089091E0089C01E1
:1009C0002F5F3F4F3093E0082093DF0849970CF4E6
:1009D00045C08FB7F8942091D7083091D80840913E
:1009E000D9085091DA088FBFE091DF08F091E00854
:1009F00088EE93E0E89FB001E99F700DF89F700DBD
:100A00001124072E000C880B990BC090DB08D090A6
:100A1000DC08E090DD08F090DE082C193D094E0955
:100A20005F090E947E2D30938609209385091092DC
:100A3000E0081092DF082FB7F8948091D7089091C2
:100A4000D808A091D908B091DA082FBF8093DB08AD
:100A50009093DC08A093DD08B093DE080F900F9010
:100A60000F90DF91CF911F910F91FF90EF90DF904A
:100A7000CF90BF90AF909F907F906F905F904F907E
:100A800008958F929F92AF92BF92CF92DF92EF9292
:100A9000FF924B015C01ADDE6B017C01AADE6C199B
:100AA0007D098E099F09683E734081059105B0F369
:100AB00021E0821A9108A108B10888EEC80E83E0EF
:100AC000D81EE11CF11C81149104A104B10431F77A
:100AD000FF90EF90DF90CF90BF90AF909F908F905E
:100AE00008950895DC01ED91FC910190F081E02DD5
:100AF0001994DA01FC0190E080E08617970769F00D
:100B00002C91208311962C911197218312962C9170
:100B10001297228301963396F0CF0895CF92DF92F9
:100B2000EF92FF92CF93DF93EC01072E000C880B1E
:100B3000990B0E94E02A6B017C0120E030E040E448
:100B40005FE30E94942B20E030E048E452E40E94EE
:100B5000452A0E94AD2AC617D707D4F020E030E01E
:100B600040EA5FE3C701B6010E94942B20E030E029
:100B700048E452E40E94452A20E030E040E85FE388
:100B80000E94DD290E94AD2A21E06C177D070CF43C
:100B900020E0822F90E0DF91CF91FF90EF90DF90E7
:100BA000CF9008958F929F92AF92BF92CF92DF9293
:100BB000EF92FF920F931F93CF93DF93FC0120815D
:100BC0003181E091CF08F091D00801E010E02E17BC
:100BD0003F070CF042C0D901AA0FBB1FE091CD081E
:100BE000F091CE08EA0FFB1FA080B180890100952B
:100BF00010950170112720FD24C02CE93FEFEA0178
:100C00006B017C014901840E951EB401C50186DF8C
:100C100021E030E0892BC1F48C0E9D1EB401C5018A
:100C20007DDF22E030E0892B79F4BE01680D791D6B
:100C3000C50174DF23E030E0892B31F40FEF1FEFA3
:100C40000CC024E630E0DBCFF60180819181019673
:100C50008217930784F491838083C801DF91CF9139
:100C60001F910F91FF90EF90DF90CF90BF90AF90CA
:100C70009F908F90089511821082F7018081918159
:100C80000196E9CF85ED8093BC008091BC0084FD86
:100C9000FCCF1092C008089520910604260F332738
:100CA000331F21323105ECF42091C008FC0190E0A3
:100CB00080E0243069F082E00895A091060421913B
:100CC000AC014A515C4FA40FB52FB11D2C93019676
:100CD000861798F380910604680F6093060480E0FD
:100CE000089581E008950895E091C2088091C108B7
:100CF000E81730F4F0E0ED53FB4F808190E0089569
:100D00008FEF9FEF08959091C2088091C1082FEF57
:100D10003FEF981748F4E92FF0E0ED53FB4F2081A7
:100D200030E09F5F9093C208C90108958091C10887
:100D30009091C208891B990B0895CF92DF92EF9290
:100D4000FF920F931F93CF93DF937C01CB018A0116
:100D50002091D608222389F0EB016B01C40ED51E29
:100D6000CC15DD0561F06991D701ED91FC91019001
:100D7000F081E02DC7011995F3CF642F8DDFC801F5
:100D8000DF91CF911F910F91FF90EF90DF90CF9067
:100D90000895CF93DF931F92CDB7DEB7698320917B
:100DA000D6082223F9F02091D308203258F021E010
:100DB00030E0FC013383228390E080E00F90DF91EC
:100DC000CF9108958091D408E82FF0E0EA53FC4FCA
:100DD000998190838F5F8093D4088093D30881E0BA
:100DE00090E0ECCF61E0CE01019656DFF8CF209184
:100DF000D30881E0213208F044C08091C0088111FD
:100E0000FCCF8091D50892E09093C00891E0909338
:100E1000BF089FEF9093C2041092C1042093C004B6
:100E2000A6ECB3E0EFE9F4E090E0291331C01092B2
:100E3000BF049091BF04880F892B8093BF048091D9
:100E4000BE08813049F51092BE088091BF0480939E
:100E5000BB008091BC0083FDF8CF85EC8093BC0083
:100E60008091C0088230E1F38091C2048F3FB1F0DD
:100E70008091C2048032A1F08091C204803391F04D
:100E800084E01092D4081092D3081092D6080895E6
:100E90003D9131939F5FC9CF85EEE0CF80E0F1CFE8
:100EA00082E0EFCF83E0EDCF0F931F93CF93DF93DB
:100EB0008B01C9EAD9E0A981BA81988121E0209308
:100EC000D6089093D5081092D4081092D30894E0D5
:100ED000899FB00111246A5F7F4FED91FC911197BA
:100EE0000190F081E02DCD01199570E060E08981DD
:100EF0009A81F8DD70E060E089819A81F3DDB801C4
:100F000089819A81EFDD612F70E089819A81EADD24
:100F100089819A81DF91CF911F910F9168CF1F93A3
:100F2000CF93DF93162FC9EAD9E0A981BA819881BE
:100F300021E02093D6089093D5081092D4081092FF
:100F4000D308ED91FC9111970190F081E02D682F6D
:100F5000CD01199589819A81DC01ED91FC91019077
:100F6000F081E02D612F199589819A81DF91CF91D0
:100F70001F913DCFFC01248131E03093D6082093AE
:100F8000D5081092D4081092D3088385682B8DE978
:100F900099E0FFDE8DE999E02ACF90E080E00895A6
:100FA0008091590290915402891781F021E08917AC
:100FB00008F42FEF920F90935402809384093EDC43
:100FC0006AE070E080E090E05CDDEACF08950F9386
:100FD0001F93CF93DF932091C5032F5F322F37707C
:100FE0003093C50320FF2BC020E831FD206434700E
:100FF00009F02062205FFC01EC01239600E011E083
:101000006485662329F070E0C8010E946B2D6F5F34
:101010006187322F369F030E30E0311D11243111CC
:1010200010C01682662311F0615061873196EC176B
:10103000FD0731F7DF91CF911F910F91089520E0C7
:10104000D4CF31503683EECFCF93DF93EC01D1DB99
:1010500079836883DF91CF910895CF93DF93EC017B
:10106000C8DB28813981621B730B6A307105C0F3BC
:10107000DF91CF9108956F927F928F929F92AF925E
:10108000BF92CF92DF92EF92FF920F931F93CF9375
:10109000DF93EB010F963C01E0DFF894E881F981E2
:1010A00050910201586040910201477F4093020134
:1010B000EA848F812E2D281B822F2F83DF84AA8123
:1010C000BB816D857C85FE846F5F7F5FF3949E811D
:1010D0003885B984AB84118120E0C32E022F322FD2
:1010E0003181112788943111380F08F43FEF819531
:1010F000889460FD130F1795889461FD130F179561
:10110000889462FD130F1795889463FD130F17954C
:10111000889464FD130F1795889465FD130F179538
:10112000889466FD130F1795889467FD130F179524
:101130008894232F6111212F8E0D122F002C509394
:101140000201002C17FF409302013081222788946E
:1011500000C000C0409302013111390F00C050930C
:101160000201002C16FF4093020108F43FEF919515
:10117000889400C000C04093020170FD230F00C09E
:1011800050930201002C15FF40930201279588948B
:1011900071FD230F00C000C0409302012795889481
:1011A00000C050930201002C14FF4093020172FD15
:1011B000230F2795889400C000C04093020173FD5F
:1011C000230F00C050930201002C13FF4093020133
:1011D0002795889474FD230F00C000C0409302013E
:1011E0002795889400C050930201002C12FF409371
:1011F000020175FD230F2795889400C000C040931D
:10120000020176FD230F00C050930201002C11FF54
:10121000409302012795889477FD230F00C000C0FA
:10122000409302012795889400C050930201002C3E
:1012300010FF40930201132F7111122F9B0D00C05C
:1012400000C04093020100C000C050930201002C76
:1012500017FF4093020132812227889400C000C00A
:101260004093020131113C0D00C050930201002C4B
:1012700016FF4093020108F43FEFED0DF11D00C091
:1012800000C040930201F0FC230F00C05093020104
:10129000002C15FF4093020127958894F1FC230F41
:1012A00000C000C0409302012795889400C050936D
:1012B0000201002C14FF40930201F2FC230F27953A
:1012C000889400C000C040930201F3FC230F00C0CB
:1012D00050930201002C13FF40930201279588943C
:1012E000F4FC230F00C000C04093020127958894AE
:1012F00000C050930201002C12FF40930201F5FC44
:10130000230F2795889400C000C040930201F6FC8B
:10131000230F00C050930201002C11FF40930201E3
:1013200027958894F7FC230F00C000C0409302016A
:101330002795889400C050930201002C10FF409321
:101340000201132FF110122FC19400C000C040936E
:101350000201CA0C00C0002C50930201002C17FFA0
:101360004093020131812227889400C000C040933D
:1013700002013111380F00C050930201002C16FFFA
:101380004093020108F43FEF8195889400C000C0AB
:101390004093020160FD230F00C050930201002C16
:1013A00015FF409302012795889461FD230F00C02B
:1013B00000C0409302012795889400C05093020119
:1013C000002C14FF4093020162FD230F279588949F
:1013D00000C000C04093020163FD230F00C0509382
:1013E0000201002C13FF409302012795889464FDAD
:1013F000230F00C000C0409302012795889400C0CD
:1014000050930201002C12FF4093020165FD230F4F
:101410002795889400C000C04093020166FD230F09
:1014200000C050930201002C11FF40930201279548
:10143000889467FD230F00C000C0409302012795E8
:10144000889400C050930201002C10FF40930201C9
:10145000132F6111122F8E0D00C000C040930201A6
:10146000119709F06CCE4A815B8120EE31E0DA0100
:101470000E94C42DDC01CB0164E0B695A795979539
:1014800087956A95D1F730E020E0B901EAE94E9FEF
:10149000040E611D5E9F600D711D1124650F711D8D
:1014A000860F971FA11DB11D893E43E09407A1053A
:1014B000B10508F434C0885E9340A109B10942E047
:1014C000B695A795979587954A95D1F747E0849F5C
:1014D000080E211D949F200D311D1124290F311D4F
:1014E0006091C40370E0860F971F280F391F809109
:1014F000D7089091D808A091D908B091DA08432F65
:101500005527840F951FA11DB11D8093D708909377
:10151000D808A093D908B093DA082093C40378942C
:10152000C301DF91CF911F910F91FF90EF90DF905A
:10153000CF90BF90AF909F908F907F906F9084CD11
:1015400080E991E00895E1E0F1E0808188608083A6
:1015500008954F925F926F927F928F929F92AF9277
:10156000CF92DF92EF92FF920F931F93CF93DF936F
:10157000EB010F962C0171DDF894E881F98105B13A
:10158000006115B11F7E15B9CA848F814C2D481B8F
:10159000842F4F839F846A807B80FD84EC84DE846B
:1015A000F394E394D3949E8138858984AB844181FC
:1015B000D30120E0622F722F71814427889471112A
:1015C000780F08F47FEF81958894F0FC470F4795DA
:1015D0008894F1FC470F47958894F2FC470F479594
:1015E0008894F3FC470F47958894F4FC470F479580
:1015F0008894F5FC470F47958894F6FC470F47956C
:101600008894F7FC470F47958894272FF110242FD3
:101610008C0D422F002C05B900C047FF15B9708111
:101620002227889400C000C0002C15B97111790FD1
:1016300000C0002C05B900C046FF15B908F47FEFC3
:101640009195889400C000C0002C15B9E0FC270FCC
:1016500000C0002C05B900C045FF15B92795889436
:10166000E1FC270F00C000C0002C15B92795889415
:1016700000C0002C05B900C044FF15B9E2FC270FDB
:101680002795889400C000C0002C15B9E3FC270FF3
:1016900000C0002C05B900C043FF15B927958894F8
:1016A000E4FC270F00C000C0002C15B927958894D2
:1016B00000C0002C05B900C042FF15B9E5FC270F9A
:1016C0002795889400C000C0002C15B9E6FC270FB0
:1016D00000C0002C05B900C041FF15B927958894BA
:1016E000E7FC270F00C000C0002C15B9279588948F
:1016F00000C0002C05B900C040FF15B9472FE1100C
:10170000422F980D00C000C0002C15B900C000C0C9
:10171000002C05B900C047FF15B9728122278894B3
:1017200000C000C0002C15B97111730F00C0002C4F
:1017300005B900C046FF15B908F47FEFE90DF11DAA
:1017400000C000C0002C15B9D0FC270F00C0002C31
:1017500005B900C045FF15B927958894D1FC270F1E
:1017600000C000C0002C15B92795889400C0002C3B
:1017700005B900C044FF15B9D2FC270F27958894FE
:1017800000C000C0002C15B9D3FC270F00C0002CEE
:1017900005B900C043FF15B927958894D4FC270FDD
:1017A00000C000C0002C15B92795889400C0002CFB
:1017B00005B900C042FF15B9D5FC270F27958894BD
:1017C00000C000C0002C15B9D6FC270F00C0002CAB
:1017D00005B900C041FF15B927958894D7FC270F9C
:1017E00000C000C0002C15B92795889400C0002CBB
:1017F00005B900C040FF15B9472FD110422F3195D0
:1018000000C000C0002C15B93A0D00C000C005B9D9
:1018100000C047FF15B971812227889400C000C01D
:10182000002C15B97111780F00C0002C05B900C04B
:1018300046FF15B908F47FEF8195889400C000C079
:10184000002C15B9F0FC270F00C0002C05B900C012
:1018500045FF15B927958894F1FC270F00C000C0FB
:10186000002C15B92795889400C0002C05B900C03C
:1018700044FF15B9F2FC270F2795889400C000C0DB
:10188000002C15B9F3FC270F00C0002C05B900C0CF
:1018900043FF15B927958894F4FC270F00C000C0BA
:1018A000002C15B92795889400C0002C05B900C0FC
:1018B00042FF15B9F5FC270F2795889400C000C09A
:1018C000002C15B9F6FC270F00C0002C05B900C08C
:1018D00041FF15B927958894F7FC270F00C000C079
:1018E000002C15B92795889400C0002C05B900C0BC
:1018F00040FF15B9472FF110422F8C0D00C000C0DA
:10190000002C15B9119709F086CE20EE31E0D301F5
:101910000E94C42DDC01CB01F4E0B695A795979504
:101920008795FA95D1F730E020E0B901EAE96E9E9B
:10193000060C611D7E9E600D711D1124670D711DC9
:10194000860F971FA11DB11D893E43E09407A10595
:10195000B10508F434C0885E9340A109B10942E0A2
:10196000B695A795979587954A95D1F747E0849FB7
:10197000080E211D949F200D311D1124290F311DAA
:101980006091C40370E0860F971F820F931F4091F0
:10199000D7085091D8086091D9087091DA08292F9A
:1019A0003327420F531F611D711D4093D708509379
:1019B000D8086093D9087093DA088093C4037894A8
:1019C000C201DF91CF911F910F91FF90EF90DF90B7
:1019D000CF90AF909F908F907F906F905F904F903F
:1019E00033CB249A08954F925F926F927F928F9299
:1019F0009F92AF92CF92DF92EF92FF920F931F933D
:101A0000CF93DF93EB010F962C0127DBF894E8814D
:101A1000F98105B1006215B11F7D15B9CA848F81A6
:101A20004C2D481B842F4F839F846A807B80FD84CC
:101A3000EC84DE84F394E394D3949E813885898486
:101A4000AB844181D30120E0622F722F7181442742
:101A500088947111780F08F47FEF81958894F0FCD9
:101A6000470F47958894F1FC470F47958894F2FCFF
:101A7000470F47958894F3FC470F47958894F4FCEB
:101A8000470F47958894F5FC470F47958894F6FCD7
:101A9000470F47958894F7FC470F47958894272F61
:101AA000F110242F8C0D422F002C05B900C047FFE8
:101AB00015B970812227889400C000C0002C15B988
:101AC0007111790F00C0002C05B900C046FF15B98F
:101AD00008F47FEF9195889400C000C0002C15B9E0
:101AE000E0FC270F00C0002C05B900C045FF15B968
:101AF00027958894E1FC270F00C000C0002C15B981
:101B00002795889400C0002C05B900C044FF15B982
:101B1000E2FC270F2795889400C000C0002C15B95F
:101B2000E3FC270F00C0002C05B900C043FF15B926
:101B300027958894E4FC270F00C000C0002C15B93D
:101B40002795889400C0002C05B900C042FF15B944
:101B5000E5FC270F2795889400C000C0002C15B91C
:101B6000E6FC270F00C0002C05B900C041FF15B9E5
:101B700027958894E7FC270F00C000C0002C15B9FA
:101B80002795889400C0002C05B900C040FF15B906
:101B9000472FE110422F980D00C000C0002C15B94E
:101BA00000C000C0002C05B900C047FF15B9728104
:101BB0002227889400C000C0002C15B97111730F42
:101BC00000C0002C05B900C046FF15B908F47FEF2E
:101BD000E90DF11D00C000C0002C15B9D0FC270F85
:101BE00000C0002C05B900C045FF15B927958894A1
:101BF000D1FC270F00C000C0002C15B92795889490
:101C000000C0002C05B900C044FF15B9D2FC270F55
:101C10002795889400C000C0002C15B9D3FC270F6D
:101C200000C0002C05B900C043FF15B92795889462
:101C3000D4FC270F00C000C0002C15B9279588944C
:101C400000C0002C05B900C042FF15B9D5FC270F14
:101C50002795889400C000C0002C15B9D6FC270F2A
:101C600000C0002C05B900C041FF15B92795889424
:101C7000D7FC270F00C000C0002C15B92795889409
:101C800000C0002C05B900C040FF15B9472FD11086
:101C9000422F319500C000C0002C15B93A0D00C08C
:101CA00000C005B900C047FF15B97181222788948B
:101CB00000C000C0002C15B97111780F00C0002CB5
:101CC00005B900C046FF15B908F47FEF81958894E7
:101CD00000C000C0002C15B9F0FC270F00C0002C7C
:101CE00005B900C045FF15B927958894F1FC270F69
:101CF00000C000C0002C15B92795889400C0002CA6
:101D000005B900C044FF15B9F2FC270F2795889448
:101D100000C000C0002C15B9F3FC270F00C0002C38
:101D200005B900C043FF15B927958894F4FC270F27
:101D300000C000C0002C15B92795889400C0002C65
:101D400005B900C042FF15B9F5FC270F2795889407
:101D500000C000C0002C15B9F6FC270F00C0002CF5
:101D600005B900C041FF15B927958894F7FC270FE6
:101D700000C000C0002C15B92795889400C0002C25
:101D800005B900C040FF15B9472FF110422F8C0D47
:101D900000C000C0002C15B9119709F086CE20EEC6
:101DA00031E0D3010E94C42DDC01CB01F4E0B695F3
:101DB000A79597958795FA95D1F730E020E0B9017E
:101DC000EAE96E9E060C611D7E9E600D711D112458
:101DD000670D711D860F971FA11DB11D893E43E040
:101DE0009407A105B10508F434C0885E9340A109A9
:101DF000B10942E0B695A795979587954A95D1F791
:101E000047E0849F080E211D949F200D311D112451
:101E1000290F311D6091C40370E0860F971F820F58
:101E2000931F4091D7085091D8086091D9087091BC
:101E3000DA08292F3327420F531F611D711D40936C
:101E4000D7085093D8086093D9087093DA08809324
:101E5000C4037894C201DF91CF911F910F91FF903D
:101E6000EF90DF90CF90AF909F908F907F906F908A
:101E70005F904F90E9C8259A08956F927F928F9254
:101E80009F92AF92BF92CF92DF92EF92FF920F9309
:101E90001F93CF93DF93EB010F963C01DED8F894AC
:101EA000E881F981509102015064409102014F7B19
:101EB00040930201EA848F812E2D281B822F2F83CD
:101EC000DF84AA81BB816D857C85FE846F5F7F5F27
:101ED000F3949E813885B984AB84118120E0C32EB0
:101EE000022F322F3181112788943111380F08F4D5
:101EF0003FEF8195889460FD130F1795889461FDDD
:101F0000130F1795889462FD130F1795889463FD3E
:101F1000130F1795889464FD130F1795889465FD2A
:101F2000130F1795889466FD130F1795889467FD16
:101F3000130F17958894232F6111212F8E0D122FC7
:101F4000002C50930201002C17FF409302013081B6
:101F50002227889400C000C0409302013111390F3C
:101F600000C050930201002C16FF4093020108F4B8
:101F70003FEF9195889400C000C04093020170FD2E
:101F8000230F00C050930201002C15FF4093020163
:101F90002795889471FD230F00C000C04093020173
:101FA0002795889400C050930201002C14FF4093A1
:101FB000020172FD230F2795889400C000C0409352
:101FC000020173FD230F00C050930201002C13FF88
:101FD000409302012795889474FD230F00C000C030
:101FE000409302012795889400C050930201002C71
:101FF00012FF4093020175FD230F2795889400C0BE
:1020000000C04093020176FD230F00C050930201EF
:10201000002C11FF409302012795889477FD230F30
:1020200000C000C0409302012795889400C05093DF
:102030000201002C10FF40930201132F7111122F87
:102040009B0D00C000C04093020100C000C050932F
:102050000201002C17FF409302013281222788944D
:1020600000C000C04093020131113C0D00C05093EC
:102070000201002C16FF4093020108F43FEFED0D22
:10208000F11D00C000C040930201F0FC230F00C00E
:1020900050930201002C15FF40930201279588946C
:1020A000F1FC230F00C000C04093020127958894E3
:1020B00000C050930201002C14FF40930201F2FC77
:1020C000230F2795889400C000C040930201F3FCC1
:1020D000230F00C050930201002C13FF4093020114
:1020E00027958894F4FC230F00C000C040930201A0
:1020F0002795889400C050930201002C12FF409352
:102100000201F5FC230F2795889400C000C040937E
:102110000201F6FC230F00C050930201002C11FFB6
:102120004093020127958894F7FC230F00C000C05C
:10213000409302012795889400C050930201002C1F
:1021400010FF40930201132FF110122FC19400C011
:1021500000C040930201CA0C00C0002C5093020141
:10216000002C17FF4093020131812227889400C080
:1021700000C0409302013111380F00C0509302019A
:10218000002C16FF4093020108F43FEF81958894DC
:1021900000C000C04093020160FD230F00C05093B7
:1021A0000201002C15FF409302012795889461FDE0
:1021B000230F00C000C0409302012795889400C0FF
:1021C00050930201002C14FF4093020162FD230F83
:1021D0002795889400C000C04093020163FD230F3F
:1021E00000C050930201002C13FF40930201279579
:1021F000889464FD230F00C000C04093020127951E
:10220000889400C050930201002C12FF40930201F9
:1022100065FD230F2795889400C000C040930201FC
:1022200066FD230F00C050930201002C11FF409364
:1022300002012795889467FD230F00C000C04093DA
:1022400002012795889400C050930201002C10FFD2
:1022500040930201132F6111122F8E0D00C000C098
:1022600040930201119709F06CCE4A815B8120EE08
:1022700031E0DA010E94C42DDC01CB0164E0B695A7
:10228000A795979587956A95D1F730E020E0B90139
:10229000EAE94E9F040E611D5E9F600D711D1124C1
:1022A000650F711D860F971FA11DB11D893E43E06B
:1022B0009407A105B10508F434C0885E9340A109D4
:1022C000B10942E0B695A795979587954A95D1F7BC
:1022D00047E0849F080E211D949F200D311D11247D
:1022E000290F311D6091C40370E0860F971F280FDE
:1022F000391F8091D7089091D808A091D908B09142
:10230000DA08432F5527840F951FA11DB11D809317
:10231000D7089093D808A093D908B093DA082093EF
:10232000C4037894C301DF91CF911F910F91FF9067
:10233000EF90DF90CF90BF90AF909F908F907F9065
:102340006F900C942408E1E0F1E080818064808348
:1023500008950F931F93CF93DF93CDB7DEB76297A6
:102360000FB6F894DEBF0FBECDBF8C01F901DC01C2
:102370001C968C917A8369835C834B835E834D8347
:1023800090819D8791819E8792819F878130F1F412
:10239000CE0101960E94E70783E0888B1A8A198A8A
:1023A000D801ED91FC910484F585E02DBE016F5FAD
:1023B0007F4FC801199562960FB6F894DEBF0FBE25
:1023C000CDBFDF91CF911F910F9108951C861B8681
:1023D0001A86198618861F82DFCF0F931F93CF931B
:1023E000DF93CDB7DEB762970FB6F894DEBF0FBEAE
:1023F000CDBF8C01F901DC011C968C917A83698335
:102400005C834B835E834D8390819D8791819E8702
:1024100092819F878130E9F4CE0101960E94E707FF
:10242000188A1A8A198AD801ED91FC910484F585DD
:10243000E02DBE016F5F7F4FC801199562960FB600
:10244000F894DEBF0FBECDBFDF91CF911F910F91EA
:1024500008951C861B861A86198618861F82E0CF6F
:1024600090E080E00895FC01858596850895CF93DE
:10247000DF9300D000D0CDB7DEB7AB011C821D8248
:102480001E82DC01ED91FC910190F081E02D19821A
:102490001A821B829E012F5F3F4FBE016C5F7F4FF0
:1024A000199526960FB6F894DEBF0FBECDBFDF910B
:1024B000CF910895FC0184E892E091838083138298
:1024C00012828FEF868387838087818782878387C5
:1024D00081E0848716861586158214828091E10832
:1024E0009091E208892B21F4F093E208E093E1084F
:1024F000A091C203B091C303109721F01596FC93ED
:10250000EE931497F093C303E093C20308950F93DF
:102510001F93CF938C01C62F0E94BA076C2F646063
:10252000C8010E94BA076C2F6B7FC8010E94BA07CE
:1025300083EC90E00197F1F7CF911F910F910895EF
:102540000F931F93CF93DF938C01D62FC42F607FFF
:10255000642BDDDF80E1D89FB00111246C2BC80112
:10256000DF91CF911F910F91D2CFCF93DF9300D006
:1025700000D01F921F92CDB7DEB798E0E8E7F2E0F7
:10258000DE01119601900D929A95E1F790919909CB
:10259000961710F46FEF690F262F30E0220F331FCC
:1025A00041E050E04C0F5D1F240F351FF9016081A1
:1025B000680F606840E081E999E028960FB6F894CA
:1025C000DEBF0FBECDBFDF91CF91BACF41E0B8DF04
:1025D00081E090E008952F923F924F925F926F9228
:1025E0007F928F929F92AF92BF92CF92DF92EF92A3
:1025F000FF920F931F93CF93DF93CDB7DEB7E8978A
:102600000FB6F894DEBF0FBECDBFD82EC62EB42EA7
:10261000309151023C83209152022D8390915302BC
:102620009E838F836887498781E0D31608F480E012
:102630008A8781E0C21608F480E08B8781E0B916B2
:1026400008F480E08C8718A21D8E1F8E1E8E1C8EB3
:102650001B8E5EE1252E312C9E01235F3F4F3E876E
:102660002D878D2D90E0B0E0A0E08DA79EA7AFA7AD
:10267000B8AB2C2D30E050E040E029AB3AAB4BAB8F
:102680005CAB8B2D90E0B0E0A0E08DAB9EABAFAB30
:10269000B8AF88248394912CE12C1A8E198E82E194
:1026A00092E0821993099C0150E040E029A33AA3EB
:1026B0004BA35CA3C101B0E0A0E08DA39EA3AFA398
:1026C000B8A7840101501109F801E855F74FF080CF
:1026D000F801ED51FB4FA080FF2009F47AC1A11051
:1026E000A6C0998D911141C06DA17EA18FA198A521
:1026F0000E94DE2A9B01AC010E94942B20E034E270
:1027000044E758E40E94452A2B013C012DEC3CECA7
:102710004CE45DE30E94412A87FD3FC06DA57EA584
:102720008FA598A90E94DE2AA30192010E94942BF2
:102730000E94B22A6B8F69A97AA98BA99CA90E94D1
:10274000DE2AA30192010E94942B0E94B22A6C8F70
:102750006DA97EA98FA998AD0E94DE2AA3019201DE
:102760000E94942B0E94B22A6E8FAB8DA983BC8DE0
:10277000BA83EE8DEB83F801E856FD4F608170E07F
:10278000F401EE0FFF1FE257FD4FAE014F5F5F4FA9
:10279000808191810E947905F98EBFEF8B1A9B0A87
:1027A000E5E08E16910409F08CCF809184090E9497
:1027B0001E0465E070E080E090E00E944105F5E0D5
:1027C0002F0E311C24EF221621E0320609F061CFD2
:1027D0008091A8088093E3048091A9088093E40481
:1027E0008091AA088093E5048091AB088093E60469
:1027F000D0925102C0925202B0925302E8960FB6A4
:10280000F894DEBF0FBECDBFDF91CF911F910F9126
:10281000FF90EF90DF90CF90BF90AF909F908F9000
:102820007F906F905F904F903F902F900895E110B0
:102830007EC09E01265F3F4F3E8B2D8B7E0134E094
:10284000E30EF11CAE01495F5F4F588F4F8B81E55E
:1028500092E0988B8F87AD89BE892D91BE8BAD8B11
:10286000F701808190E0AF89B88D0D91B88FAF8B63
:1028700010E0222309F474C098012F5F3F4F2817FE
:1028800039070CF444C06DA17EA18FA198A50E94C8
:10289000DE2A2B013C01EF85F8898081282F30E06A
:1028A0003A8B298BB801621B730B072E000C880B27
:1028B000990B0E94E02A69A77AA78BA79CA7A3017E
:1028C0009201C301B2010E94942B20E034E244E75C
:1028D00058E40E94452A9B01AC0169A57AA58BA505
:1028E0009CA50E94942B2B013C0149895A89BA016D
:1028F000550F880B990B0E94E02A9B01AC01C30184
:10290000B2010E94DD290E94B22AD7016C93BFEF69
:10291000EB1AFB0AEF85F8893196F88BEF872D8546
:102920003E854D895E892417350709F094CF8E8145
:102930009D812C8129839A838B83F401E956FD4F75
:10294000608170E0F401EE0FFF1FE257FD4FAE0112
:102950004F5F5F4F808191810E947905EA2C1DCFE6
:10296000980121503109821793078CF269A17AA14D
:102970008BA19CA10E94DE2A2B013C01EF85F889E6
:10298000608170E0601B710B072E000C880B990BA7
:102990000E94E02A698B7A8B8B8B9C8BA30192011E
:1029A000C301B2010E94942B20E034E244E758E4D2
:1029B0000E94452A9B01AC0169897A898B899C898F
:1029C0000E94942B2B013C01B801110F880B990B2D
:1029D00092CFAA2009F4E1CE5A8D51114FC069A1BE
:1029E0007AA18BA19CA10E94DE2A9B01AC010E94CE
:1029F000942B20E034E244E758E40E94452A2B015E
:102A00003C0120E030E040E85FE30E94902B181684
:102A10000CF44DC02DEC3CEC4CE45DE3C301B20181
:102A20000E94412A87FD4AC06091510270E090E007
:102A300080E00E94DE2AA30192010E94942B0E9452
:102A4000B22A6F8F6091520270E090E080E00E94A5
:102A5000DE2AA30192010E94942B0E94B22A6D8F5C
:102A60006091530270E090E080E00E94DE2AA301B2
:102A700092010E94942B0E94B22A68A38F8D8983B1
:102A80009D8D9A83A8A1AB83F801E856FD4F608124
:102A900070E0F401EE0FFF1FE257FD4FAE014F5FF4
:102AA0005F4F808191810E947905AA8E76CE412C5C
:102AB000512C90E8692E9FE3792EB6CF412C512CF2
:102AC0003201B2CF0E942D2EFB0101900020E9F7C8
:102AD0003197AF01461B570BDC01ED91FC91028051
:102AE000F381E02D19948F929F92AF92BF920F9332
:102AF0001F93CF93DF93CDB7DEB7A1970FB6F894AE
:102B0000DEBF0FBECDBF19A2423008F44AE08E01ED
:102B10000F5D1F4F842E912CB12CA12CA501940187
:102B20000E947E2DE62FB901CA01EA30FCF4E05D77
:102B3000D801EE938D01232B242B252B79F790E0E0
:102B400080E0109721F0BD0187EE98E0BDDFA196EF
:102B50000FB6F894DEBF0FBECDBFDF91CF911F91AE
:102B60000F91BF90AF909F908F900895E95CE0CF58
:102B7000CF92DF92EF92FF92CF93DF9397FF1AC02D
:102B80006B017C016DE287EE98E00E946902EC0126
:102B900066277727CB016C197D098E099F094AE0CA
:102BA000A2DF8C0F9D1FDF91CF91FF90EF90DF9000
:102BB000CF9008954AE0DF91CF91FF90EF90DF90A2
:102BC000CF9091CFCF93DF93BC0187EE98E07CDF6D
:102BD000EC016BE273E087EE98E076DF8C0F9D1FCF
:102BE000DF91CF91089570CF0F931F93CF9370E033
:102BF000F901E60FF71FC081DB01AA0FBB1FA80F69
:102C0000B91F5C91E52F1196FC91A42FB0E0AF5451
:102C1000B74F8E2F851B8C17A8F42C9130E0819133
:102C200090E08C01015011092017310794F30196AF
:102C30008217930774F3411145C06855774F81E0BF
:102C4000FB0180836EE273E087EE98E0CCDF08EA58
:102C500018E0C0E0F80161918F0170E090E080E041
:102C600087DFC33029F069E373E087EE98E0BBDFCC
:102C7000CF5FC43079F78DE293E0A4DF6CE373E0BB
:102C800087EE98E0B0DF0CEA18E0C0E0F80161914F
:102C90008F0170E090E080E06BDFC33029F069E3E2
:102CA00073E087EE98E09FDFCF5FC43079F78DE265
:102CB00093E088DF86E493E085DF80E0CF911F9189
:102CC0000F9108956455774F81E0FB018083109246
:102CD000A908B8CF1F920F920FB60F9211240BB60E
:102CE0000F922F933F934F935F936F937F938F93A5
:102CF0009F93AF93BF93EF93FF9387EE98E00E946B
:102D00004702FF91EF91BF91AF919F918F917F917A
:102D10006F915F914F913F912F910F900BBE0F904C
:102D20000FBE0F901F9018951F920F920FB60F9223
:102D300011240BB60F922F938F939F93EF93FF93D2
:102D4000E091F708F091F8088081E091FD08F0919A
:102D5000FE0882FD1DC09081809100098F5F8F73F6
:102D600020910109821741F0E0910009F0E0E9515A
:102D7000F74F958F80930009FF91EF919F918F916D
:102D80002F910F900BBE0F900FBE0F901F901895B4
:102D90008081F2CF1F920F920FB60F9211242F93C2
:102DA0003F938F939F93AF93BF938091D708909158
:102DB000D808A091D908B091DA083091290423E00D
:102DC000230F2D3758F50196A11DB11D209329041D
:102DD0008093D7089093D808A093D908B093DA08C5
:102DE00080912A0490912B04A0912C04B0912D0481
:102DF0000196A11DB11D80932A0490932B04A093EA
:102E00002C04B0932D04BF91AF919F918F913F916E
:102E10002F910F900FBE0F901F90189526E8230F4B
:102E20000296A11DB11DD2CF1F920F920FB60F9225
:102E300011240BB60F922F933F934F935F936F9391
:102E40007F938F939F93AF93BF93CF93DF93EF9332
:102E5000FF932091B10930E0F901EA59FD4F8491C7
:102E6000F901E05EFD4FD491F901E652FE4FC491A5
:102E7000CC2379F081110E940403EC2FF0E0EE0FD7
:102E8000FF1FE457FE4FA591B491EC91ED2381E033
:102E900009F480E02091B5093091B6092F5F3F4FCA
:102EA0003093B6092093B5099091B409953618F07E
:102EB00096E09093B0099091B009943009F466C0FF
:102EC000B8F49230F1F0933009F444C09091B30912
:102ED000992309F46BC081117EC08091B2098823C7
:102EE00009F463C08091B20961E00E946B035EC087
:102EF000953009F457C0963049F791E09093810AD4
:102F00004FC08111E3CF2091B5093091B609243625
:102F1000310528F41092B6091092B509D7CF109256
:102F2000810A1092B409E091B40991E09E0F909348
:102F3000B409F0E02091B5093091B609EE0FFF1FFA
:102F4000E055F64F308727831092B6091092B509E5
:102F500093E019C0813009F0B9CFE091B40991E054
:102F60009E0F9093B409F0E02091B5093091B60915
:102F7000EE0FFF1FE055F64F308727831092B609FA
:102F80001092B50994E09093B009A0CF882359F22C
:102F90002091B5093091B6092536310508F496CF50
:102FA00095E0F1CF811192CFB5CF2F9AFF91EF919C
:102FB000DF91CF91BF91AF919F918F917F916F9151
:102FC0005F914F913F912F910F900BBE0F900FBECD
:102FD0000F901F9018958091B209882321F080915D
:102FE000B20960E082CF2F98E1CF1F920F920FB607
:102FF0000F9211240BB60F922F933F934F935F9331
:103000006F937F938F939F93AF93BF93EF93FF93B0
:103010008091B900887F803609F44DC008F040C027
:10302000883209F4A9C028F5803109F49DC0C8F49C
:10303000882309F4FBC0883009F496C0FF91EF9112
:10304000BF91AF919F918F917F916F915F914F91C0
:103050003F912F910F900BBE0F900FBE0F901F90BE
:103060001895883109F488C0803241F78093C204F2
:1030700014C0803409F49DC040F48033B9F3883320
:10308000E9F68093C20485ECB0C0803509F485C0B0
:10309000883509F496C0883489F60E944206CECF5E
:1030A000883909F48CC038F5883729F050F488360F
:1030B00011F0803719F683E08093C008109228043D
:1030C00057C0883809F47BC0803919F0803809F07E
:1030D000B5CF80912804803208F071C0E0912804B7
:1030E00081E08E0F809328048091BB00F0E0E85FC0
:1030F000FB4F80833DC0803B39F0E0F4803A09F417
:1031000079C0883A09F09ACF84E08093C008109281
:10311000070410920604E091BC08F091BD081995CF
:103120008091060481110FC081E080930604109203
:10313000E60309C0803C09F4A6CF883C09F4A3CF7C
:10314000883B09F07BCFE091070481E08E0F8093EC
:103150000704F0E0EA51FC4F80818093BB0090911E
:1031600007048091060429C08091BF048093BB00AE
:1031700085EC8093BC0062CF9091C1048091C00423
:10318000981758F5E091C10481E08E0F8093C10437
:10319000F0E0E156FB4F8081E9CFE091C10481E08E
:1031A0008E0F8093C1048091BB00F0E0E156FB4F8D
:1031B00080839091C1048091C0049817C8F285E87B
:1031C000D8CFE091C10481E08E0F8093C10480913B
:1031D000BB00F0E0E156FB4F80838091BF08811176
:1031E0005CCF81E08093BE0884EA8093BC0010929B
:1031F000C00824CF85EC8093BC001092C008809159
:103200002804803230F4E0912804F0E0E85FFB4FBE
:1032100010826091280470E0E091BA08F091BB0838
:1032200088E094E019951092280408CF1092C20407
:1032300034CFE7EEF8E01382128248EE53E060E00C
:1032400070E044835583668377838FEF92E09183A8
:10325000808385EC90E09587848784EC90E0978765
:10326000868780EC90E0918B808B81EC90E0938B53
:10327000828B82EC90E0958B848B86EC90E0978B30
:10328000868B118E128E138E148EE4E8F9E08FEF88
:10329000808312821182148613868FEF9FEFDC01E8
:1032A00087839087A187B287ADE9B9E013961C9216
:1032B0001E92129714964D935D936D937C9317977E
:1032C00081E193E011969C938E93E1E9F9E01382FA
:1032D000128283E293E09183808387E2848384E196
:1032E000818784E082871386E9EAF9E080E48083BD
:1032F000B283A183E0EBF9E082E081831382089539
:10330000CF93DF9300D000D01F921F92CDB7DEB7CE
:10331000789484B5826084BD84B5816084BD85B5B0
:10332000826085BD85B5816085BD80916E008160BC
:1033300080936E0010928100809181008260809362
:103340008100809181008160809381008091800064
:103350008160809380008091B10084608093B1008F
:103360008091B00081608093B00080919100826074
:103370008093910080919100816080939100809171
:1033800090008160809390008091A1008260809382
:10339000A1008091A10081608093A1008091A00094
:1033A00081608093A000809121018260809321013F
:1033B00080912101816080932101809120018160B1
:1033C0008093200180917A00846080937A008091BC
:1033D0007A00826080937A0080917A008160809385
:1033E0007A0080917A00806880937A001092C10000
:1033F00061E083E00E94C80360E083E00E946B0309
:10340000F89482E08093B0008093B10094E69093AA
:10341000B3001092B2008093700078948093B0094A
:103420001092B4098091B10960E00E94C80381E064
:103430008093B30961E08DE00E94C8030E94980365
:103440001092960980919B09823018F098E0909331
:1034500096098093990962E370E080E090E00E9411
:10346000410560919C0981E999E00E94BA0768EEE4
:1034700073E080E090E00E94410560E381E999E01B
:1034800046D80BE416E4C8010197F1F760E381E93F
:1034900099E03DD8C8010197F1F760E381E999E02F
:1034A00036D883E592E00197F1F760E281E999E08F
:1034B0002ED860919609606240E081E999E040D899
:1034C00084E08093970940E06CE081E999E038D886
:1034D00040E061E081E999E033D80BE31FE1C801E6
:1034E0000197F1F782E08093980940E066E081E976
:1034F00099E026D840E062E081E999E021D8C8014E
:103500000197F1F788E080939C0960E081E999E0F8
:103510000E94BA0740E061E081E999E011D8C80152
:103520000197F1F760E080E020D84CEAE42E42E019
:10353000F42E10E0F701659174918EE294E00E9400
:10354000D5296EE274E081E999E04DDB1F5F612FC0
:1035500080E00BD822E0E20EF11C133059F7E2EBC9
:10356000F2E0659174918EE294E00E94D52961E0C9
:103570008DE00E94B5126EE274E081E999E033DBE0
:1035800062E08DE00E94B5126EE274E081E999E09C
:103590002ADBE091F708F091F80882E08083E0915F
:1035A000F308F091F4081082E091F508F091F60824
:1035B0008FEC80831092FF08E091FB08F091FC08EB
:1035C00086E08083E091F908F091FA0880818061BB
:1035D0008083E091F908F091FA0880818860808307
:1035E000E091F908F091FA08808180688083E09189
:1035F000F908F091FA0880818F7D808380914C04D6
:10360000811111C08BE394E00E945A1210924B0476
:1036100010924A0480EA92E090933C0480933B0429
:1036200081E080934C044CE350E060EF77E08BE363
:1036300094E00E948E01FC018FEF868380EB8783EC
:1036400080EF808780916504811111C084E594E04A
:103650000E945A12109264041092630482EB92E06A
:10366000909355048093540481E08093650440E571
:1036700050E060E077E084E594E00E948E01FC0178
:103680008FEF868380EB878380EF808780917E0435
:10369000811111C08DE694E00E945A1210927D04AF
:1036A00010927C0484EC92E090936E0480936D04FD
:1036B00081E080937E044DE650E069EB75E08DE695
:1036C00094E00E948E01FC018FEF868380EB87835C
:1036D00080EF808780919704811111C086E894E083
:1036E0000E945A12109296041092950486ED92E070
:1036F000909387048093860481E08093970446E446
:1037000050E067EE74E086E894E00E948E01FC01D0
:103710008FEF868380EB878380EF808780915902CB
:10372000809384090E94980360E880E00E948F07DC
:103730006AE070E080E090E00E9441056091AC0991
:103740007091AD098091AE099091AF090E94DE2A77
:1037500020E030E04AE75AE40E94452A20E030E0C9
:1037600040E05FE30E94DD2920E030E040E85FE3D5
:103770000E94DC296B017C0120E030E040E450E451
:103780000E94412A87FDECC120E030E04FE753E47E
:10379000C701B6010E94902B18160CF4E7C1C701AF
:1037A000B6010E94B22A062F8091AA099091AB0916
:1037B0002091A90931E03093D6082093D5081092C2
:1037C000D4081092D308DC01ED91FC910190F081B6
:1037D000E02D60E019958091AA099091AB090E94B3
:1037E000F7068091A9099091C0089111FCCF91E052
:1037F0009093C0089093BF082FEF2093C2041092BB
:10380000C1041092C0049093BF049091BF04880F2C
:10381000892B8093BF048091BE08813009F0ADC12F
:103820001092BE088091BF048093BB008091BC00C1
:1038300083FDF8CF85EC8093BC008091C008813077
:10384000E1F38091C10491E0811102C09091C10423
:10385000AFE9B4E0E3ECF4E080E0891390C11092AA
:10386000C2088093C1088091AA099091AB09DC013C
:10387000ED91FC910284F385E02D1995182F682FA6
:103880006F76606180E00E948F07602F8EEF0E944C
:103890008F07612F80E00E948F0765E070E080E075
:1038A00090E00E944105612F606A80E00E948F07CE
:1038B00080E498E7ADE7B1E08093AC099093AD095F
:1038C000A093AE09B093AF0910E070E060E0812FE3
:1038D0000E9454071F5F1031C1F768EE73E080E06B
:1038E00090E00E94410510E000E097EFC92E92E0C1
:1038F000D92EB80190E080E00E94DE2A20E030E07E
:1039000040E450E40E94F72B21E030EE4FE75BE407
:103910000E94452A20E030E048E452E40E94942BC3
:1039200020E030E048EC52E40E94452A20E030E0FC
:1039300040E05FE30E94942B0E94B22A5B0188EE74
:10394000E82E82E0F82EB501F70181917F010E94F7
:103950005407CE14DF04B9F762E070E080E090E035
:103960000E944105005F1F4F0115F0E11F0709F696
:1039700081E08093A8088093AA088093AB0888EC24
:103980008093840945EF65EF85EF0E94EB1268EEA6
:1039900073E080E090E00E94410540E060E085EF48
:1039A0000E94EB1264EF71E080E090E00E9441051C
:1039B00040E065EF80E00E94EB1264EF71E080E090
:1039C00090E00E94410545EF60E080E00E94EB122C
:1039D00064EF71E080E090E00E9441054CE365EF08
:1039E00085EF0E94EB1264EF71E080E090E00E94AE
:1039F00041050FEF1FE0B801012E000C880B990B59
:103A00000E94E02A20E030E040E450E40E94F72BDE
:103A100021E030EE4FE75BE40E94452A20E030E0F1
:103A200048E452E40E94942B20E030E048EC52E459
:103A30000E94452A4B015C01A8EECA2EA2E0DA2EB4
:103A4000F12CE12C23E0E216F10471F020E030E0EB
:103A500040E05FE3C501B4010E94942B0E94B22AAA
:103A6000D6018C910E945407BFEFEB1AFB0AEFEFCF
:103A7000CE1ADE0AFFE0EF16F10421F762E070E0F3
:103A800080E090E00E944105005111090F3F1007AE
:103A900009F0B1CF1092A8081092AA081092AB08B2
:103AA0004CE360EF80EF0E94EB121092A808109296
:103AB000AA081092AB081092E3041092E504109249
:103AC000E604B3E06B2E7724739487EB99E0909330
:103AD000CE088093CD088091B40990E09093D008EF
:103AE0008093CF088091810A90E09093D2088093D0
:103AF000D1088091B009853009F0C3C68091B90919
:103B00009091BA09885891098D35910508F067C0E0
:103B10008091B4098430B9F58091BB099091BC09BA
:103B20008097479780F58091BD099091BE090997CC
:103B3000099748F51092CC081092CB088FEF9FEFB1
:103B4000DC018093C7089093C808A093C908B0937C
:103B5000CA0883E090E09093C4088093C3081AC217
:103B6000C12CD12C30E4E32EFE2C19CEC12CD12C4B
:103B70002FE7E22E23E4F22E12CE85EE5CCE2D91BD
:103B800021938F5F6ACE8091B409843440F1809193
:103B9000BB099091BC09825491098E9700F590E081
:103BA00080E040E050E0BA01FC01E354F64F208190
:103BB0003181295031092930310588F4FC01E15463
:103BC000F64F20813181275131092231310528F109
:103BD000208131812650310927303105B8F180919B
:103BE000B4098A3108F467C08091B7099091B80987
:103BF000843F914080F51092CC081092CB088FEF53
:103C00009FEFDC018093C7089093C808A093C90870
:103C1000B093CA088BE090E09ECF440F551F661FFB
:103C2000771F416004968038910509F0BDCF80E28E
:103C300090E09093CC088093CB084093C7085093B2
:103C4000C8086093C9087093CA0883CF440F551FF2
:103C5000661F771FE7CF8091B9099091BA098597C0
:103C60004B9748F5E0EBF9E082E090E0C12CD12CD5
:103C700076019C012F5F3F4F4091B4094217130614
:103C800009F00CF4FDC04385548547505109473075
:103C9000510508F0F4C025853685235131092F30B0
:103CA000310508F4DEC0258536852A5031092930D2
:103CB000310508F4DFC08091B4098A3108F441C0AD
:103CC0008091B7099091B8098032934008F493CF5E
:103CD0008091B9099091BA09C697869790F580911D
:103CE000BB099091BC09C697869758F5EFEBF9E0B0
:103CF00083E090E0C12CD12C7601AC014F5F5F4F87
:103D00002091B4092417150609F00CF4E1C0DF0175
:103D100012972D913C912C5031092B30310508F030
:103D2000D6C020813181255231092B31310508F46B
:103D3000C0C0208131812C5031092A30310508F46E
:103D4000C1C08091B409823260F18091B90990912B
:103D5000BA090697079728F5EDEBF9E082E090E0C5
:103D600040E050E0BA017C01BFEFEB1AFB0A209162
:103D7000B4092E151F0409F00CF4D6C0DF01129708
:103D80000D911C9111970E5111090731110508F47D
:103D9000B6C02D913C912C5031092B30310508F4DF
:103DA000BDC01C821B82E1E0F0E0FA83E9838091D0
:103DB000B4098D3008F438C149E753E0BE016D5FA6
:103DC0007F4FCE0101960E94D205892B09F02CC1AC
:103DD00049E753E0BE016D5F7F4FCE0101960E941F
:103DE000D205019709F020C149E753E0BE016D5F9C
:103DF0007F4FCE0101960E94D2058C01892B09F0DC
:103E000013C1812C912C54012091B40989819A818C
:103E10002817190609F00CF4ABC049E753E0BE01BE
:103E20006D5F7F4FCE0101960E94D2057C0149E76C
:103E300053E0BE016D5F7F4FCE0101960E94D20517
:103E4000F1E0EF16F10409F088C0892B09F0ECC00D
:103E5000880C991CAA1CBB1C689480F80F5F1F4F2C
:103E6000D3CFCC0CDD1CEE1CFF1C6894C0F802966E
:103E70003496FFCECC0CDD1CEE1CFF1CF8CFC90124
:103E80000197959587959093CC088093CB080C97D4
:103E90002CF41092CC081092CB080DCFC092C7081A
:103EA000D092C808E092C908F092CA0884E090E075
:103EB00052CECC0CDD1CEE1CFF1C6894C0F80296A0
:103EC00034961BCFCC0CDD1CEE1CFF1CF8CFCA01B6
:103ED0000197959587959093CC088093CB080C9784
:103EE0002CF41092CC081092CB082BCFC092C708AC
:103EF000D092C808E092C908F092CA088BCE440F4D
:103F0000551F661F771F41602081318134962350F1
:103F100031092530310538F4029625CF440F551F5D
:103F2000661F771FF1CFC7010197959587959093ED
:103F3000CC088093CB0840972CF41092CC081092B8
:103F4000CB082FCF4093C7085093C8086093C90887
:103F50007093CA088CE090E0FECDEF2809F064C0B1
:103F6000019709F061C0880C991CAA1CBB1C76CF74
:103F70001093CC080093CB088092C7089092C80891
:103F8000A092C908B092CA0821E030E03093C4087A
:103F90002093C3084090CF085090D00831E0431AD6
:103FA00051088090CD089090CE0846E4840E911C74
:103FB00053E2A52EB12CC12CD12CE12CF12C312CAB
:103FC000212CF0E0E0E0A414B5040CF04EC5D401BF
:103FD0008D919D914D012D913C91B2E4AB16B104B0
:103FE000FCF4821B930B97FF03C091958195910977
:103FF00021E041970CF420E030E040E050E060E048
:1040000070E080E090E08501035011090E94D42DFA
:10401000C22AD32AE42AF52A362A272AF82BE92BA2
:104020002FEFA21AB20ACFCF1C821B8281E090E050
:104030009A8389838091CF089091D0081816190629
:104040000CF07EC0E091CD08F091CE08A2E0B0E087
:10405000BA83A9838281938189974E9708F070C0B3
:1040600083E090E09A838983848195810B970A97F6
:1040700008F066C04CEB51E0BE016D5F7F4FCE0192
:1040800001960E94D2058C01892B09F059C04CEB96
:1040900051E0BE016D5F7F4FCE0101960E94D205B7
:1040A000019709F04DC0812C912C54012091CF082B
:1040B0003091D00889819A81821793070CF0E5C06E
:1040C0004CEB51E0BE016D5F7F4FCE0101960E9427
:1040D000D2056C010330110539F14CEB51E0BE0102
:1040E0006D5F7F4FCE0101960E94D2057C010330A7
:1040F000110561F44CEB51E0BE016D5F7F4FCE01C5
:1041000001960E94D205E816F906D1F4C114D10433
:1041100009F4AEC0CA94CD2899F4EF2889F4880C2C
:10412000991CAA1CBB1CAEC04CEB51E0BE016D5FDC
:104130007F4FCE0101960E94D205C816D90669F2BA
:10414000E091CD08F091CE0882819381C697869741
:1041500078F5848195814B97459750F5DF01169648
:104160007F0136ECE30EF11C20E030E040E050E04F
:1041700060E070E080E090E00D911C911197095093
:10418000110908301105A0F412960D911C91139796
:10419000015111090D30110508F486C012960D91D8
:1041A0001C911397045011090530110508F4A1C0A2
:1041B0008091B409893380F1828193818957910973
:1041C0008335910548F584819581CA97899720F5B3
:1041D0009F012A5F3F4FC12CD12C760143E050E074
:1041E000D9016D917C9111976A50710969307105FF
:1041F00098F412966D917C91139766517109613113
:10420000710508F47AC012966D917C91665071091F
:104210006730710508F4A0C08091B409823209F0BA
:10422000A0C0828193810A97099708F09AC0A09153
:10423000B409B0E0A150B048AA0FBB1FAE0FBF1F1A
:104240008D919C910A97099708F08BC01092CC0829
:104250001092CB088FEF9FEFDC018093C7089093FB
:10426000C808A093C908B093CA0886E090E073CC50
:10427000EA94EF2809F064CF880C991CAA1CBB1C97
:10428000689480F80F5F1F4F11CF1093CC080093F4
:10429000CB088092C7089092C808A092C908B09233
:1042A000CA0822E030E072CE01E00E94D42D2160E5
:1042B0001496AE15BF0509F05FCF2093C708309361
:1042C000C8084093C9085093CA0800E20E94EF2D25
:1042D0002093C5083093C60885E090E09093C40809
:1042E0008093C30880E390E09093CC088093CB0840
:1042F00051CE01E00E94D42DDBCFD701C601880F3B
:10430000991FAA1FBB1F6C017D016894C0F84E5F06
:104310005F4F2C5F3F4F4B33510509F061CF9F0139
:104320002A583F4FD9012D913C912A50310929300B
:10433000310508F071CF2CE130E03093CC082093A8
:10434000CB08C092C708D092C808E092C908F09282
:10435000CA088AE090E0FFCBCC0CDD1CEE1CFF1CF1
:10436000D6CF82819381895791098335910560F574
:104370008091B409813240F184819581CA978997EF
:1043800018F59F012A5F3F4FC12CD12C760143E0E5
:1043900050E0D9016D917C9111976A507109693093
:1043A000710590F412966D917C9113976651710985
:1043B0006131710598F112966D917C916650710989
:1043C0006730710508F457C0828193818C5491093C
:1043D000C59708F084C08091B409843009F050C0BA
:1043E000848195818097479708F04AC0868197819C
:1043F0000997099708F044C01092CC081092CB0896
:104400008FEF9FEFDC018093C7089093C808A093BB
:10441000C908B093CA0887E090E09DCBD701C601D8
:10442000880F991FAA1FBB1F6C017D016894C0F8FB
:104430004E5F5F4F2C5F3F4F4332510509F0A9CFCC
:104440009F012A5B3F4FD9012D913C912A503109A0
:104450002930310508F0B8CF20E130E03093CC08A6
:104460002093CB08C092C708D092C808E092C90830
:10447000F092CA08FACECC0CDD1CEE1CFF1CD8CF83
:104480008091B409843458F18481958189549109CB
:10449000C39728F59F012A5F3F4FBF016A577F4F9F
:1044A000C12CD12C7601D9014D915C9111974950C5
:1044B00051094930510598F412964D915C9113972A
:1044C000465151094131510508F4A2C012964D914F
:1044D0005C91465051094730510508F4B8C08091AD
:1044E000B4098634C0F1828193810C970B9798F5BB
:1044F000848195810997099770F5868197818C97BA
:104500004F9748F58085918589974D9720F59F01B4
:10451000265F3F4FC12CD12C760145E050E0D901F8
:104520006D917C9111976C5071096B30710598F405
:1045300012966D917C9113976E51710967317105D7
:1045400008F48AC012966D917C91695071096930A6
:10455000710508F4B0C08091B409883508F4BAC078
:1045600082819381855891098B35910508F0B2C0FD
:1045700084819581825491098E9708F0ABC08F0198
:10458000045C1F4F8DE190E030E020E04091B409E1
:104590004450550B8417950714F5A8014250510952
:1045A000DA014D915C91495051094830510508F0AC
:1045B00091C0BC016F5F7F4FD8014D915C91119705
:1045C000475051094730510508F47AC04D915C912C
:1045D000485151094231510508F479C0CB01019786
:1045E000959587959093CC088093CB088A970CF487
:1045F00071C0C901330FAA0BBB0B8093C7089093FE
:10460000C808A093C908B093CA0889E090E0A3CA7B
:10461000D701C601880F991FAA1FBB1F6C017D011E
:104620006894C0F82C5F3F4F2617370709F03BCF3F
:1046300020E230E03093CC082093CB08C092C7082A
:10464000D092C808E092C908F092CA08E4CECC0C17
:10465000DD1CEE1CFF1CE6CFD701C601880F991F99
:10466000AA1FBB1F6C017D016894C0F84E5F5F4FAD
:104670002C5F3F4F4534510509F051CF9F0126571C
:104680003F4FD9012D913C912C5031092B303105F0
:1046900008F061CF20E230E03093CC082093CB08C3
:1046A000C092C708D092C808E092C908F092CA0820
:1046B00088E090E050CACC0CDD1CEE1CFF1CD6CF6D
:1046C000220F331F216002960C5F1F4F5FCF220F16
:1046D000331FF9CF8091B409803279F582819381BB
:1046E0000697069750F5848195810997099728F5D3
:1046F0009F012A5F3F4FBF01625C7F4FC12CD12CCD
:104700007601D9014D915C9111974650510946307F
:10471000510598F412964D915C91139749515109A6
:104720004331510508F482C012964D915C91495075
:1047300051094930510508F49AC02091CF083091B1
:10474000D00838872F83263031050CF495C08F01AF
:104750000E5F1F4F65ECC62E6DE9D62E6CE1E62E7E
:1047600061E8F62E83E090E09E838D83D801149655
:104770006D917C911597AD90BC9090E080E01ED734
:104780001B012C01B50190E080E018D74B015C01C2
:104790002DEC3CEC4CE45FE3C7D79B01AC01C201BC
:1047A000B1016FD6F0E0E0E087FD12C02DEC3CECEB
:1047B0004CE45FE3C201B101B7D79B01AC01C50175
:1047C000B4015FD6E2E0F0E087FD02C0E1E0F0E096
:1047D000A701960163E971E080E091E00E945C2D01
:1047E0006F01FF0FEE08FF08C626D726E826F92638
:1047F000ED81FE813196FE83ED830E5F1F4F2F8189
:104800003885E217F30709F0B1CFC092C708D092FC
:10481000C808E092C908F092CA0880E290E090933C
:10482000CC088093CB088FEF9FEF95C9D701C601C5
:10483000880F991FAA1FBB1F6C017D016894C0F8E7
:104840002C5F3F4F6217730709F05BCF2EE030E01B
:104850003093CC082093CB08C092C708D092C808E8
:10486000E092C908F092CA088FE090E074C9CC0CBD
:10487000DD1CEE1CFF1CE4CF82E08093B009109297
:10488000B4099090B90803E0911001C000E010E075
:10489000F801EC51FD4F5F0198012B5A3D4F790112
:1048A000C8018F54974F6C01812C64E170E080E067
:1048B00090E00E944105D5018D915D01863308F09D
:1048C000865320917B00982F9870277F922B90938E
:1048D0007B008770806480937C0080917A00806484
:1048E00080937A0080917A0086FDFCCF80917800D9
:1048F00060917900762F682F072E000C880B990B9A
:104900005FD620E030EC4FE754E4BFD520E030E044
:104910004FE753E409D726D6023008F02CC565309E
:10492000B0F0F601808190E0262F30E0AC014250DB
:1049300051092417350724F00296821793073CF497
:10494000D7018C91882309F4BBC381508C93FFEF6E
:10495000EF1AFF0A2FEFC21AD20A0F5F1F4F04305F
:1049600009F0A3CF882009F443C087E893E00E94B0
:10497000E21566E973E087EE98E00E94F31501EB1B
:1049800018E0F12CD8016D918D0170E090E080E08D
:104990004AE00E947315B3E0FB1609F4A4C369E36F
:1049A00073E087EE98E00E94F315F394E4E0FE12C2
:1049B000E9CF62EA73E087EE98E00E94F31505EB19
:1049C00018E0F12CD8016D918D0170E090E080E04D
:1049D0000E94B815B3E0FB1609F48AC369E373E0DB
:1049E00087EE98E00E94F315F394E4E0FE12EACF1C
:1049F0008091B808882331F08091B408873E10F088
:104A00001092B9088091B90835EBC32E38E0D32E47
:104A100047EFE42E42E0F42E512C882309F4CEC354
:104A200005EA18E080E0F12CD801ED908D01EE2030
:104A300009F477C3B1E0FB1609F45FC3E2E0FE16A8
:104A400009F49BC31092A8081092AC081092A90810
:104A50001092AD081092AA081092AE081092AB08FE
:104A60001092AF081092B00850C39601A701632DB1
:104A7000722D8F2F9E2F00E20E94EF2D69017A0187
:104A800082E08093B0091092B4098BE593E00E9414
:104A9000E21562E673E087EE98E00E94F3154AE0C3
:104AA000C701B6010E9473153CECC31633E0D30670
:104AB00033E3E3063CE7F30609F47CC208F0E7C001
:104AC00080EFC81680E3D8068FE0E8068FE4F8068A
:104AD00009F466C208F065C0A0ECCA16A3E3DA06C2
:104AE000AFE3EA06ACE4FA0609F44CC238F5E3EFAA
:104AF000CE16E3E3DE06ECE0EE06ECE4FE0609F497
:104B0000ADC128F48FE78093A40810E0AAC120EF7C
:104B1000C21623E3D2062FE0E2062CE4F20609F4E3
:104B20009BC184E133ECC31633E3D3063CE3E306D5
:104B30003CE4F30639F78093A40892C143E0C4161D
:104B400043E3D4064CEFE4064CE4F40609F426C231
:104B5000A0F493E3C916D9069CECE9069CE4F90697
:104B600009F416C28BE0A0E3CA16A3E3DA06AFECA1
:104B7000EA06ACE4FA06F9F2C5CFC114B3E3DB06EA
:104B8000BFEFEB06BCE4FB0609F406C280E2E3EFEC
:104B9000CE16E0E3DE06ECE0EE06EFE4FE0659F2A8
:104BA000B1CFC114F0E3DF06FFEFEF06FFE4FF062D
:104BB00009F4E5C1B8F533E3C31630E3D3063CECA2
:104BC000E3063FE4F30609F4DFC1B0F483ECC81652
:104BD00080E3D8068CE3E8068FE4F80609F4DAC12E
:104BE00089E290ECC91690E3D9069FE3E9069FE4B9
:104BF000F90609F4A0CF86CFA0E3CA16DA06AFEC17
:104C0000EA06AFE4FA0609F4C1C1B3E0CB16B0E39B
:104C1000DB06BCEFEB06BFE4FB0609F073CF709236
:104C2000A4081EC1E3EFCE16E3E0DE06ECE0EE06DC
:104C3000ECE7FE0609F4B8C1A0F42FEFC21623E09A
:104C4000D206E1042CE7F20609F4B0C181E23CEFA0
:104C5000C31633E0D306E3063CE7F30609F46BCF53
:104C600051CF40EFC41643E0D4064FE0E4064CE7D2
:104C7000F40609F497C18FECC81683E0D80680E3E8
:104C8000E8068CE7F80609F03DCF8CE254CF9FEFA1
:104C9000C916D104E1049FE7F90609F49BC108F0A5
:104CA0006DC0B3E3CB16B3E0DB06BCECEB06BCE7B0
:104CB000FB0609F483C168F5F0ECCF16F3E0DF06DC
:104CC000FFE3EF06FCE7FF0609F472C160F488E138
:104CD00033ECC31633E0D3063CE3E3063CE7F306CC
:104CE00009F429CF0FCF4FE3C41643E0D40640ECBC
:104CF000E4064CE7F40609F463C18CE3C81683E0CC
:104D0000D80683ECE8068CE7F80609F0FBCE86E2CD
:104D100012CF9CE0C91693E0D90693EFE9069CE711
:104D2000F90609F451C1B0F4B0E3CB16B3E0DB06E9
:104D3000BFECEB06BCE7FB0609F43EC185E0EFE003
:104D4000CE16E3E0DE06E0EFEE06ECE7FE0609F441
:104D5000F2CED8CEF3E0CF16DF06FCEFEF06FCE78D
:104D6000FF0609F42FC183E1C11423E0D2062FEF1F
:104D7000E2062CE7F20609F4DECEC4CE33ECC3160D
:104D8000D1043CE3E3063FE7F30609F427C190F5BD
:104D900080EFC816D1048FE0E8068FE7F80609F423
:104DA00015C1A0F4ACEFCA16D104A3E0EA06AFE740
:104DB000FA0609F40DC181E5B3EFCB16D104BCE0CE
:104DC000EB06BFE7FB0609F4B6CE9CCEEFECCE16A1
:104DD000D104E0E3EE06EFE7FE0609F401C185E544
:104DE000FCECCF16D104F3E3EF06FFE7FF0609F46E
:104DF000A2CE88CE2CE3C216D10423ECE2062FE724
:104E0000F20609F4F1C0A0F440ECC416D1044FE35B
:104E1000E4064FE7F40609F4DFC08FE3C816D104B7
:104E200080ECE8068FE7F80609F06CCE8DE583CEBE
:104E300093E3C916D1049CECE9069FE7F90609F44F
:104E4000D1C08AE5A0E3CA16D104AFECEA06AFE709
:104E5000FA0609F470CE56CE82E06DCE6092A408B8
:104E600011E06AE673E087EE98E00E94F315609126
:104E7000A40870E090E080E04AE00E9473156BE2C5
:104E800073E087EE98E00E9464158CE793E00E943F
:104E9000E2151093B908912C112309F4F7CC109264
:104EA000750210927602109277029091A4089E35B6
:104EB00008F004C1E92FF0E08827EF59F84D8F4F33
:104EC0005BC60F28FF27F6270928FF27FF27FF27A4
:104ED000FF275E285E2812282028362836284828F2
:104EE0005E285E285E2852285828162825283B2848
:104EF0003B284C285E285E285E2854285A282F28F4
:104F00002C28402840284E285E285E285E285628F7
:104F10005C281A2831283128422842285E285E2839
:104F20005E285E285E285E285E285E285E285E2851
:104F30005E285E285E285E285E285E285E285E2841
:104F40005E285E285E285E285E285E285E285E2831
:104F50005E285E285E285E285E285E285E285E2821
:104F60005E28FF27FF27FF27FF27FF27FF275E2851
:104F70005E285E285E28FF27FF27FF27FF27109265
:104F8000A4086ECF8AE0D7CD8EE1D5CD88E2D3CD0F
:104F900085E1D1CD8FE1CFCD8CE0CDCD86E1CBCDFC
:104FA0008AE2C9CD8DE0C7CD87E1C5CD8BE2C3CD07
:104FB0008EE0C1CD82E2BFCD82E1BDCD8CE1BBCD23
:104FC00084E0B9CD8DE1B7CD87E2B5CD80E5B3CD35
:104FD00082E5B1CD86E0AFCD83E5ADCD84E5ABCD47
:104FE00087E0A9CD8BE5A7CD8CE5A5CD80915902B1
:104FF0008A3F18F48B5F809359027092A708812F23
:105000009A50983218F47092A608812F8093B908AC
:1050100038CC80915902863080F38550ECCF709265
:10502000A508EDCF8FEF80937502E9CF8FEF8093C6
:105030007602E5CF8FEF809375028093760209C0E8
:105040008FEF8093750284E6F2CF8FEF8093760224
:1050500084E680937702D3CF84E6809375028FEF46
:10506000F8CF8FEF8093750280EAE7CF8FEF8093C0
:10507000750280EADCCF8FEF8093760280EAE9CF79
:1050800080EAEBCF80EA8093750280937602E7CFC7
:105090008FEF80937502CBCF8FEFCFCF8FEF8093C1
:1050A0007502D7CF85E0BFCF85E0C1CF85E0D1CFF6
:1050B0008BEFB9CF8BEFBBCF8BEFCBCF80E0A0CF07
:1050C000F6016083F801EB54F74F70826C928824EC
:1050D00083943DCCD6016C93F801EB54F74F70826A
:1050E000F7016082F4CF80EA93E00E94E2155DCC84
:1050F00080EA93E00E94E21577CCF092A808F09243
:10510000A908F092AA08F092AB084091770260914A
:105110007602809175020E94EB12F801319710829D
:105120008E2DF394F3E0FF127FCC8823E1F088E525
:1051300093E00E94E21562EB73E087EE98E00E9434
:10514000F3156091A40870E090E080E04AE00E94CE
:1051500073156BE273E087EE98E00E9464158BEBA9
:1051600093E00E94E21564E170E080E090E00E942C
:1051700041050E94D4020C94651D0E94D007CDCF3A
:10518000F1E05F122FC02AE532E041E0612F8FE5A8
:1051900092E026C021E0521609F45BC0521620F1BD
:1051A00032E0531609F4C2C0F601319710825394CD
:1051B000FFEFEF1AFF0A24E05216A9F2D6018D91F3
:1051C0006D01882389F310E0F7018081181710F72B
:1051D0005110D6CF29E632E040E0612F8DE692E013
:1051E0000E94F4151F5FF0CF6091B30870E090E06B
:1051F00080E0E4D120E030E040E450E4F8D228E45C
:1052000031E448E55BE441D120E030E04FE753E48E
:105210008BD2A3D16F3F71058105910529F024F050
:105220006FEF70E080E090E0609359026093840932
:105230004091770260917602809175020E94EB1294
:105240001092A8081092A9081092AA081092AB0810
:10525000ABCF10E070E060E0812F0E9454071F5F29
:105260001031C1F72CEAA22E28E0B22E08EE12E08F
:10527000D5018D915D01480193E0492E882309F401
:105280004AC060ED77E0F40181914F010E9454071C
:105290004A944110F6CF0D5F1F4FB1EBAB16B8E04B
:1052A000BB0631F78091B2088C3350F510E000E076
:1052B000B80190E080E082D120E030E040E450E4AA
:1052C00096D221E030EE4FE75BE4DFD020E030E023
:1052D00048E452E429D220E030E048EC52E4D5D052
:1052E0003CD184E00E94540762E070E080E090E0EE
:1052F0000E944105005F1F4F0115E0E11E07C1F646
:105300001092AC081092AD081092AE081092AF083F
:105310001092B00849CF70E060E0D4018D914D014A
:105320000E9454074A944110F6CFB5CF6091B3085C
:1053300070E090E080E042D120E030E040E450E4D2
:1053400056D228E431E448E55BE49FD020E030E029
:105350004FE753E4E9D101D16F3F71058105910514
:1053600029F024F06FEF70E080E090E06093590244
:105370000E94D00719CFD6018C9190E0262F30E003
:10538000AC0142505109241735072CF002968217C0
:1053900093070CF0DCCAF7018081882309F49ACEC8
:1053A000911098CE81508083D2CAFB01DC01059018
:1053B0000D920020E1F708955058BB27AA270ED080
:1053C00075C166D130F06BD120F031F49F3F11F4FC
:1053D0001EF45BC10EF4E095E7FB51C1E92F77D1D4
:1053E00080F3BA17620773078407950718F071F402
:1053F0009EF58FC10EF4E0950B2EBA2FA02D0B0158
:10540000B90190010C01CA01A0011124FF27591B09
:1054100099F0593F50F4503E68F11A16F040A22F0F
:10542000232F342F4427585FF3CF46953795279580
:10543000A795F0405395C9F77EF41F16BA0B620B7F
:10544000730B840BBAF09150A1F0FF0FBB1F661FC6
:10545000771F881FC2F70EC0BA0F621F731F841F09
:1054600048F4879577956795B795F7959E3F08F02F
:10547000B3CF9395880F08F09927EE0F97958795EE
:105480000895D9D008F481E008950CD00FC107D158
:1054900040F0FED030F021F45F3F19F0F0C0511120
:1054A00039C1F3C014D198F39923C9F35523B1F34B
:1054B000951B550BBB27AA2762177307840738F083
:1054C0009F5F5F4F220F331F441FAA1FA9F333D0E2
:1054D0000E2E3AF0E0E830D091505040E695001C96
:1054E000CAF729D0FE2F27D0660F771F881FBB1F52
:1054F000261737074807AB07B0E809F0BB0B802D2C
:10550000BF01FF2793585F4F2AF09E3F510568F077
:10551000B6C000C15F3FECF3983EDCF3869577950B
:105520006795B795F7959F5FC9F7880F911D969579
:10553000879597F90895E1E0660F771F881FBB1FD5
:10554000621773078407BA0720F0621B730B840B82
:10555000BA0BEE1F88F7E095089504D06894B11156
:10556000D9C00895BCD088F09F5790F0B92F9927E3
:10557000B751A0F0D1F0660F771F881F991F1AF05E
:10558000BA95C9F712C0B13081F0C3D0B1E0089527
:10559000C0C0672F782F8827B85F39F0B93FCCF3A8
:1055A000869577956795B395D9F73EF49095809554
:1055B000709561957F4F8F4F9F4F0895E89409C074
:1055C00097FB3EF490958095709561957F4F8F4F36
:1055D0009F4F9923A9F0F92F96E9BB279395F6954C
:1055E000879577956795B795F111F8CFFAF4BB0FCA
:1055F00011F460FF1BC06F5F7F4F8F4F9F4F16C02E
:10560000882311F096E911C0772321F09EE8872FB7
:10561000762F05C0662371F096E8862F70E060E073
:105620002AF09A95660F771F881FDAF7880F9695EC
:10563000879597F90895990F0008550FAA0BE0E890
:10564000FEEF16161706E807F907C0F01216130644
:10565000E407F50798F0621B730B840B950B39F484
:105660000A2661F0232B242B252B21F408950A26EA
:1056700009F4A140A6958FEF811D811D089597F92A
:105680009F6780E870E060E008959FEF80EC0895E8
:1056900000240A9416161706180609060895002411
:1056A0000A9412161306140605060895092E03948B
:1056B000000C11F4882352F0BB0F40F4BF2B11F4FF
:1056C00060FF04C06F5F7F4F8F4F9F4F089557FD5E
:1056D0009058440F551F59F05F3F71F04795880F60
:1056E00097FB991F61F09F3F79F0879508951216F7
:1056F00013061406551FF2CF4695F1DF08C01616A3
:1057000017061806991FF1CF869571056105089453
:105710000895E894BB2766277727CB0197F908956A
:105720008ADF08F48FEF08950BD0C0CFB1DF28F0E7
:10573000B6DF18F0952309F0A2CFA7CF1124EACF46
:10574000C6DFA0F3959FD1F3950F50E0551F629FE0
:10575000F001729FBB27F00DB11D639FAA27F00DCA
:10576000B11DAA1F649F6627B00DA11D661F829FF1
:105770002227B00DA11D621F739FB00DA11D621FD6
:10578000839FA00D611D221F749F3327A00D611DF3
:10579000231F849F600D211D822F762F6A2F1124D5
:1057A0009F5750408AF0E1F088234AF0EE0FFF1F28
:1057B000BB1F661F771F881F91505040A9F79E3F5F
:1057C000510570F05CCFA6CF5F3FECF3983EDCF361
:1057D000869577956795B795F795E7959F5FC1F79C
:1057E000FE2B880F911D9695879597F90895FA01DC
:1057F000EE0FFF1F30962105310599F161157105F6
:1058000061F48038BFE39B0749F1689490388105C3
:1058100061F08038BFEF9B0741F0992342F5FF3FCD
:10582000E1053105210511F1E8940894E795D901C6
:10583000AA2329F4AB2FBE2FF85FD0F310C0FF5F6F
:1058400070F4A695E0F7F73950F019F0FF3A38F404
:105850009F779F930CD00F9007FC905808953EF0CF
:1058600014CF60E070E080E89FE308954FE79F77F2
:105870005F934F933F932F939ED02F913F914F91E2
:105880005F9152DF05C019F40EF0F9CE42CFFDCE84
:1058900026DFC8F39638C0F707F80F92E8942BE399
:1058A0003AEA48EB5FE74EDF0F920F920F924DB747
:1058B0005EB70F92C0D0E4EEF0E016D04F915F914A
:1058C000EF91FF91E595EE1FFF1F49F0FE57E0684D
:1058D0004427EE0F441FFA95E1F74195550B32D05E
:1058E0000F9007FE26C00895DF93CF931F930F9369
:1058F000FF92EF92DF927B018C01689405C0DA2E53
:10590000EF011EDFFE01E894A591259135914591A7
:105910005591AEF3EF0162DDFE019701A801DA9423
:1059200079F7DF90EF90FF900F911F91CF91DF916A
:1059300008959B01AC0160E070E080E89FE3A5CD95
:105940009ECEACC0CCDEE8F39923D9F3940F511D61
:10595000BBF39150504094F059F0882332F0660F19
:10596000771F881F91505040C1F79E3F510544F763
:10597000880F911D9695879597F908955F3FACF034
:10598000983E9CF0BB27869577956795B79508F468
:10599000B1609395C1F7BB0F58F711F460FFE8CFE2
:1059A0006F5F7F4F8F4F9F4FE3CFB4CE0EF076C027
:1059B0006CCE689464CE93DEC8F39923D1F3C6F31A
:1059C000DF93CF931F930F93FF92C92FDD27882377
:1059D0002AF02197660F771F881FDAF720E030E062
:1059E00040E85FEB9FE3883920F0803E30F021965D
:1059F0008F77E3DCECE0F1E003C0DFDCE9E3F1E02A
:105A000073DF8B01BE01EC01FB2E6F577109759599
:105A1000771F880B990BD4DD28E132E741E35FE380
:105A20008FDEAF2D9801AE01FF900F911F91CF91A6
:105A3000DF91D4DC3BCEFA01DC01AA0FBB1F9B0136
:105A4000AC01BF5728F422273327442750781FC0C2
:105A5000B75188F4AB2F0024469537952795011C44
:105A6000A395D2F3002069F0220F331F441FB39592
:105A7000DAF30DD0A1CC61307105A0E88A07B946F0
:105A800030F49B01AC016627772788279078309601
:105A900021F0208331834283538308959F3F31F067
:105AA000915020F4879577956795B795880F911D4C
:105AB0009695879597F90895DB018F939F936AD008
:105AC000BF91AF91A29F800D911DA39F900DB29F9A
:105AD000900D1124089597FB072E16F4009406D01C
